:020000041102E7
:1000000003B40148019001BDADAE000003B4014846
:10001000019001BD456B010003B40148019001BD91
:100020000189000003B40148019001BDC53F0000F3
:1000300003B40148019001BDE94C010003B401483B
:10004000019001BDC95C010003B40148019001BDEC
:10005000CD4C010003B40148019001BD154D0100D4
:1000600003B40148019001BDF54E010003B40148FD
:10007000019001BD434D010003B40148019001BD51
:100080002526000003B40148019001BD8B520100F8
:1000900003B40148019001BDB352010003B401480B
:1000A000019001BD6189000003B40148019001BDC8
:1000B0000D52010003B40148019001BDC94A01007D
:1000C00003B40148019001BD691F000003B4014859
:1000D000019001BD5D17000003B40148019001BD0E
:1000E0003D4B010003B40148019001BD595201008C
:1000F00003B40148019001BD5125000003B401483B
:10010000019001BD014C010003B40148019001BD03
:10011000594F010003B40148019001BD1D4B01007E
:1001200003B40148019001BD8D12000003B40148E1
:10013000019001BD4D1F000003B40148019001BDB5
:100140005522000003B40148019001BDDD520100B9
:1001500003B40148019001BD1D4D010003B40148E5
:10016000019001BD810E000003B40148019001BD62
:10017000017F000003B40148019001BDE1170000B8
:1001800003B40148019001BD7918000003B401488F
:10019000019001BDD949010003B40148019001BD9E
:1001A000E928000003B40148019001BD5549010050
:1001B00003B40148019001BD4551010003B4014859
:1001C000019001BDC926000003B40148019001BDA2
:1001D0001DBC000003B40148019001BD6DBC0000CE
:1001E00003B40148019001BD3555000003B4014836
:1001F000019001BDC51D000003B40148019001BD7F
:10020000F94C010003B40148019001BDC521000073
:1002100003B40148019001BD291C000003B401484A
:10022000019001BD851F000003B40148019001BD8C
:10023000090E000003B40148019001BD11470100FF
:1002400003B40148019001BDC31DFF1F03B4014861
:10025000019001BD9D1DFF1F03B40148019001BD28
:10026000A946010003B40148019001BD212400000A
:1002700003B40148019001BDE548000003B4014802
:10028000019001BD2951010003B40148019001BD55
:10029000D91B000003B40148019001BD451EFF1F9A
:1002A00003B40148019001BD6D1EFF1F03B4014856
:1002B000019001BD51470100F8B5C849C64A002068
:1002C00005464A608300401CD550FF28FADD486887
:1002D000C34A014680318A606E22C262C14A1278E6
:1002E000002A01D07F22C2620A22BF4B02651A781F
:1002F0008263BE4AC2611A781024022A06D01A7894
:10030000032A08D01A78042A05D005E0B84AC26149
:100310000422026200E00462B64A4261192292019C
:1003200082613722CA6036272D26C76308224664B9
:1003300002644F6032270F603B27CF634527CF64AD
:100340000D4639274035C4C532270F6502270F6691
:1003500042270835C4C51E274F66CE668A66052625
:100360004E6742260E675A260E614A613C228A6118
:10037000AF22D2000260A04A02631A78022A06D095
:100380001A78032A05D01A78042A04D005E0152229
:1003900002E00E2200E00C224260FF222D32826039
:1003A000C260FF22F5320261944A82647D22D2004B
:1003B000934ECA67C6644262924A82627322C265E1
:1003C000062242658265C21D0826F93202271660A0
:1003D00047664B27FF0087660927C7668A4F07676E
:1003E000466700258567BD10884F854EC5673E600E
:1003F0001E78022E06D01E78032E07D01B78042B01
:1004000008D00AE01A23CB61212301E01323CC6139
:100410000B6202E00E230C62CB61784B8B627D2372
:10042000DB008B6764234B620523CB6202230B63E3
:10043000C8234B6300238B633821516074491164D6
:10044000744991614B21C900D161734911627D21C9
:1004500009015162D3661E21136791666A4991654D
:10046000156655645567D1656149FF3096319167CE
:100470006A49D1676A4A8130026082604160FF2127
:10048000F531C160016168486649534A8160674936
:10049000803A11616449664A80318A62654ACA625B
:1004A000654A8261654AC262654A02636548C861FD
:1004B0005D496548403188616549644888605A48AB
:1004C00064498038416064494163FFF799FD012028
:1004D000FFF79CFDF8BDF3B50746604881B0C169E0
:1004E0005F4A1140FF310931C161002613E0002548
:1004F0002C461120FFF790FD5848406A8007800F76
:10050000610088402843641CE4B20546102CF0D3F7
:1005100001C7761CF6B202988642E8D3FEBD10B53C
:100520002E4C607800280AD104214E48FFF7D3FFF3
:100530004C4804211030FFF7CEFF0120607010BD41
:10054000F0B500248BB00D460646102902D90120D3
:100550000BB0F0BDFFF7E3FF424900200A5C401CEE
:100560001419C0B21028F9D3002C03D0102D03D9D0
:100570000B20EDE70E20EBE73B483A4C00230068E8
:1005800002A91034E25CC75C7A40CA545B1CDBB23F
:10059000102BF7D306AA3348FFF744FD102D00D9DE
:1005A00010252A4606A93046FFF742FDFFF746FD13
:1005B000216840182060FFF741FD616840186060C5
:1005C000FFF73CFDA1684018A060FFF737FDE16828
:1005D0004018E0600020BBE70004FF1F4C4DFF1FE8
:1005E0000078FF1FB84AFF1F4A0AFF1F220B0000B6
:1005F0004605000080C3C9019A02000050C30000F4
:10060000F81100006A180000204E0000F009FF1FDA
:100610000040001168100000C409000040420F00B3
:1006200010270000293EFF1F0001FF1F2D22FF1F82
:10063000D541FF1FB544FF1F951EFF1F2920FF1F37
:10064000B11EFF1F7D48FF1F1D1EFF1FB125FF1F8D
:100650000002FF1F893BFF1F7D3CFF1F40F0004051
:1006600000FEFEFF8472FF1F6C4DFF1F0A780270B0
:100670008A7842704A88120A82700979C17004200F
:1006800070470A7802700988090A41700220704791
:1006900010B500220EE093005B189C7804705C8813
:1006A000521C240A44701C7984709B88D2B21B0AA5
:1006B000C370001D0B789342EDD81806800D10BD55
:1006C000F8B50D4606464978012031700024761CA5
:1006D00016E06978012917D01221614349198A78F7
:1006E00032704A88871C120A7270B61C102230467B
:1006F000091DFFF79DFC1037B8B21036641CE4B238
:100700002978A142E5D8F8BDA10049198A7832704C
:100710004A88871C120A7270B61C02223046091DD4
:10072000FFF786FCBF1CB8B2B61CE7E710B50C4655
:10073000097801702188090A4170A1788170618867
:10074000090AC170A288A11D001DFFF771FCA088D5
:10075000001D80B210BD10B50C460A88891CFFF739
:1007600067FC208810BD10B50B788A78027053435F
:10077000DCB22246401C091DFFF75AFC601C10BD6C
:1007800010B50B788A7802705343DCB22246401CC5
:10079000091DFFF74DFC601C10BD10B50C460A8802
:1007A000891CFFF745FC208810BD10B50C460A884F
:1007B000891CFFF73DFC208810BD7FB51546044617
:1007C000022901D0102903D1022B04D0102B02D012
:1007D000002004B070BD994202D10A46294607E0C4
:1007E0001029694607D000F00DF810226946284606
:1007F000FFF72AFCEDE7104600F004F810226946E6
:100800002046F5E770B50C4605000CD0002C0AD048
:10081000102206492046FFF70BFC287820736878E1
:100820006073012070BD002070BD0000746502116E
:1008300010B50B460122024901F058FD10BD000021
:100840006D06021170B5064608880C46172812D3AB
:100850000B4603220949304601F048FD050008D146
:10086000074920880988884200D20146304600F0B6
:10087000ADF9284670BD022070BD0000830602114C
:100880007A4DFF1F10B500231922194601F02EFDE5
:1008900010BD000010B50A78002A05D00B460722CB
:1008A000024901F023FD10BD022010BD9106021186
:1008B00010B54A78012A01D0022A08D10A78002A04
:1008C00005D00B460522034901F010FD10BD0220A2
:1008D00010BD0000C106021101494000085A7047CE
:1008E000784DFF1F0149172008807047784DFF1F82
:1008F0000098022B01D00420704711785278120220
:1009000089180180002070470098012B01D0042035
:100910007047117801700020704770B5049C1E4626
:100920001546062B1BD369782878090240182080C9
:10093000E978A87809024018608002222271291DF6
:10094000601DFFF775FBB61FB2B22281F02A06D8F0
:100950002046A91D0A30FFF76BFB002070BD042064
:1009600070BD0098042B01D0042070475378117893
:100970001B02C91801809178D2781202891841802F
:1009800000207047F8B584890D460646002C26D015
:10099000B2681778380620D50C2C20D90C3CA4B2AC
:1009A0001019009001217088234601F03BFB0028BC
:1009B00011D0022028707806C00F6870B806800E2B
:1009C000A870641E2004000CA88001D0B068401CF0
:1009D000A8600020F8BD0120ECE70020EAE7012034
:1009E000F8BD10B502981146042B14D34C780A7840
:1009F000240212190280CC788A78240212194280CB
:100A00001B1F9AB28280F22A05D8801D091DFFF7AC
:100A10000FFB002010BD042010BD0098042B01D056
:100A200004207047537811781B02C918018091780F
:100A3000D2781202891841800020704710B50298C0
:100A40001146062B03D0142B03D0042010BD022224
:100A500000E0102202714B780A781B02D218028043
:100A6000CB788A781B02D21842800279401D091D7A
:100A7000FFF7DEFA002010BD30B5039CD80718D16F
:100A8000D805010E022914D30B488088814210D862
:100A9000F6200155002008E0557813782D025B19E7
:100AA0004500401C6353C0B2921C8842F4D300201E
:100AB00030BD042030BD0000724DFF1F0098022B96
:100AC00001D00420704711785278120289180180F1
:100AD0000020704770B5144602460498022B18D3C4
:100AE000667825783602AD1905800546E0352A7608
:100AF0006976002A0BD0E8219B1E9AB242808A4276
:100B000007D8A11C001DFFF793FA002070BDF42147
:100B1000F2E7042070BD000010B50B461722024911
:100B200001F0E4FB10BD00002D07021110B50B46CB
:100B30000D22024901F0DAFB10BD00005707021137
:100B400010B50A78002A05D00B461122024901F09F
:100B5000CDFB10BD022010BD6707021110B50A7849
:100B6000002A05D00B460922024901F0BFFB10BD47
:100B7000022010BD8107021110B50B460F22024959
:100B800001F0B4FB10BD00009B07021110B50B462D
:100B90000B22024901F0AAFB10BD0000AB070211B5
:100BA000F72800D9F720084A01461080401EC317D5
:100BB0009B0F18188003000C5080491EC80F401866
:100BC000C003000C90807047724DFF1F044A1288CA
:100BD000914203D8024A4000921D11527047000012
:100BE000724DFF1F10B500231322194601F07EFB42
:100BF00010BD000070B50E4C00256071A571691E16
:100C0000E18100F06FFB0420E0711022002109480F
:100C1000FFF720FA0748102200211030FFF71AFAD8
:100C2000E562257265720720A072E57270BD000052
:100C3000744BFF1F956DFF1FFEB53B4D0C4608041E
:100C40000CD56879FFF70CFA050004D002F0DCF847
:100C50002846FFF70BFA0120C00360E0600403D5CB
:100C6000012080034840FEBD2F48E107012680791E
:100C700000292AD02978002920D0052821D0297AD6
:100C800068460170697A4170274906223031801C1C
:100C9000FFF7CEF9A97A68460172E97A417269468E
:100CA000687900F00BFA002808D00720A871696A5B
:100CB000002903D00968002900D0884720467040E9
:100CC000FEBD032069460870E4E7A1070DD505289D
:100CD00009D1E889FFF7D0F9AA8A002A03D00221B6
:100CE0006879FFF7CFF9022019E0600704D50020EA
:100CF00002F0CAF8042012E0200712D52879012852
:100D000002D002280AD107E00096AB8B6A8B298BB0
:100D1000E88A00F00BF801E000F05AF90820604082
:100D2000FEBD0020FEBD0000744BFF1FF8B5134C44
:100D3000069EA579052D01D01420F8BD104F851F02
:100D4000BD4219D2062917D3BD1DA94214D2FF27CF
:100D5000F537BA4210D20A2B0ED3AB420CD2E08246
:100D600021836283A383304602F08EF804216079E8
:100D7000FFF78EF90020F8BD1820F8BD744BFF1F57
:100D80007A0C0000F7B50D468049009816464218C7
:100D90007F4F00247879B9791300FFF77FF9190E96
:100DA000141BE92040455970777E888FE996A2A9E7
:100DB000B4BFC8E9E9E9E9D3E900102D76D11022E2
:100DC000314674486FE0102D70D1724810223146C0
:100DD000103068E0042D69D13068F862CEE0012D52
:100DE00064D13B7832783A70002B0AD0002A07D1C0
:100DF000022903D0062901D0042901D100F018F9F5
:100E0000BCE0002A0AD0012905D0032903D0052916
:100E100001D0042902D10121FFF746F9AEE0022DED
:100E200044D13088B881A9E01F2D3FD858481F22EF
:100E300000214230FFF70EF955482A46314642302C
:100E4000FFF7F6F8524B7D7042332A46012112E03B
:100E50001F2D7CD84F481F2200211F38FFF7FAF8BA
:100E60004C482A4631461F38FFF7E2F8494B2A46DC
:100E70001F3BBD700021787900F0AAFA83E0012DB4
:100E800065D13078042862D8387277E0012D5ED1C0
:100E9000307803285BD8787270E0062D57D13C4833
:100EA000062231463030FFF7C3F867E04FE0012DEE
:100EB0004DD1307807284AD8B8725FE0012D46D16D
:100EC0003078032843D8F87258E0022D3FD1328899
:100ED000BA82002A52D0052950D10221FFF7D2F858
:100EE0004CE0012D33D13078012830D8F87045E03E
:100EF0003088022D2BD1062829D31921C901884217
:100F000025D8F8823AE03088022D20D106281ED359
:100F10001921C90188421AD838832FE03088022D60
:100F200015D1FF21F531884211D2788326E030882F
:100F3000022D0CD10A280AD31921C901884206D8EA
:100F4000B8831BE03178012D01D1012901D018248B
:100F500014E00821FFF7AEF8002801D016240DE0B8
:100F6000002001F091FF04217879FFF791F805E066
:100F70000098272801D2022D02D002242046FEBD6F
:100F8000318800F0D5F90446F8E70000FFFCFFFFC8
:100F9000744BFF1F956DFF1F1CB50B4CA1790029E9
:100FA00001D011201CBD002800D06062064907480E
:100FB0002C31034601910090103B0022E1796079C9
:100FC00000F016F800201CBD744BFF1FA56DFF1F1D
:100FD00010B506488179052901D0122010BDC189BC
:100FE0001322407900F0B4F910BD0000744BFF1FCC
:100FF000F8B51D460224069F079E0B00FFF74EF82A
:101000000D150815150815151515151515081500D4
:1010100000F0B8F8040008D132463946284600F0FE
:1010200067F900F0CBF800F0EDFF2046F8BD0000B6
:1010300070B5104C2168002904D00978814203D092
:10104000032070BD122070BD0B4D02212878FFF7E0
:101050001FF80A480026468004212878FFF718F870
:10106000074806802168032048700020FFF728F811
:1010700070BD0000DC4DFF1F0D4EFF1FF04DFF1F28
:10108000824DFF1F272803D202494000085A7047AB
:10109000014870478A4DFF1FFFFF000010B5064C46
:1010A000607003F0ABFD6078FFF710F80521607801
:1010B00000F0A4FE10BD00000C4EFF1F70B5284EBE
:1010C000054630680C46002801D0112070BD254827
:1010D00001780520014216D023488068002805D0F9
:1010E0000078002802D0C80706D101E0102070BDAA
:1010F00000F044F8002808D02078032805D0022802
:1011000003D0002801D0122070BD0C20FEF7E4FFB0
:101110003060002820D00570002141700A2221464D
:10112000801CFEF785FF01F093FF040002D001F060
:101130009FF912E00D48007803280ED11D20FFF71B
:10114000A1FF0B490028088007D00B48094A042159
:101150000078FEF7C7FF00E01324204670BD0000B2
:10116000DC4DFF1F7F4DFF1FF04DFF1F804DFF1F08
:10117000824DFF1F60EA00000D4EFF1F10B503F007
:101180005BFD10BD70B50C4605461C2200210948C8
:10119000FEF760FF084805704470FEF7A9FF054997
:1011A000002803D000200870122070BD01220A70B0
:1011B00070BD0000B472FF1F7E4DFF1F70B50F4C55
:1011C0000025A068002802D0FEF798FFA560E0681F
:1011D000002802D0FEF792FFE5600948052100785B
:1011E000084206D00548103001F014FD01F0E2F885
:1011F00070BD002001F00EFD002070BDF04DFF1FFE
:101200007F4DFF1FFEB5344D0C46080419D5687894
:10121000FEF726FF0121C9034C40064600280ED0E8
:1012200001F018FC002807D12878FF2804D03146A7
:10123000FEF76AFF002802D03046FEF717FF20466F
:10124000FEBDE007012700280AD0A868002804D0C6
:101250004168002901D00020884720467840FEBD23
:10126000A00709D56868002804D04168002901D08A
:101270000120884702202AE060072AD5174E3088CF
:1012800000281FD0401E0004000C30801ED101F049
:1012900061F9002809D0124807706868002804D056
:1012A0004168002901D00120884701F02DF96946E5
:1012B00000F002FE684601F0B7FB1D20FFF7E2FEDA
:1012C000308003E004216878FEF7E2FE04206040ED
:1012D000FEBD0020FEBD00000C4EFF1F824DFF1F13
:1012E000814DFF1F01490870704700000C4EFF1F21
:1012F00070B50E4C0B46261D07C605461022002170
:101300001846FEF707FF012803D11021A06803F05B
:1013100001FF102200212846FEF7FCFE012803D120
:101320001021606803F0F6FE70BD0000B472FF1F6C
:10133000272807D2044A914204D0044A400011529F
:101340000020704702207047FFFF00008A4DFF1FFA
:10135000F8B50D4617461D4906461B4A1224C868B3
:10136000954208D100282DD00268002A2AD02946AB
:101370003046904723E0144A521C954213D100286E
:1013800007D00268002A04D029463046904704005E
:1013900005D03946304600F0E7FF040012D10B4873
:1013A000067047700EE0284603F0F8FB002809D0CD
:1013B0000078B04205D139462846FEF7B1FE044612
:1013C00000E003242046F8BDFEFF0000E04DFF1FB3
:1013D000F8B50E46014619481546007805221F4605
:1013E000104028D0304326D01548012E1BD0C468A9
:1013F000002C20D01F2D18D8002D01D0002F14D084
:1014000001701F220021601CFEF724FE2A46394687
:10141000601CFEF70DFE28462570002E07D0611CCB
:10142000FEF784FEF8BD8468E2E70220F8BD611C87
:10143000FEF782FEF8BD1220F8BD00007F4DFF1FB1
:10144000F04DFF1F014610B50020C90704D0034A24
:101450000421034800F0A6F910BD00004C650211FC
:10146000F84BFF1F70B50F4D0F4CA870294618316F
:10147000204600F01DF8002128460B461030CA0017
:1014800084521218491C09065360090EF7D0012036
:1014900002F0A8FCA87800F00BFB044803F0DEFB88
:1014A00070BD0000D84BFF1FFFFF00001D3602116A
:1014B00070B50A4C0025A04209D1002082008C5250
:1014C0005218401CC0B295700228F7D370BD02F0CC
:1014D00074F80028FAD00480857070BDFFFF00000A
:1014E000F8B50E460746069900240798002902D051
:1014F0000B242046F8BD022B01D00D24F9E711780A
:101500005278120289188DB22946814301D0802475
:10151000EFE73846F16800F03DF9A842E9D02A46E5
:101520003846F16800F0A8F90400E2D171892A4632
:10153000384600F065F9DCE770B50C46080412D5B2
:101540000A488078FEF78CFD050008D02878B0287E
:1015500002D1284602F04EF92846FEF787FD012009
:10156000C003604070BD002070BD0000D84BFF1F5D
:10157000FFB587B0087A0025109E1C460F46C006AE
:101580000DD5099802F012F8030006D00A22394658
:1015900007989847050035D101E00E2532E03878EC
:1015A00002281DD1786829220178407812020002B1
:1015B000081880B2811A90427ED009DC7249401A24
:1015C00023D0012821D0022851D0032808D125E0BA
:1015D000012972D0022971D003296DD004296ED05F
:1015E000099802F00BF80028D7D00568002DD4D058
:1015F0001299119801910090334622463946079876
:10160000A847054628460BB0F0BD1198002873D1B5
:10161000F868017831800278416897E011980028D5
:101620006AD101203080F868002100782070788924
:10163000401C80B200F04EF900280FD031880278AB
:101640008918891C3180817A61704189090AA170E9
:1016500002784168E01CFEF7EBFCD3E730880422F7
:10166000001D30800021601CFEF7F4FCCAE71198D1
:10167000002872D1F86804A9008800900420308006
:10168000009820700098000A6070009800F022F91D
:10169000070028D0F86805906846028A03AB3B49EA
:1016A000384600F06FF900280FD13B780221384806
:1016B0007A68FFF782F803E027E031E01DE049E0B7
:1016C000002802D1314869468881059800780228AF
:1016D0000CD1059802224168201DFEF7A9FC308834
:1016E000801C308002E069460098888168468089C5
:1016F000A070000AE07085E72FE0119800282CD137
:10170000F968079800F046F804E01198002824D101
:10171000F8680088022131802070000A607071E74B
:10172000F868FEF70FFD1199C0B2814210D88142CE
:1017300001D1002206E0129A8918814202D3119940
:10174000401AC2B23280F96811980918204682E71F
:10175000072557E71198002801D00B2552E70721EC
:10176000F868318001782170417861708178A170CA
:101770004188090AE1700179217181796171C0881C
:10178000000AA0713EE7000000280000FFFF0000F3
:10179000EA65021110B501F010FF002800D0807832
:1017A00010BD00007CB51446050019D068460195AF
:1017B000018000F083F903001DD1002C1BD06D893E
:1017C000002D0DD00C20FEF787FC00280AD0002346
:1017D00003608580094A84609168002904D006E08E
:1017E000022308E0132306E0906004E011460A6833
:1017F000002AFBD1086018467CBD0000D84BFF1FB3
:10180000F8B50C4C0746207815460E46FF280FD039
:101810000A20FEF79DFC01000AD0B12008700020CC
:10182000487008714F80CE800D812078FEF76CFCE7
:10183000F8BD0000D84BFF1FFFB583B008461F4618
:1018400001A90C9E00F046F8050012D06846808879
:1018500001F0D4FE00280AD04468002C07D000967E
:101860003B462946059A0398A04707B0F0BD0E20D5
:10187000FBE70120F9E7000070B514460E46054667
:1018800001F09BFE002806D13146054801F095FE87
:10189000002803D005808470002070BD112070BD29
:1018A000FFFF000010B50178B0290BD14178002965
:1018B00008D10179122906D01B2903D140880121C2
:1018C00000F026FA10BDFF210231095C0129F5D094
:1018D00010BD0000F0B58C4610494B6819E09F68B8
:1018E0007C89A04214D39E883119814210D90022EC
:1018F0000CE011017D186989814205D160460028FC
:1019000000D004802846F0BD521C92B29642F0D816
:101910001B68002BE3D10020F0BD0000184EFF1F14
:10192000FFB5174881B00A9F446824E000251EE0F7
:10193000A0682901461870890199884215D3029937
:10194000884212D80498002807D031787068049B28
:10195000039AFEF732FF002807D0002F02D0A068BC
:1019600040893880304605B0F0BD6D1CADB2A0880E
:10197000A842DDD82468002CD8D10020F3E700006D
:10198000184EFF1FFEB5174600256A46958004468F
:1019900040891D4A1E46904208D001AA0092401C70
:1019A000237880B26268FFF7BBFF054623780221E7
:1019B00016486268FEF701FF002807D1237802214C
:1019C00013486268FEF7F9FE002801D060890EE036
:1019D000237802210F486268FEF7EFFE00280DD041
:1019E000002D03D068468088B84203D0384602F004
:1019F000F7FA04E06889401E80B200E06089002E9A
:101A000000D030802846FEBDFFFF0000E8650211CF
:101A1000EA650211EE65021110B50549087004214E
:101A200000F0ECF900F006F8FEF75CFF10BD0000D6
:101A3000284EFF1F70B50E4C00200C4B651CFF227A
:101A40008100C91800280ED00D80401CCA70C0B299
:101A50008A700228F4D3074801F09AFD064803F083
:101A6000FDF8002070BD0C80EFE70000204EFF1F46
:101A7000FEFF0000113F0211913E021170B50C46AD
:101A8000080411D509480078FEF7EAFA050007D0E6
:101A90000178A02901D101F01FFD2846FEF7E6FAE2
:101AA0000120C003604070BD002070BD284EFF1FA4
:101AB0000149087070470000184EFF1F70B50546B9
:101AC000008800281DD068680221037842682248F7
:101AD000FEF773FE002808D1686802210378426887
:101AE0001E48FEF76AFE00280BD01D4C60880028B7
:101AF00005D0012229881204101A814203D901203D
:101B000070BD022070BD0C20FEF7E6FA060001D081
:101B100000200AE0132070BD02016B6861880A3260
:101B20009952491C401C618080B229888142F3D8B7
:101B30000020306008222946301DFEF779FA6068DF
:101B4000002802D1666004E0084601680029FBD144
:101B50000660002070BD0000E8650211EA65021110
:101B6000184EFF1F0649496806E08A68528982427A
:101B700001D18888704709680029F6D10020704794
:101B8000184EFF1F10B51422114201D0012202E0AD
:101B90004A0604D50022102102F0DAFF10BDC80762
:101BA00001D0002010BD022010BD10B514468A06D9
:101BB00004D50122102102F0CBFF10BD8822114272
:101BC0000ED008220A40102102F0C2FF00280BD0DC
:101BD000E034617E0029F0D0217E0129EDD103E0BF
:101BE000880701D4032010BD002010BD014610B5A8
:101BF0000020C90704D0034A07210348FFF7D2FD9C
:101C000010BD000038650211004BFF1F70B50D4676
:101C1000164600241D490300FEF740FA0805123459
:101C2000341934222934152D23D8162200211848BE
:101C3000FEF710FA2A4631461548FEF7F9F922E078
:101C4000022D16D111491088103908801BE0082D8B
:101C50000FD10E48082231460838FEF77FFA12E00D
:101C6000012D06D1CA6909493078283107E0012DD4
:101C700001D0182407E0CA6B04493078483102F0DB
:101C800076FA00E00224204670BD0000004BFF1FE2
:101C9000606DFF1F0B7803700B8802221B0A4370D4
:101CA0000B88801C012B02D0022B07D011E08A7810
:101CB00002704988090A417004220AE08A78027099
:101CC0004A88120A42700A7982708988090AC170AA
:101CD000062210467047000008B5044B00931346D7
:101CE0000A46012102F084FE08BD0000951C021185
:101CF0001CB50323019200930A46024B122102F005
:101D0000A7FE1CBD1143021110B5FEF72DFA10BD40
:101D100013B504480078012803D101AA6946FEF7EB
:101D200029FA1CBD344EFF1F70B50F490F4A0870C9
:101D300000210B468C00491CC9B213530429F9D366
:101D40000A4C00211034FF260A460A256A43151959
:101D50006B80491CA354C9B26E720329F4D3FEF7F9
:101D60000FFA02F019FE70BD354EFF1FD072FF1F33
:101D7000082A01D0012070474B780A781B02D2183C
:101D80000280CB788A781B02D21842804B790A797C
:101D90001B02D21882808A79C97909025118C18040
:101DA0000020704770B50C46080411D5094800782A
:101DB000FEF756F9050007D00178902901D102F00D
:101DC0004DFD2846FEF752F90120C003604070BD6A
:101DD000002070BD354EFF1F70B500280AD1064C9B
:101DE00000252580A581A580A068002802D0FEF7E7
:101DF000CDF9A56070BD00004C73FF1F072907D007
:101E0000052905D0042903D0062901D002207047F6
:101E1000044A8B009A181346403B1986203A907466
:101E200000207047D072FF1F70B506001BD10E4C0A
:101E30000025214640310D744D740D76606D0028EB
:101E400002D0FEF7A3F965655C20002546433419EE
:101E5000E80020184068002801D0FEF797F96D1CB3
:101E6000EDB20A2DF4D370BD5C73FF1F70B50A8804
:101E70000C460546072A07D0052A05D0042A03D0B8
:101E8000062A01D0022070BD012102F015FF0028B2
:101E900004D02146284602F051FA70BD142070BDCE
:101EA00010B5001D80B2FEF777F9002803D003219A
:101EB000C943FEF777F910BD38B50C46050014D0BC
:101EC000002C12D00321684603F024F96946887873
:101ED00040218006800E08436946887022462846C5
:101EE00003F050FE050002D006E0022038BD0322B8
:101EF0006946E01CFEF79CF8284638BDF7B58EB061
:101F00000E9815460E4600282DD0002D2BD0301DE2
:101F1000C0B20190FEF7E0F8040039D000F000FBF9
:101F200007463246201D0E99FEF742F9F8B2089096
:101F3000E0703804000E0B90A0703802000E0A907A
:101F400060703F0E277000F0E5FA0146102202A8EB
:101F5000FEF72EF906AB214602A8019A03F068FDB0
:101F6000060003D010E0022011B0F0BD08982870E0
:101F70000B9868700A98A870EF70082206A9281DAF
:101F8000FEF716F900F0D2FA2046FEF7B7F800E0A7
:101F900013263046E8E7000010B5064C2070FEF727
:101FA0000DF906212078FFF729FF034802F056FEBD
:101FB00010BD0000444EFF1F6951021170B50C4660
:101FC000080419D50D480078FEF74AF805000FD02F
:101FD00003F0EAF9002808D109480078FF2804D066
:101FE0002946FEF791F8002802D02846FEF73EF871
:101FF0000120C003604070BD002070BD444EFF1F33
:102000000C4EFF1F10B505480078400701D5044865
:1020100000E0002003F050FA002010BD7F4DFF1FAC
:10202000384EFF1FFFB58DB00F98169C0E46002846
:1020300015D0002C13D00D9802F0B0FD050011D082
:102040006178207809024018A178E2780904120624
:1020500089184718286AB84206D3401C04D00220C9
:1020600011B0F0BD1420FBE7002E04D028798007C2
:1020700001D40120F4E70822002106A8FDF7EAFFB9
:102080001098001DC0B20190FEF726F8060017D088
:10209000301D109A0F99FEF78BF804222146304626
:1020A000FEF786F81022A91802A8FEF781F806AB01
:1020B000314602A8019A03F0BBFC050002D013E0F0
:1020C0001320CDE7082206A908A8FEF771F8082218
:1020D000211D08A8FDF7B8FF012801D0012503E064
:1020E00039460D9801F00EF83046FEF707F82846FD
:1020F000B6E7000030B54F4C8BB0A07006211F2012
:10210000FFF716F900206946087201220A730722B8
:102110000A74888278228A83A0220A8488844B20C9
:10212000C000088544A003C801910090207869464A
:10213000087606AA01214248FEF724FE40486A4676
:102140000621801CFEF71EFEC32004AA0121800088
:10215000FEF718FE3A4802AA0121001FFEF712FE00
:10216000374805AA0221C01EFEF70CFE2246612058
:102170000C321B21C000FEF705FE314822462732F3
:102180001E21801EFEF7FEFD312003AA0121000161
:10219000FEF7F8FD2A4807AA02210830FEF7F2FDF3
:1021A000274808AA02210930FEF7ECFD244809AAB5
:1021B00002210A30FEF7E6FDC5200AAA02218000AE
:1021C000FEF7E0FD2246453215210020FFF71EFDF7
:1021D0001925AD0129460620FFF7AAF82946072050
:1021E000FFF7A6F829460820FFF7A2F8294609209C
:1021F000FFF79EF80025ED432846FFF7F7FC284639
:10220000FFF720F9284600F053F81720FEF7C8FC26
:102210000020FDF7D9FF0020FDF7DCFF0121A078A9
:10222000FDF742FFA078FFF75DF80648FDF7D8FFFD
:102230000BB030BDEC4CFF1F01020304050600008B
:1022400009030000C670FF1F38B50C4608040AD504
:1022500015488078FDF704FF002801D0FDF706FF40
:102260000120C00316E0E0070125002808D00E4831
:10227000001DFEF791FEFDF7B9FF2046684038BD0E
:10228000A00709D5684605706A4601210748FEF790
:1022900079FD0220604038BD600702D50420484027
:1022A00038BD002038BD0000EC4CFF1F05030000C6
:1022B00070B50546002409490948FFF7F9F80948AF
:1022C00002F0CCFCE80706D00448074A0821083091
:1022D000FFF768FA0446204670BD0000444CFF1F1B
:1022E000FFFF0000A54E021168650211FFB583B023
:1022F0000F4603981B4940001646085AFFF7D0FDC9
:1023000004002AD00125601C2670002F03D00699F6
:10231000B847401C85B2300610D51021039802F052
:10232000CBFC002801D0192613E06219E9B220463F
:10233000FFF7E4FD06000CD10C35ADB20421684670
:1023400001800194058169460398FFF78FFD06001F
:1023500004D02046FDF71AFF00E01326304607B0F0
:10236000F0BD0000784DFF1F10B50C4602F02AFCAE
:10237000002804D040882146FDF7D2FE10BD12206F
:1023800010BD0022002913D0002811D0012806D04A
:102390004A799206920E4A71032805D007E04879DF
:1023A000C0221043487102E0402002434A710122DA
:1023B0001046704770B51248002500780521084284
:1023C0001BD02020FDF788FE0E4C0028A06013D003
:1023D00020220021FDF73EFE2020FDF77DFEE0607B
:1023E000002804D020220021FDF734FE05E0A0687B
:1023F000FDF784FE0020A0601325284670BD000074
:102400007F4DFF1FF04DFF1F002909D0012807D184
:10241000497989098901C02902D0402901D00220C7
:10242000704703207047FFB500200E4608701AE081
:102430001C5C401CC5B2002C17D02819904214D83F
:102440005F5D6D1CEDB2384600F085FE002806D0B9
:10245000641EE0B2307000998F4202D1581904B066
:10246000F0BD4019C0B29042E2D30020F7E700006F
:1024700010B5044C2068002803D0FDF73FFE002073
:10248000206010BDDC4DFF1F70B50E4D8400285933
:10249000002815D0006A002801D0FDF72FFE28592A
:1024A000406A002801D0FDF729FE2859806A0028DB
:1024B00001D0FDF723FE2859FDF720FE002028510A
:1024C00070BD0000E84DFF1F10B5044C6068002887
:1024D00003D0FDF713FE0020606010BDE04DFF1F2C
:1024E0000100044805D104498978002901D0024837
:1024F000801D7047C472FF1F7E4DFF1F014880780A
:10250000704700007E4DFF1F014840687047000083
:10251000B472FF1F0148806870470000B472FF1F4B
:102520000148C06800687047B472FF1F10B50748C3
:10253000C0680168491C016005480078FF2803D085
:1025400001218903FDF7B0FD10BD0000B472FF1F2B
:102550007E4DFF1F02484068002800D001207047D0
:10256000D84DFF1FFFB581B00F460D9E0A9D039801
:1025700002F014FB040042D0019800283FD12079DA
:102580001021084320710499490702D5022108430C
:1025900001E0FD21084020710B99284608430C9961
:1025A00008433043207902D00421084301E0FB2195
:1025B00008402071002E06D030691022206231467A
:1025C000A018FDF735FD002D01D0002F05D00B9888
:1025D000002814D0012F08D011E0606A002801D033
:1025E000FDF78CFD1C21284606E0606A002801D01A
:1025F000FDF784FD1C210B98FDF7FEFD606203983A
:10260000224C8700E05900283ED0002D0FD0006AF0
:10261000002806D11C20FDF75FFDE1590028086263
:1026200005D0E0591C22006A2946FDF701FD0C98EF
:10263000002810D0E059406A002806D11620FDF786
:102640004BFDE1590028486205D0E0591622406A46
:102650000C99FDF7EDFC002E10D0E059806A00289F
:1026600006D11420FDF738FDE1590028886205D015
:10267000E0591422806A3146FDF7DAFC0B9B049A7C
:102680000399019802F056FB05B0F0BDE84DFF1F1D
:10269000F3B581B0019802F081FA050029D00E202F
:1026A000FDF756FD040024D02620FEF7EBFC0600C3
:1026B00000D12E78D0202070002767700B20A070EA
:1026C0000622E91DE01CFDF7B3FC01986081029829
:1026D000C1070120002901D0207300E0277302996F
:1026E000890701D5607300E06773F0B22146FDF7FA
:1026F0000BFDFEBD10B581881F4B0124CA1A9942FB
:1027000037D011DC1D4BCA1A994219D007DC1C4A7C
:102710008A1810D0022A1ED0032A29D11BE0472A8A
:1027200027D0482A24D124E01300FDF7B7FC062166
:102730002222222222218068007800F0CDFC08E0CD
:102740008068827841781202891889B2007800F096
:1027500023FD04460DE0094A921E914201D1012257
:1027600000E0002280680178104600F0FDFC00E0E7
:102770000024204610BD0000532000000A20000065
:10278000FADFFFFF70B51A4D1A4A01460026287875
:102790001268194C01290CD0002A09D01749097870
:1027A000490705D50221FDF773FC6680FFF760FE3F
:1027B00070BD6188002903D0114B1B78002B05D018
:1027C000002AF5D01078FEF733FC70BD3C2902D307
:1027D0003C39618070BD0221FDF75AFC62887D2082
:1027E000C000424302212878FDF74CFC668070BD92
:1027F0000D4EFF1FDC4DFF1FF04DFF1F7F4DFF1FD4
:10280000814DFF1F08B5418900910389C2888188E5
:10281000C07800F0ADFB08BDF0B504468088A1216A
:1028200089004843304987B009684018FF30FF30BD
:102830000230A1794167002C54D02C4D68680028E3
:1028400023D006782A480068002804D0416800296F
:1028500001D0002088472146E07908310591FFF733
:10286000D3FDE0710246277D638A218AE0890190C9
:1028700002A88AC0A0880090E0783146059B02F04B
:10288000CFFAE078002802D00DE01A48D9E7E079C5
:10289000E2896B46059907C3A379A18801223046D6
:1028A00002F02AF9E0706868002811D0FFF70CFEEA
:1028B000287800280CD06978FFF756FD002807D04B
:1028C000E078A2880346297802F0D7FA0020287021
:1028D000A0881721FEF77AF9A088FFF77DFAA08873
:1028E000FFF7A2FA07B0F0BD3409FF1FE04DFF1F4C
:1028F000104EFF1F7E4DFF1F70B5044600268088D6
:1029000002F04CF9002803D00678A08802F0B8F94C
:10291000144D2878002808D0864206D16978FFF740
:1029200023FD002809D000202870002E05D0A379AF
:10293000A288A078314602F0A0FAA088094A810056
:1029400008325158002901D0FFF79EFDA0881721B9
:10295000FEF73CF9A088FFF73FFAA088FFF764FA7A
:1029600070BD0000E04DFF1F70B58288294D012425
:10297000531B2949AA4242D019DC284D531BAA42B5
:1029800018D00BDC264BD21826D0254B1033D2188A
:102990001ED0032A17D0042A39D10BE0012B09D00D
:1029A000022B07D0032B21D0042B30D11AE0433B5C
:1029B000072B2CD8496800292AD00968002927D07C
:1029C0008847044624E08068007800F0ADF81FE0F6
:1029D000806800F001F9F4E78068411C007800F09D
:1029E000D9F8EEE783681B78002B11D0896800299D
:1029F0000ED00B6808E0014610469847E1E7094908
:102A00000968002904D04B68002BF4D100E00024B1
:102A1000204670BD0E2000000C4EFF1F0820000055
:102A2000F7EFFFFFEC4DFF1F10B5094CA17800290F
:102A30000CD001460622A01DFDF7FAFAA11DA078D0
:102A4000FFF79FFCA01DFDF7DDFB10BD002010BDB2
:102A50007E4DFF1F1CB52F49037801240A68912B76
:102A600002D0A22B2ED13EE04178052909D00E29B3
:102A700004D00F2908D03E2924D115E0FFF774FFB8
:102A800010E0FFF739FF3AE001468088224B01242D
:102A9000C31801D0062B15D1002A30D05268002A65
:102AA0002DD0904704462AE081780124032917D0CD
:102AB00004DC012911D0022904D105E015291ED01A
:102AC00016291CD000241AE014498968002916D060
:102AD0004968002913D0884711E0FFF79DFE0EE0FA
:102AE000FFF790FE0BE00E490978042909D0002A6F
:102AF00005D05268002A02D001460A489047204675
:102B00001CBD00216A46118001794088FFF7E4F876
:102B1000F5E70000EC4DFF1FF3DFFFFF0C4EFF1F3A
:102B20007F4DFF1FFFFF0000F8B5164F0646BD1F83
:102B30002878FF2814D00A20FDF70AFB04000FD0E4
:102B4000D020207066700820A070A878E07006225F
:102B50003946201DFDF76CFA21462878FDF7D4FA96
:102B6000E87801280DD108480068002803D0806863
:102B7000002800D080470648044A04210078FDF769
:102B8000B1FAF8BD844DFF1F104EFF1F60EA000030
:102B90000D4EFF1F70B500240546002805D1002901
:102BA00003D006220B48FDF743FA0A481038017893
:102BB000012907D10124002D06D0002101702846EB
:102BC00000F0B2F9204670BD02210170FDF720FB34
:102BD000F8E70000C472FF1F10B50024002813D0CE
:102BE00002780B49002A03D14288CA8202790A7608
:102BF0000A78022A08D102780124002A06D000228D
:102C00000A70007800F090F9204610BD0322F7E723
:102C1000B472FF1F01494860704700000C4EFF1F4F
:102C2000F8B5774C87780146002507266079A279A8
:102C30003B00FDF733FA0805361A37375F94C7367D
:102C4000487800285CD16E4806223C30C91CFDF74C
:102C5000EFF90120A0716A4B014642336278607936
:102C6000FEF7B6FB00284BD1A2E00F4649780029B9
:102C700046D1F978002906D0624BA2780021FEF7F0
:102C8000A7FB78700AE0022A0BD00121FDF712FAA7
:102C9000002803D101216079FDF706FA7878002831
:102CA0002ED1F8BD497800292AD1032F09D0A28955
:102CB000002A0CD0217800290AD00121FDF7E2F981
:102CC00006E0052A01D0022012E0062010E025705F
:102CD000A079062802D0042802D008E0052007E0E9
:102CE0000120207001466079FDF7DEF960E00320E5
:102CF000A0715DE048780F46002803D031282CD021
:102D0000A67155E03E480622391D3630FDF790F990
:102D10007889E081B8892082F88960820520A071D5
:102D2000A28A002A03D002216079FDF7ABF9B889A5
:102D3000E083F8892084388A6084E07801280AD109
:102D40001F20FEF79FF97D21C90048430246042158
:102D50006079FDF797F925702AE02570C7E72848C4
:102D60000E46062200213630FDF774F9E5832584EE
:102D7000658404216079FDF78BF908216079FDF7FE
:102D800087F9B079082808D00320A071207800289E
:102D900005D06079FEF74CF907E00420F5E7012043
:102DA000207001466079FDF77FF90020C043E08183
:102DB000606A002800D174E701680029FBD0A0797F
:102DC0008847F8BD0D460821FDF762F96878294665
:102DD0000028F6D1E888E083288920844889608427
:102DE00004216079FDF766F90028EAD1A06A00287D
:102DF000E7D00368628C218CE08B9847F8BD000017
:102E0000744BFF1F766DFF1F10B501781C4C912984
:102E100006D0A2291BD0D02901D1FFF701FF10BD98
:102E200041780E29FBD18188164A9142F7D18168F9
:102E300003200856A1790529F1D17F28EFD0616AD6
:102E40000029ECD049680029E9D0884710BD4179B4
:102E50001329FBD10089012802D12079022808D04A
:102E60000520FEF70FF9024608216079FDF70AF9FF
:102E700010BD08216079FDF70BF9FEF7A9F810BD28
:102E8000744BFF1F051400007CB5154C0546E08B04
:102E9000E18A88420AD3218B884207D8208C618B33
:102EA000884203D1608CA18B884217D00520FEF7A1
:102EB000E9F80646E18A68460180218B4180618BF2
:102EC0008180A18BC18062796946E089FEF710FF9D
:102ED0002571324608216079FDF7D4F87CBD0000E9
:102EE000744BFF1FF8B507460E46084601F056FE24
:102EF000040018D02620FEF7C5F8050000D125787B
:102F00000620FDF725F904000DD006220021FDF76B
:102F1000A1F8D020207067700E20A070A680E8B2C3
:102F20002146FDF7F1F8F8BD70B50F4D064628783B
:102F3000FF2818D00E20FDF70BF9040013D0D02085
:102F4000207066700020A07006220849E01CFDF782
:102F50006FF806481038C18A6181007E20732146CF
:102F60002878FDF7D1F870BD7E4DFF1FC472FF1F9A
:102F7000FFB581B01E4617460D460C20FDF7E8F858
:102F8000040013D0284601F009FE002810D0007874
:102F9000D0212170019961700721A170A580E7807F
:102FA00026810A9961812146FDF7AEF805B0F0BD92
:102FB0000048ECE77E4DFF1F70B50D4D04462868B4
:102FC0000E46002812D00620FDF7C2F8010009D0F5
:102FD000D02008704C70032088708E80286800789C
:102FE000FDF792F8002C01D0FFF742FA70BD000007
:102FF000DC4DFF1FFFB581B01F460E46084601F0AD
:10300000CDFD050022D01020FDF7A2F804001DD050
:1030100010220021FDF71EF82620FEF733F80028C5
:1030200000D12878D0212170019961700F21A17001
:10303000A6800399217267720A99A1720B99E172B5
:103040000C99E160C0B22146FDF75EF805B0F0BD15
:10305000F0B51F4D85B02868002837D08778FEF777
:103060008DF8002805D00A20FEF70CF804900B20FC
:103070000EE001F01BF9002805D00620FEF702F84B
:103080000490072004E00820FDF7FCFF04900920CD
:10309000FDF7F8FF04460F480078002814D00126F9
:1030A0002968C878091DFFF76CF929686D46CA7A46
:1030B0008B7A091D0BC5039233463A462146049884
:1030C000FDF7ACF805B0F0BD0026E9E70120F9E70F
:1030D000DC4DFF1F804DFF1F10B50949096800290D
:1030E0000CD0002805D101204870FCF7E9FF00282A
:1030F00002D00021FFF760FF012010BD002010BDAD
:10310000DC4DFF1FF8B50C4601F048FD020021D050
:1031100026201462FDF7B6FF05062D0E00D11578A6
:103120009679D01D00901020176AFDF711F8040061
:1031300010D0D0202070002060700920A070E670B0
:103140000622201D0099FCF773FF21462846E76000
:10315000FCF7DAFFF8BD411E152903D9FF2801D07D
:10316000002070470120704770B50A4E0546307840
:103170000C46FF280DD00420FCF7EAFF010008D020
:10318000D02008704C7002208870CD703078FCF729
:10319000BBFF70BDF04DFF1FF3B5284D81B028680F
:1031A00000284AD04078264E012803D030780028E5
:1031B00031D041E001F07AF8224F002813D00120ED
:1031C000FDF760FF0446412808D91F4A02213878DC
:1031D000FCF788FF1D483C3C44800EE07D20C00089
:1031E0002246424303E00020FDF74CFF0246002A3E
:1031F00003D002213878FCF745FF29680220487087
:103200003078002802D00020307015E00299019833
:10321000FFF7D2FE10E00320019CFCF799FF0100AC
:1032200008D0D02008704C7004208870286800787E
:10323000FCF76AFFFFF71CF90120FEBDDC4DFF1F04
:10324000814DFF1F0D4EFF1F60EA0000F04DFF1F74
:10325000074A00218B00D35A834202D1880080188C
:103260007047491CC9B20229F4D3002070470000FE
:10327000204EFF1FFFB581B0FF201E4617460530C8
:103280000A9DFCF765FF04001BD0B020207067701A
:10329000029860802671002D06D02046FC22294627
:1032A0000830FCF7C5FE05E02046FC22002108306E
:1032B000FCF7D0FE21460198FCF726FF002005B060
:1032C000F0BD1320FBE700000548172202800988A3
:1032D000172901D2042070470180002070470000A8
:1032E0007A4DFF1F0020704708B50A4608884988B4
:1032F00088420BD8002809D0002300931379521D6F
:10330000FEF70EFB002803D0002008BD012008BDF9
:103310000A2008BDF3B50D4608884988002687B005
:10332000814215D3002813D0002769460F710097FA
:10333000002369881A46FEF7F3FA04004FD0684666
:103340000079002807D069464979012925D008E08D
:10335000012009B0F0BD217802291BD002216A4664
:1033600051711222504301AA618980184180684638
:1033700000791223584380181022001D6168FCF761
:1033800057FE68460079401C0106090E6846017127
:103390001FD11AE001216A465171217802291ED1FC
:1033A000820001A86189121851806A461279616809
:1033B000920010180222001DFCF73AFE6A461079AE
:1033C000401CC0B21071052803D261890A488142AD
:1033D00000D101266089401C80B2002EA7D068462B
:1033E0000079002805D001A90798FDF761FA0020AF
:1033F000AFE70A20ADE70000FFFF000038B50C463C
:1034000008884988884215D8002813D02379621D7E
:1034100002210B48FDF7D1F900280DD000200090C3
:10342000237961882088621DFEF77AFA002805D08A
:10343000002038BD012038BD102038BD0A2038BD1D
:10344000E865021108B50A460888498888420BD801
:10345000002809D0002300931379521DFEF760FA6B
:10346000002803D0002008BD012008BD0A2008BDA7
:10347000F8B500250F4606460C46E03717E0680011
:10348000205A0021FEF726FA002809D0017A30469A
:10349000FEF778FB002808D06900615A2180F8BD4A
:1034A0006800205A20800120F8BD6D1CEDB2B87D67
:1034B000A842E4D80020F8BD10B5044608880021D1
:1034C000FEF708FA002804D0017A2046FEF75AFBDE
:1034D00010BD012010BD000030B585B0054669461D
:1034E000FDF750FA040026D168468078C1071E48CF
:1034F00009D08268002A04D068886946904704464B
:1035000019E0062417E04268002A05D06888694659
:103510009047040001D10EE0062468464078002858
:1035200009D16846817801730021C18104746888DB
:1035300003A9FDF77DF9A868002801D0FCF726FE55
:10354000002C05D168468078122807D01B2803D0AC
:1035500068880121FEF7DCFB05B030BD6846407885
:103560000128F5D1F8E70000284EFF1F70B5054689
:103570000C4608880021FEF7ADF9002805D0017A35
:1035800022462846FEF711FB70BD012070BD0000E9
:103590000149486070470000284EFF1F10B50446DF
:1035A000801C00F029FDFF20E07010BD10B500F078
:1035B00025F8002800D0806810BD00229300CB5A67
:1035C000834202D1900040187047521CD2B2022AA6
:1035D000F4D3002070470000074A0021CB00D35AE3
:1035E000834202D1C80080187047491C0906090EA1
:1035F000F4D0002070470000E84BFF1F064989689F
:1036000005E08A88824201D18868704709680029EC
:10361000F7D1002070470000D84BFF1FF8B50746D0
:10362000012906D0022924D1012101F045FB0028FF
:103630001FD13846FFF7D0FF050015D000240D4EEE
:103640000CE0F8206968604308180188002908D058
:10365000F8220021FCF7FEFC641CE4B2707884427E
:10366000EFD30020C0432880024938461831FDF7C7
:103670001FFFF8BDD84BFF1FF3B5064683B00830D7
:103680000190002000907088FFF7A6FF07002FD060
:10369000002523E0F820796868430C182188002968
:1036A00020D00198007801280FD160880090A3886D
:1036B0007088A21DFEF7C0F80090002805D001997F
:1036C00000200870049821880180F82200212046FB
:1036D000FCF7C0FC00206D1C2080EDB2074840784C
:1036E0008542D7D30020C04338800098002802D1FB
:1036F0007088FDF7C7F8009805B0F0BDD84BFF1FE4
:10370000F3B50546374C064685B00835F62200214C
:103710002046FCF79FFC03A800902B796988288835
:103720006A1DFEF7FDF8074645E070882E4A410005
:10373000515C2E4BC91FC9B2009300220291019225
:10374000284B69468A89F63B3946FDF711FF002868
:1037500012D126482989001F828891420CD1214923
:103760002846F6390A30FCF76FFC002804D021788F
:10377000788989000919488068468289698804AB7C
:103780003846FEF7FFF807462078810009194A8875
:10379000002A10D0002F05D06A46128A401C2070E3
:1037A0008A800AE002060021920DC9431219401CCA
:1037B0002070918006E0002F04D00D482178008809
:1037C0008142B2D32078002806D070882146FDF7C8
:1037D00061F8002007B0F0BD0698298801800A2012
:1037E000F8E70000A46FFF1F784DFF1FDC4BFF1FA1
:1037F000744DFF1FF0B585B00446002069468881EE
:1038000020790E2869D00FDC082823D004DC022898
:1038100013D0062818D118E025460835484F0A2845
:103820001DD00C2810D138E010285BD012285ED0B3
:10383000162861D0182877D163E0434841490088B1
:1038400008806088FCF7FEFF6EE003A92046FFF7C2
:1038500057FF5AE003A9204600F076F955E0288882
:1038600004A9FEF737F8010015D06088354E4200F4
:10387000BA5C0023521ED2B20193029200966A46AD
:10388000B31C128AFDF774FE00281DD160883146F2
:10389000FDF77CF948E0012016E0288804A9FEF72E
:1038A00019F80100F7D060886B884200BA5C254E99
:1038B000521ED2B20193029200966A46B31C128A3B
:1038C000FDF756FE002803D029886A4691811CE046
:1038D00060883146FDF72AF926E003A9204600F06A
:1038E000D3F912E003A9204600F082F80DE003A905
:1038F000204600F039FA08E003A9204600F028F835
:1039000003E003A92046FFF7B7FE00280CD061783A
:10391000142909D00B4922790A706A4692894A8093
:1039200008716088FCF784FF2046FDF7BBFF07485D
:10393000C168002901D02046884705B0F0BD0000CD
:10394000784DFF1FA46FFF1F724DFF1FD84BFF1F45
:10395000F8B504460F460546083400896946FDF768
:10396000B9FF06003AD0307A80060ED56846008846
:10397000FFF71CFE030006D06888122231469847E4
:10398000060002D02BE00E2629E06E883046FFF7B5
:1039900023FE010005D11448FFF71EFE01000ED0E2
:1039A0000E80124A0020527807E0F8264B68464302
:1039B0009B5B002B05D0401CC0B29042F5D309267A
:1039C0000DE04968F822504308182146FCF730FB07
:1039D000002668882146FDF79FF802E0012620882E
:1039E00038803046F8BD0000FFFF0000D84BFF1FB5
:1039F000F3B58BB000200B9E0746039004A80090FF
:103A00003246337B718930894C4C0D320836FDF7D4
:103A100087FF054678E00B98297A4088FEF7B2F8D0
:103A2000070003D00C98698901806FE00B98444926
:103A30004088444B4200895C0093891FC9B2002230
:103A4000029101923D4B69460A8AF63B2946FDF7F1
:103A50008FFD0700E6D10398002833D039486188EC
:103A6000001F8088021D914253D1039909180B98B9
:103A7000408842003248805A801F814249DC0399C5
:103A8000A87A6118087103986989401C80B22218CD
:103A9000090A401C117180B203906846028A71883D
:103AA00007AB2846FDF76EFF050011D00398694665
:103AB000898B2018017103986946401C898B80B25C
:103AC000090A0CE01F48001F8088001D6080D6E7AF
:103AD0000398FF21201801710398401C80B222181E
:103AE0001171401C80B217490390091F8A8813493D
:103AF0002018F639001DFCF79BFA12490398091F9C
:103B00008988401880B20390002D84D10398002842
:103B10000CD061880398FCF787FB20700B98214636
:103B20004088FDF70DF800200DB0F0BD002F00D14A
:103B30000A270C98318801803846F5E7A46FFF1FEB
:103B4000784DFF1FDC4BFF1FF3B5074604460837CF
:103B50008BB049480490388800252E4605906AE0CD
:103B600007A800903B7979887A1D0598FDF7D8FE63
:103B70000890002852D0408905900898017A608802
:103B8000FEF700F806005DD160883C494200895C80
:103B90003B4B091FC9B20093002202910192364BA0
:103BA00069468A8BF63B0899FDF7E2FC060049D18D
:103BB000002D36D0049841883148001F8088801C31
:103BC000814241D12E4B1B1F9888291860884200E2
:103BD0002A48805A001F814220DC0898817A049884
:103BE0004019017108996D1C4989E8B20A0A0499C3
:103BF00009180A71401CC5B2194604988A881E49E2
:103C00004019F639001DFCF713FA1D481D49001F25
:103C100000792818C5B20598884209D1002D13D122
:103C200023E017480499001F8088801C4880C9E75A
:103C3000401C80B20590608841001048405A001F27
:103C4000A8428DDA002D0ED0049841882846FCF752
:103C5000EBFA01460498017060880499FCF77EFF36
:103C600000200DB0F0BD002E00D10A260C99059859
:103C700008803046F5E70000A46FFF1F784DFF1F56
:103C8000DC4BFF1FFFFF0000F3B506460446002093
:103C900085B0324D00900836288007463046E03027
:103CA000049048E07800305A03A9FDF713FE0100A4
:103CB0001AD060882B4B844642002948805C0093D0
:103CC000401EC0B2002202900192244B68468289B5
:103CD000F63B6046FDF74CFC0090002807D07800CA
:103CE000315A0698018035E001200090F7E71D4920
:103CF0002888091F8988421861884B001849C95AC9
:103D00004B1E9A4204DD081A1649091F401E88807E
:103D10002988A81C08181349091F8A880F49F639F1
:103D2000FCF786F90F482988001F8088081828802A
:103D30007F1C0498FFB2807DB84207D9608829882B
:103D400042000748805A401E8142ABDB608829460A
:103D5000FCF712FF009807B0F0BD0000A46FFF1F32
:103D6000784DFF1FDC4BFF1FF3B5054683B00446BB
:103D70000835008901A9FDF7ADFD2746E83706465D
:103D8000002822D0307A80060ED568468088FFF75A
:103D90000DFC030006D060881222314698470600C9
:103DA00002D013E00E2611E0002000906B882988D5
:103DB00060882A1DFDF740FD060007D1787E0028A7
:103DC00007D16088FCF70EFF03E0012604982988DC
:103DD0000180787E002802D0002005B0F0BD30467A
:103DE000FBE70000F8B504460246F82042431948B4
:103DF00000250746457010377868002807D0002056
:103E0000C100C919401C00064D60000EF8D0124ECA
:103E100000213046FCF71EF9002001466143C9B27B
:103E2000F82251438B190B49C2001031521800215E
:103E3000536005E0F8274F435368491CDD53C9B26E
:103E4000A142F7D3401C0006000EE6D001484470A2
:103E50000020F8BDD84BFF1FB66DFF1F7CB50C7856
:103E6000069D022C0FD14C68267864782402341900
:103E7000064EA4B2F44206D10224DBB200950194AE
:103E8000FDF72EFB7CBD01207CBD0000FED6FFFFB0
:103E9000F8B505461D48854223D0461C002921D08F
:103EA00001292BD002291CD10121284600F004FF52
:103EB000002816D12846FFF7CBF9040011D0A078CE
:103EC000FF280ED0FE2807D000200090E0781E23A7
:103ED00014222946FFF7CEF92046FFF75FFBFF20AB
:103EE000A070F8BD2846FFF7B3F90028F9D1304695
:103EF000FFF7AEF90028F4D00580F8BD2846FFF79B
:103F0000A7F90400F9D02680D9E70000FEFF0000E1
:103F1000F3B50C468978C1B01E2914D02E4D2878EF
:103F2000FF2829D0182927D84808C2002B48121882
:103F3000803A976F002F1FD0D06F00281CD02078B8
:103F4000002817D113E04198FFF782F905000BD044
:103F500000200090A378E87800224199FFF78AF9C1
:103F600006462846FFF71AFB304643B0F0BD62789C
:103F7000012A03D1122901D00620F6E702AE0096ED
:103F8000A3886178A268B8470028EED1A0784008DD
:103F9000C100124808188038C26F02A941989047A2
:103FA00000280FD061780029DFD1A27869460A7015
:103FB000087168460189418069464198FCF738FCE0
:103FC0000020D2E7A378042BCFD0009600222878D7
:103FD0004199FFF74FF9C8E7184EFF1F846502119A
:103FE00000B50346FDF7BEFD002803D0C018401EF3
:103FF00080B200BD184600BD10B5040008D020787E
:10400000FF2805D0FE2803D0FCF714F9FF2020700C
:1040100010BD0000F7B506460F461020FCF75CF80F
:1040200005461020FCF758F80446002D3AD0002C25
:104030002DD010220021FCF70DF82A4621463046EB
:1040400000F0E6FF060023D12878000604D43946A4
:10405000284600F043FD08E02146284600F03EFDDA
:104060003A461149204602F057FA3878000604D43F
:104070003846029900F032FD0AE02146384600F049
:104080002DFD09492046029A02F046FA00E0132667
:104090002846FCF733F8002C02D02046FCF72EF817
:1040A0003046FEBD1326F6E70E660211F8B50698F7
:1040B00000271D4614460E46002801D00B20F8BDEF
:1040C00030780021022801D019804DE07068027814
:1040D000407800021018152280B25202801A0300A4
:1040E000FBF7DCFF0504121F1A254100F068FCF7FE
:1040F00029F8C2B20798824200D902462A80F168A4
:104100002046FBF795FF30E0F06802210088298007
:104110002070000A607028E0062028800246F168BE
:10412000EEE701202880F068007820701DE0F0683C
:10413000002816D008212980017821700188090AF9
:1041400061708178A1704188090AE170017921715B
:104150008188090A61718179A171C088000AE071C2
:1041600003E0298001E0298001273846F8BD10B519
:104170000B78840702D50224234301E0FD24234069
:104180000B7003070B7802D50824234301E0F724C2
:1041900023400B7083060B7802D52024234301E0D3
:1041A000DF2423400B700A21084201D1810603D588
:1041B00010780C21084304E0002803D11078F32183
:1041C0000840107010BD0000FFB581B008780024D1
:1041D0000A9E1F460D4602280FD168680178407874
:1041E00000020818152180B24902401A09D001289E
:1041F00029D0022848D003283CD00124204605B00D
:10420000F0BDE868FBF79EFFC0B2864205D8F01902
:104210000090152803D90D24F0E70724EEE7E8689D
:104220003A4680190399FBF703FF0098EA6880B2C9
:10423000002111541C4840680028DFD00168002983
:10424000DCD0002012E0002E12D1022BE3D1039922
:10425000E8680A78497809025118018012484068D4
:104260000028CBD001680029C8D001208847C5E7C5
:104270000B24C3E7002EFBD1062BCCD10622E86825
:104280000399FBF7D5FEB9E7002EF1D1012BC2D17E
:1042900003980078002803D0012801D08024ADE7DE
:1042A000E9680870AAE70000F04AFF1F08B509484E
:1042B0008368002B0CD01A78694601205B1CFEF73E
:1042C000B2F8002804D00078C00701D0012008BD52
:1042D000002008BDF04DFF1F10B503460B4A00201B
:1042E0000A21414389184988002905D0401CC0B2E1
:1042F0000328F5D3002010BD0A2100244143545463
:104300000446403488184480037210BDE072FF1FD9
:104310000A7802700A88120A42708A7882704A8883
:10432000120AC2700A7902718A88120A42718A7965
:104330008271C988090AC17108207047F8B505461D
:104340000C4648680421FBF72DFF217A0170218972
:104350000346401C090A0170217841702188090A2E
:104360008170207A001DC2B2FB2A36D81C488542D3
:1043700015D114461E460C20FBF7EAFE01000CD0B6
:1043800090200870022008714D808E601548CC8006
:104390000078FBF7B9FE00271DE013271BE05C2027
:1043A00011496843441826464036307E002806D01E
:1043B00008465C30416A0727491C41620BE02146F0
:1043C000284600F095F90746307E002803D12146A3
:1043D0002846FBF735FF3846F8BD0220F8BD00003F
:1043E000FEFF0000354EFF1F5C73FF1F10B50A4A29
:1043F00000210A234B439B185C88002C06D01B79B4
:10440000834203D10A204143881810BD491CC9B218
:104410000329EED3002010BDE072FF1F0021418070
:104420000170704770477CB504000FD06088002889
:104430000CD00025009501951323E188207A1722DE
:1044400000F028F8FF206072658025707CBDF8B50B
:10445000074615460E461020FBF77AFE040017D0DB
:10446000A0202070002060706680002D05D00C22F6
:104470002946201DFBF7DCFD04E00C220021201D55
:10448000FBF7E8FD21463846FBF73EFE0020F8BD6D
:104490000120F8BDFFB581B01E46174614200B9DC4
:1044A000FBF756FE04001AD0A22020706770029815
:1044B00060800A9820716671002D06D020460C227B
:1044C00029460830FBF7B4FD05E020460C22002108
:1044D0000830FBF7BFFD21460198FBF715FE05B03C
:1044E000F0BD022A1CD34B780A781B02D21892B274
:1044F0000280012A02D0022A06D00FE08A78C97809
:1045000009025118418009E0CB788A781B02D21841
:1045100042800A7949790902511881800020704748
:1045200001207047F8B506464D88002070600A7972
:104530000C46022A12D0290160480091415A0029F4
:1045400006D0009B1F18BB68002B01D0012A7DD02C
:104550005A486C304169491C4161A9E0E288042A4B
:1045600043D3A068437801781B02C91889B200912F
:10457000C37881781B02C9188FB2017AC079000212
:1045800008184F4948800099091D8A4220D1072FF9
:1045900013D0052F11D0042F02D0062F25D10CE007
:1045A00046482901405A002807D02846FDF714FC48
:1045B00042486C300169491C0161009830813780A4
:1045C0000321C943A068FBF7EDFD70600020F8BD32
:1045D000072F18D0052F16D0042F07D0062F12D082
:1045E00036486C30C168491CC16064E03348290119
:1045F000405A002807D02846FDF7EEFB2F486C30C4
:104600000169491C01612D492D01002048536E1894
:104610000098B081B7800098FDF742FCB060002898
:1046200018D00321C943A068FBF7BCFDE28801460E
:10463000224F121FB068FBF7FBFC785BE188401843
:10464000001F785338466C30016800E008E0491CD0
:10465000016030E019486C308169491C81612AE0B1
:10466000E2888918009A89B28152BA8991421AD88F
:104670000546B868E2884018801AA168FBF7D8FCA4
:104680000098295AB889814215D13081B888308084
:10469000B868706000990020685208486C30416822
:1046A000491C416007E005486C308168491C816005
:1046B0002846FDF791FB0120F8BD00004C73FF1F59
:1046C000464EFF1F022A01D0012070470A78497820
:1046D000090251180180002070470A7802704A7858
:1046E00042708A78C97809025118418070470000E9
:1046F000FFB50C4607463D49A12080000968784374
:104700004018FF30C130067E89B015463846FCF7A8
:10471000E3F8001DB04204D23846FCF7DDF8001D76
:10472000C6B2B54207D82A46002138460C9BFBF793
:104730008DFD0DB0F0BD31462846FBF775FD2746CF
:10474000403738740C99616501467143691AC9B2E2
:1047500002910C9904910299002901D0401C3874EF
:10476000002523E00299002904D0401EA84201D16F
:10477000084600E03046E900059103916054FDF7DA
:10478000C3FA03990919486000281BD00599625C97
:104790000499FBF74DFC0598215C049808180490D7
:1047A0001348C169491C6D1CEDB2C161387CA84237
:1047B000D8D8606D002803D0FBF7E8FC00206065C6
:1047C0000020B6E7002038740646606506E0F00079
:1047D00000194068FBF7DAFC761CF6B2AE42F6D35D
:1047E0000348C16A491CC1621320A2E73409FF1FB4
:1047F000B873FF1FF7B586B016460D464878FFF729
:10480000F5FD040010D0002727712878012802D078
:10481000132809D105E06A88314602A8FFF761FE36
:104820000AE02078032802D0002009B0F0BD6A8891
:10483000314602A8FFF746FF0646204600F046F93B
:1048400002A8019000972B78207A32460699FFF74C
:1048500021FE2046FFF7E2FD3046E6E7FEB50446BE
:10486000468801466846FFF75DFE05460198002828
:104870002FD068460088052806D0042809D00628CD
:1048800007D0072805D026E06946304600F030F80A
:1048900021E081001548081801464039098E002999
:1048A00019D02038807C6A463146FFF7D0FD0028B9
:1048B00011D168460088042803D001213046FDF755
:1048C00027FA012D04D1A068002801D0FBF75EFC77
:1048D000FEBD012D04D1A068002801D0FBF756FCD5
:1048E00001213046FDF714FAFEBD0000D072FF1F13
:1048F00030B50546088987B00C46042817D302A8AE
:104900006168FFF7EAFE68464089172837D8218991
:10491000001D81421ED16846007AC10709D0626835
:1049200002A92846121DFFF765FF002812D107B023
:1049300030BD6168091D122805D000206946088035
:10494000497A6A4622E06846428903A8FDF710FAD0
:10495000002803D02846FFF765FDE8E70D48818869
:104960000029E4D06946497A03AA01920091694678
:104970000B7A807900222946FFF78CFDD7E70121C9
:104980006846018017214180417A6A462846FDF732
:10499000A3F9CCE7D072FF1F70B5144C0026268017
:1049A000A681A680A0683546002802D0FBF7EEFB62
:1049B000A5600E4C103420464030057445740576D1
:1049C000606D002802D0FBF7E1FB65655C200025E7
:1049D00046433419E80020184068002801D0FBF74E
:1049E000D5FB6D1C0A2DF5DB70BD00004C73FF1F5D
:1049F000FFB589B015460E461720129FFDF750FAF5
:104A0000040021D0684606704570002F03D0201D99
:104A10000C99B84700E00020694648802670657010
:104A20004888A070010AE170052269468A82001D4B
:104A30000694888305A90998FFF780FC050004D037
:104A40002046FBF7A3FB00E0132528460DB0F0BD80
:104A5000FFB581B01E46054601210A9F0B9C00F060
:104A60002BF9002811D02046FFF736FC00280AD089
:104A7000C5800446077012484178491C0A06120E88
:104A8000427004D005E015250FE014250DE0012249
:104A90004270227100962846039B0299FFF7A8FFF7
:104AA000050005D02046FFF7B9FC284605B0F0BD4B
:104AB00023462146034A09330348FBF7CDFBF4E7BD
:104AC000464EFF1F307500002744021110B5044602
:104AD000407AFBF7AFFBFF20607210BD10B50024D9
:104AE0000F22835C5B0023438B54835C521EDC09E2
:104AF00052B2002AF5DA10BDFFB581B01E46174646
:104B00000D46084600F04AF8002802D0112005B0F2
:104B1000F0BD0E4800F042F8040015D00A98A071CC
:104B20000622E01D0B99FBF783FA658027716671F9
:104B300001982070002060620C98E08100212846D6
:104B400000F0E4F80020E2E71520E0E7FFFF0000B6
:104B500070B514460D46064600F020F800280BD02C
:104B6000416A007900290CD0C20611D580070AD409
:104B7000002C08D0052070BD074886420AD01420BA
:104B800070BDC006F6D5887EA84203D20C2070BD49
:104B90000F2070BD002070BDFEFF0000084A0021FC
:104BA00028234B439B185B88834203D12820414331
:104BB00088187047491C0906090EF1D0002070477B
:104BC0000073FF1F30B50B4C0B4B002128224A43CA
:104BD000D5186D88A54206D09A5C824203D1282060
:104BE0004143C81830BD491C0906090EEED000200B
:104BF00030BD0000FFFF00000073FF1F10B5002054
:104C00000B4C0C4B014628224243D2185480401CC6
:104C1000117100065162000EF5D0064A00202832BC
:104C20008300401CC0B2D1500528F9D310BD00004C
:104C3000FFFF00000073FF1F0020074A01462823E2
:104C40004B439B181B79002B01D0401CC0B2491C60
:104C50000906090EF3D070470073FF1F074A0021B1
:104C60008B00D358002B05D0491CC9B20529F7D3B6
:104C70001320704789005050002070472873FF1F91
:104C800010B5FFF78BFF040013D06088012100F0FE
:104C90003DF8606A002801D0FBF730FA2822002195
:104CA0002046FBF7D7F90020C04360800020207128
:104CB00010BD022010BD000010B50C460649884208
:104CC00006D0FFF76BFF002804D00079204201D006
:104CD000012010BD002010BDFEFF000070B504468D
:104CE000084D2300A878FBF7D9F9060B040B0B0B32
:104CF000080B0221FBF7D8F902E00021FBF7B2FA1A
:104D00006C7070BDEC4CFF1F70470000F8B5084D8B
:104D10000E4607460024A0002A58002A02D0314639
:104D200038469047641CE4B2052CF4D3F8BD00006B
:104D30002873FF1FFFB581B00298FFF72FFF040013
:104D400069D00298354986008A59002A63D0136ACF
:104D50001820002B00D03420936A002B00D0143090
:104D6000049B002B00D01C30516A002900D0163063
:104D7000FBF7EEF905004ED018220021FBF76AF987
:104D80002620FCF77FF9070000D12778D020287073
:104D9000019868700A20A8700298A8800398A871EA
:104DA0001E482C4680591834006A002808D01B4938
:104DB000AC60895920461C34096A1C22FBF738F97B
:104DC00016488059806A002808D01449EC60895937
:104DD00020461434896A1422FBF72AF90498002823
:104DE00006D02C6120461C341C220499FBF720F9C4
:104DF0000A488159496A002906D06C6180591622F7
:104E0000416A2046FBF714F9F8B22946FBF77CF912
:104E10000298FDF739FB05B0F0BD0000E84DFF1F1B
:104E2000FFB581B01D46174614200E9EFBF790F982
:104E3000040020D0D0202070019860700520A07060
:104E4000E770002D05D006222946201DFBF7F0F85B
:104E500004E006220021201DFBF7FCF80A9860817F
:104E60000B98A0810C98E0810D982082A6742146B1
:104E70000298FBF749F905B0F0BDF8B506461C46A7
:104E800015460F460820FBF763F9010009D0D02032
:104E900008704E70062088708D808C713846FBF744
:104EA00033F9F8BD10B50446084884420DD00129F5
:104EB00007D0022909D101212046FFF7FDFE002875
:104EC00003D103492046FCF7F3FA10BDFEFF0000B2
:104ED000444CFF1F70B516460A7A00240498D20687
:104EE00001D5082070BD002801D00B2070BD0A78C4
:104EF0000020022A03D018800124204670BD4D688E
:104F00002A786D782D025219064D92B2EA4206D1E6
:104F100014221A80C9683046FBF78AF8EDE718803A
:104F20000A24EAE70C00FFFFFEB515460E7A0024BE
:104F3000089AB60601D50820FEBD0E78022E01D0D3
:104F4000012428E04E68377876783602BE19174F6C
:104F5000B6B2F61921D01648C64203D1002A03D0B2
:104F60000B2418E00A2416E0142B01D90D2412E0BA
:104F7000C8681A462946FBF75BF80E4804210078FA
:104F8000FBF792F80C4900204968002903D0096812
:104F9000002900D088472046FEBD01240092DBB2E4
:104FA00001942A46FCF79CFA0446F4E7FED6FFFF7C
:104FB0000F29FFFFEE4CFF1F3C4CFF1F00784107FD
:104FC0008207C90F920F89000006C00E1143C0006E
:104FD0000843704701468A00084910208958002973
:104FE0000AD00A6A002A07D08968002904D0107AFA
:104FF000097E884200D3084670470000504EFF1FCC
:1050000010B50246014620321031FBF731F910BDD0
:1050100010B5FBF72DF910BD7FB50D460446810094
:105020000948405800280ED0014668314EC9039601
:105030006E460EC6037FC28801782846FDF792FAB5
:10504000204600F003F87FBD504EFF1F70B50446A8
:1050500000F0BEFCA500134C6059002821D0006A66
:10506000002801D0FBF74AF86059806E002801D073
:10507000FBF744F86059C06E002801D0FBF73EF8FA
:105080006059006F002801D0FBF738F86059406F75
:10509000002801D0FBF732F86059FBF72FF8002009
:1050A000605170BD504EFF1F7FB5084D84002959D7
:1050B000102268462531FAF7BBFF2859044BC088F7
:1050C0006A46112100F014FC04B070BD504EFF1F61
:1050D000155E02117FB50C4C85006159002910D076
:1050E000694600F029FC60590178C088002901D088
:1050F000064B00E0064B6A46072100F0F9FB04B0BE
:1051000070BD0120FBE70000504EFF1F715E0211D1
:10511000035F021170B50D46064600240AE0FBF756
:10512000ADF8010A3155641CE4B2AC4202D23055EC
:10513000641CE4B2AC42F2D370BD00007FB5084DF0
:1051400084002959102268463531FAF771FF285931
:10515000044BC0886A46112100F0CAFB04B070BD40
:10516000504EFF1F4F5E021110B5064A8300D25801
:10517000002A06D0D288824203D1012901D1FFF74B
:1051800065FF10BD504EFF1F70B50E4C06468500E2
:105190006059002813D000782146002810D0886874
:1051A000002804D04168002901D030468847605962
:1051B0004078122803D100213046FFF72DFF70BD43
:1051C0004868EDE7504EFF1F10B50A46024B11210B
:1051D00000F08EFB10BD00007D5D02111CB5044681
:1051E00068461346017006221946401CFAF720FF54
:1051F000034B6A460821204600F07AFB1CBD0000E4
:105200009F5D021110B50A46024B112100F070FBA0
:1052100010BD0000C55D021110B586B00446684699
:105220001346018008221946801CFAF701FF044B3F
:105230006A460B21204600F05BFB06B010BD000063
:10524000E75D021110B50A46024B112100F050FB38
:1052500010BD0000115F021130B587B00446002078
:1052600069460875A06805782B00FAF717FF0C2C23
:1052700007070F1215181B1E2124272C00F0CAFE49
:1052800012281DD106206946087529E000F094FE19
:1052900016E000F0B0FE13E000F09DFE10E000F01C
:1052A00048FE0DE000F074FE0AE000F062FE07E048
:1052B00000F04EFE04E000F025FF01E000F014FFD6
:1052C000002802D008E00720DEE760886A46294609
:1052D00000F028FF694608756846007D002805D063
:1052E000608805A900F0F2FA07B030BD608800F0D0
:1052F00043FBF9E7F8B52B4D06468700E8590C4605
:10530000002807D0C188B14204D14178062904D0D1
:10531000112930D0002C36D03EE002782149002AF5
:1053200025D08368026A5B69DC0704D0147BE4073C
:1053300001D0072105E09C0705D5147BA40702D501
:10534000092141702CE05B0704D5127B520701D57F
:105350000B21F6E78868002822D0416800291FD079
:1053600030468847E8594078122802D018E048684B
:10537000F1E7002103E0002C00D032242146304622
:10538000FFF74AFE0CE03046FFF708FC002803D088
:10539000017910221143017131462046FDF7A2FD2B
:1053A0000120F8BD504EFF1F70B5017801249229ED
:1053B00002D0A02919D130E041780E2902D03E292F
:1053C00013D10BE081881A4AD14205D18068411C73
:1053D000007800F033F81EE000201CE001468078E1
:1053E0000124052803D0082811D000241DE011480D
:1053F0000078400719D510480068002815D0836848
:10540000002B12D0CA898888891D984703E08888B4
:105410008979FFF76FFF044607E00546FFF71CFF99
:10542000A868002801D0FAF7B1FE204670BD000040
:10543000E8DFFFFF7F4DFF1F544EFF1F70B51D4C6F
:1054400005462068002825D0002D06D10278002AC4
:1054500021D008220A30FAF7EBFD20682E460028FA
:1054600017D01220FAF774FE05000DD0C120287065
:105470006E7021681022A81C891CFAF7D9FD2068DB
:1054800029464078FAF740FE2068FAF737FE0020F8
:105490002060012070BD0822801CFAF7C9FDFAF7D0
:1054A000F3FE002801D00125D7E72168012008700C
:1054B000EFE700004C4EFF1F0149486070470000B5
:1054C000504EFF1FF7B588B0164604461022002143
:1054D0006846FAF7BFFD334DA700E859002835D0DC
:1054E000C188A14232D1017800292FD14278062A01
:1054F0000FD0816E002929D0088A112A19D0B04214
:1055000024D1082212310998FAF79EFD01283CD0D7
:105510001CE0024601465532353104AB0C3000F038
:1055200000FC002812D12046FFF754FD024604A9D2
:1055300030E0B04206D1082212310998FAF784FD12
:1055400001281BD032212046FFF766FD2046FFF7D9
:1055500025FB05000CD0696A002909D0088AB042F1
:1055600006D1082212310998FAF76EFD01280FD0F2
:105570002046FAF78FFE01200BB0F0BD2046FFF762
:1055800029FDE9590246896E04E0E859816E00E080
:10559000696A8A7E6846FAF74BFD20466946FAF743
:1055A0007FFEE8E7504EFF1FF1B582B00298694CCC
:1055B000850060590178002976D141788768066AAC
:1055C000062907D0CA1F1300FAF768FD050A4852DA
:1055D0005B1872007969CA0706D0327BD20703D004
:1055E000806E002813D019E0880702D5307B800731
:1055F0003ED4480764D5307B400761D5FCF78AFF6D
:105600006159CA8801461046FFF71CFE58E01C206D
:10561000FAF762FD61590028886653D0605910225C
:10562000866E00213046FAF715FD0298FFF7D2FC8E
:1056300001463046FFF76EFDFAF720FE3082304615
:1056400008211230FFF766FD0298FFF7C3FCB07621
:1056500060593146C088FFF7B7FD33E0816E0029FD
:1056600032D00A461232098AC088FFF7D5FD2BE0F6
:10567000FCF74AFF6159CA8801461046FFF7C2FD90
:105680003FE001200190FCF739FF009001280CD089
:10569000002000900198FCF723FF02466059009912
:1056A000C088FFF79BFD39E023E000200190F2E77E
:1056B000072907D0082907D0092922D00A292DD087
:1056C00078690EE008201DE07869810704D5317BF8
:1056D000890701D5092015E0410721D401E00B20FD
:1056E00010E0C10520D5B189C9051DD50C2061592F
:1056F0004870FEBD40051ED5B08940051BD5102061
:10570000F5E70A20615948706059C088FFF746FAEA
:10571000002812D0C08941080A1810E07869DBE738
:10572000317B4907DDD5DAE78105E3D5B189890504
:10573000E0D50E20DBE71220D9E7FF22F53206493B
:105740000298085402986359091804481B1DFAF777
:1057500083FDFEBD504EFF1F3C73FF1FC559021154
:10576000F8B50446002000900E461020FAF7B4FC6D
:10577000544AA500515900280862515978D017465B
:105780008C6810223146FAF753FC785901780029C9
:1057900062D1026A6069177B2146C307FF07143193
:1057A000DB0FFF0F0C32BB4204D1C30702D0012331
:1057B000184301E040084000086017788307BF07DE
:1057C000DB0FFF0FBB4204D1830702D5022318432E
:1057D00001E0022398430860177843077F07DB0F37
:1057E000FF0FBB4204D1430702D50423184301E055
:1057F0000423984308601788C305FF05DB0FFF0FDC
:10580000BB4205D1C30503D5FF230133184302E092
:10581000FF2301339843086017888305BF05DB0F1A
:10582000FF0FBB4205D1830503D501235B0218435B
:1058300002E001235B029843086012884305520589
:10584000D70F0122DB0F9202BB4203D1430501D5E2
:10585000104300E0904308607078002809D0607819
:10586000002806D01748052140592030017125E055
:1058700026E03079400708D4A07C400705D41149C0
:10588000012049592031087118E00E48425910781A
:10589000002802D02078317801E02178307804287F
:1058A00001D8042901D9182007E08B00C918064B3C
:1058B000C918085C20321071002000900098F8BDD3
:1058C0001320FAE7504EFF1F1E66021170B50C46FA
:1058D0000A460646054B022100F00AF805462178E3
:1058E0003046FFF799FB284670BD0000375E021175
:1058F000FEB51646054606226846028001811C4612
:105900000846FCF7CDFA019000280ED0014630463B
:10591000A047040005D169462846FCF7A7FA040011
:1059200004D00198FAF732FC00E01324284600F076
:1059300023F82046FEBD000070B50D4681000D48DD
:10594000405800280FD08468002C0CD02078287094
:1059500060786870A17C281D00F054F8207E2872C1
:105960006069E86070BD102200212846FAF772FBDA
:1059700070BD0000504EFF1FF8B504462020FBF715
:1059800081FB0D4E0546A700F059002812D0002DCE
:1059900010D0C078FF2804D02946FAF787FC0028E9
:1059A00008D006482A460455F35901190448DB1C5F
:1059B000FAF752FCF8BD0000504EFF1FEC73FF1FBA
:1059C000FB59021110B50078FFF7DEFB10BD000097
:1059D00070B5064C85006059002805D0C078FAF7EC
:1059E00029FC6159FF20C87070BD0000504EFF1F98
:1059F00010B51721FFF710FB10BD10B50078FFF7A9
:105A0000F7FF10BD10B502688B07920892009B0F3C
:105A10001A434C0704230260002C01DA1A4300E009
:105A20009A43F823C9089A43C9000A43026010BD8B
:105A3000FFB587B017461020FAF74EFB01901020F3
:105A4000FAF74AFB0090019800287DD000980028C2
:105A50007BD0024601990798FEF7DCFA04007ED15C
:105A60001020FAF739FB02901020FAF735FB0646B2
:105A7000029800286BD0002E7CD038460F300509E4
:105A800002D038070CD000E0012500202901103990
:105A900000280898C9B205D04018324601991AE08A
:105AA0000120F3E7401884463A07120F002003A9AB
:105AB0008023904202D267463F5C04E0904201D1CD
:105AC0000B5401E000270F54401CC0B21028F0D343
:105AD000324603A8009900F01FFD10220021029811
