:020000041102E7
:1000000003B40148019001BDADAE000003B4014846
:10001000019001BD456B010003B40148019001BD91
:100020000189000003B40148019001BDC53F0000F3
:1000300003B40148019001BDE94C010003B401483B
:10004000019001BDC95C010003B40148019001BDEC
:10005000CD4C010003B40148019001BD618900004D
:1000600003B40148019001BD154D010003B40148DE
:10007000019001BDF54E010003B40148019001BD9E
:10008000434D010003B40148019001BD2526000045
:1000900003B40148019001BD8B52010003B4014833
:1000A000019001BDB352010003B40148019001BDAC
:1000B0000D52010003B40148019001BDC94A01007D
:1000C00003B40148019001BD691F000003B4014859
:1000D000019001BD5D17000003B40148019001BD0E
:1000E0003D4B010003B40148019001BD595201008C
:1000F00003B40148019001BD5125000003B401483B
:10010000019001BD014C010003B40148019001BD03
:10011000594F010003B40148019001BD1D4B01007E
:1001200003B40148019001BD8D12000003B40148E1
:10013000019001BD4D1F000003B40148019001BDB5
:100140005522000003B40148019001BDDD520100B9
:1001500003B40148019001BD1D4D010003B40148E5
:10016000019001BD810E000003B40148019001BD62
:10017000017F000003B40148019001BDE1170000B8
:1001800003B40148019001BD7918000003B401488F
:10019000019001BDD949010003B40148019001BD9E
:1001A000E928000003B40148019001BD5549010050
:1001B00003B40148019001BD4551010003B4014859
:1001C000019001BDC926000003B40148019001BDA2
:1001D000F94CFF1F03B40148019001BDCD5FFF1F23
:1001E00003B40148019001BD8D3DFF1F03B40148D8
:1001F000019001BDED1EFF1F03B40148019001BD38
:100200002134FF1F03B40148019001BDA555FF1F14
:1002100003B40148019001BDC91EFF1F03B401488A
:10022000019001BD2130FF1F03B40148019001BDC1
:10023000051FFF1F03B40148019001BD815FFF1F2F
:1002400003B40148019001BD9D5FFF1F03B4014845
:10025000019001BD954CFF1F03B40148019001BD01
:10026000F94C010003B40148019001BDC521000013
:1002700003B40148019001BD291C000003B40148EA
:10028000019001BD851F000003B40148019001BD2C
:10029000090E000003B40148019001BD114701009F
:1002A00003B40148019001BD471EFF1F03B401487C
:1002B000019001BD211EFF1F03B40148019001BD43
:1002C000A946010003B40148019001BDE5480000C2
:1002D00003B40148019001BD2951010003B4014854
:1002E000019001BDD91B000003B40148019001BD7C
:1002F000251FFF1F03B40148019001BD4D1FFF1FC3
:1003000003B40148019001BD51470100F8B5C84947
:10031000C64A002005464A608300401CD550FF288D
:10032000FADD4868C34A014680318A606E22C262A3
:10033000C14A1278002A01D07F22C2620A22BF4B32
:1003400002651A788263BE4AC2611A781024022AB2
:1003500006D01A78032A08D01A78042A05D005E0B6
:10036000B84AC2610422026200E00462B64A4261F5
:100370001922920182613722CA6036272D26C7636F
:100380000822466402644F6032270F603B27CF6328
:100390004527CF640D4639274035C4C532270F6540
:1003A00002270F6642270835C4C51E274F66CE6652
:1003B0008A6605264E6742260E675A260E614A61F6
:1003C0003C228A61AF22D2000260A04A02631A78FE
:1003D000022A06D01A78032A05D01A78042A04D0F3
:1003E00005E0152202E00E2200E00C224260FF220E
:1003F0002D328260C260FF22F5320261944A82642B
:100400007D22D200934ECA67C6644262924A8262DB
:100410007322C265062242658265C21D0826F93232
:100420000227166047664B27FF0087660927C766C5
:100430008A4F0767466700258567BD10884F854E40
:10044000C5673E601E78022E06D01E78032E07D0A8
:100450001B78042B08D00AE01A23CB61212301E08A
:100460001323CC610B6202E00E230C62CB61784B4C
:100470008B627D23DB008B6764234B620523CB6299
:1004800002230B63C8234B6300238B633821516025
:1004900074491164744991614B21C900D161734958
:1004A00011627D2109015162D3661E211367916695
:1004B0006A499165156655645567D1656149FF3094
:1004C000963191676A49D1676A4A813002608260D9
:1004D0004160FF21F531C160016168486649534AB6
:1004E00081606749803A11616449664A80318A6255
:1004F000654ACA62654A8261654AC262654A0263A8
:100500006548C8615D49654840318861654964480E
:1005100088605A4864498038416064494163FFF704
:100520006FFD0120FFF772FDF8BDF3B50746604887
:1005300081B0C1695F4A1140FF310931C1610026B4
:1005400013E000252C461120FFF766FD5848406A4D
:100550008007800F610088402843641CE4B2054690
:10056000102CF0D301C7761CF6B202988642E8D36D
:10057000FEBD10B52E4C607800280AD104214E48EB
:10058000FFF7D3FF4C4804211030FFF7CEFF0120C6
:10059000607010BDF0B500248BB00D4606461029E2
:1005A00002D901200BB0F0BDFFF7E3FF4249002064
:1005B0000A5C401C1419C0B21028F9D3002C03D0D7
:1005C000102D03D90B20EDE70E20EBE73B483A4C0A
:1005D0000023006802A91034E25CC75C7A40CA5468
:1005E0005B1CDBB2102BF7D306AA3348FFF71AFDCA
:1005F000102D00D910252A4606A93046FFF718FD10
:10060000FFF71CFD216840182060FFF717FD6168A7
:1006100040186060FFF712FDA1684018A060FFF766
:100620000DFDE1684018E0600020BBE70004FF1FFB
:10063000E06FFF1FF098FF1FFC6AFF1F4A0AFF1FB1
:10064000220B00004605000080C3C9019A02000089
:1006500050C30000F81100006A180000204E00008E
:10066000F009FF1F0040001168100000C4090000DD
:1006700040420F00102700006151FF1F0001FF1FC3
:100680000D23FF1FD958FF1FB95BFF1F751FFF1FE9
:100690000921FF1F911FFF1F7567FF1FA11EFF1F6D
:1006A0009126FF1F0002FF1FC14EFF1FB54FFF1F06
:1006B00040F0004000FEFEFF7493FF1F0070FF1F1C
:1006C0000A7802708A7842704A88120A8270097920
:1006D000C170042070470A7802700988090A4170C5
:1006E0000220704710B500220EE093005B189C7842
:1006F00004705C88521C240A44701C7984709B88A6
:10070000D2B21B0AC370001D0B789342EDD81806B5
:10071000800D10BDF8B50D460646497801203170B0
:100720000024761C16E06978012917D01221614354
:1007300049198A7832704A88871C120A7270B61C6E
:1007400010223046091DFFF773FC1037B8B210367F
:10075000641CE4B22978A142E5D8F8BDA10049198A
:100760008A7832704A88871C120A7270B61C02227C
:100770003046091DFFF75CFCBF1CB8B2B61CE7E7AA
:1007800010B50C46097801702188090A4170A178DA
:1007900081706188090AC170A288A11D001DFFF740
:1007A00047FCA088001D80B210BD10B50C460A8819
:1007B000891CFFF73DFC208810BD10B50B788A78A6
:1007C00002705343DCB22246401C091DFFF730FC87
:1007D000601C10BD10B50B788A7802705343DCB2F0
:1007E0002246401C091DFFF723FC601C10BD10B5FC
:1007F0000C460A88891CFFF71BFC208810BD10B529
:100800000C460A88891CFFF713FC208810BD7FB5B1
:1008100015460446022901D0102903D1022B04D029
:10082000102B02D0002004B070BD994202D10A46BC
:10083000294607E01029694607D000F00DF810227C
:1008400069462846FFF700FCEDE7104600F004F883
:10085000102269462046F5E770B50C4605000CD01D
:10086000002C0AD0102206492046FFF7E1FB287829
:10087000207368786073012070BD002070BD000097
:100880008C6B021110B50B460122024901F0E6FC07
:1008900010BD0000C106021170B5064608880C465E
:1008A000172812D30B4603220949304601F0D6FC23
:1008B000050008D1074920880988884200D20146EE
:1008C000304600F097F9284670BD022070BD000048
:1008D000D70602110E70FF1F10B50023192219460A
:1008E00001F0BCFC10BD000010B50A78002A05D04C
:1008F0000B460722024901F0B1FC10BD022010BDD9
:10090000E506021110B54A78012A01D0022A08D161
:100910000A78002A05D00B460522034901F09EFC07
:1009200010BD022010BD0000150702110149400052
:10093000085A70470C70FF1F014917200880704744
:100940000C70FF1F0098022B01D004207047117813
:100950005278120289180180002070470098012BFC
:1009600001D004207047117801700020704770B5E5
:10097000049C1E461546062B1BD36978287809026D
:1009800040182080E978A878090240186080022287
:100990002271291D601DFFF74BFBB61FB2B22281E9
:1009A000F02A06D82046A91D0A30FFF741FB002097
:1009B00070BD042070BD0098042B01D00420704746
:1009C000537811781B02C91801809178D2781202ED
:1009D0008918418000207047F8B584890D46064685
:1009E000002C26D0B2681778380620D50C2C20D9D8
:1009F0000C3CA4B21019009001217088234601F02C
:100A0000BFFB002811D0022028707806C00F687044
:100A1000B806800EA870641E2004000CA88001D0C7
:100A2000B068401CA8600020F8BD0120ECE7002061
:100A3000EAE70120F8BD10B502981146042B14D343
:100A40004C780A78240212190280CC788A78240221
:100A5000121942801B1F9AB28280F22A05D8801D8B
:100A6000091DFFF7E5FA002010BD042010BD009815
:100A7000042B01D004207047537811781B02C91849
:100A800001809178D2781202891841800020704745
:100A900010B502981146062B03D0142B03D0042066
:100AA00010BD022200E0102202714B780A781B026E
:100AB000D2180280CB788A781B02D2184280027941
:100AC000401D091DFFF7B4FA002010BD30B5039C8E
:100AD000D80718D1D805010E022914D30B488088F5
:100AE000814210D8F6200155002008E0557813788F
:100AF0002D025B194500401C6353C0B2921C884212
:100B0000F4D3002030BD042030BD00000670FF1F6C
:100B10000098022B01D004207047117852781202FD
:100B2000891801800020704770B514460246049869
:100B3000022B18D3667825783602AD190580054654
:100B4000E0352A766976002A0BD0E8219B1E9AB2FE
:100B500042808A4207D8A11C001DFFF769FA0020D5
:100B600070BDF421F2E7042070BD000010B50B4603
:100B70001722024901F072FB10BD0000810702112B
:100B800010B50B460D22024901F068FB10BD0000B4
:100B9000AB07021110B50A78002A05D00B461122C6
:100BA000024901F05BFB10BD022010BDBB07021122
:100BB00010B50A78002A05D00B460922024901F037
:100BC0004DFB10BD022010BDD507021110B50B461C
:100BD0000F22024901F042FB10BD0000EF07021195
:100BE00010B50B460B22024901F038FB10BD000086
:100BF000FF070211044A1288914203D8024A4000BA
:100C0000921D1152704700000670FF1F10B500239F
:100C10001322194601F022FB10BD000070B50C46EE
:100C20000146032000020A1A002534481300FFF78A
:100C300011FA1D1012151C1F2326282C30323438AF
:100C40003A3C3E40424446484A4E50525A54565806
:100C50005A00C07911E01022294902E028491022E7
:100C600010312046FFF7E4F945E0C06A206042E019
:100C7000224906223C31F4E7007820703BE080896D
:100C800036E01E4942784231EBE71D4982781F3930
:100C9000E7E7007AF1E7407AEFE7184906223031BA
:100CA000DFE7807AE9E7C07AE7E7C08920E0808A59
:100CB0001EE0C0781CE0C08A1AE0008B18E0408B70
:100CC00016E0808B14E00D4906223631C9E7C08B4F
:100CD0000EE0008C0CE0408C0AE08079CDE7008AC1
:100CE00006E0408A04E0272904D2084600F078FA9A
:100CF000208000E00225284670BD0000D06BFF1F59
:100D00005190FF1F70B50E4C00256071A571691ED2
:100D1000E18100F095FB0420E071102200210948D8
:100D2000FFF79EF90748102200211030FFF798F9CD
:100D3000E562257265720720A072E57270BD000041
:100D4000D06BFF1F5190FF1FFEB53B4D0C460804B2
:100D50000CD56879FFF78AF9050004D002F0FAF99A
:100D60002846FFF789F90120C00360E0600403D53D
:100D7000012080034840FEBD2F48E107012680790D
:100D800000292AD02978002920D0052821D0297AC5
:100D900068460170697A4170274906223031801C0B
:100DA000FFF746F9A97A68460172E97A4172694605
:100DB000687900F031FA002808D00720A871696A24
:100DC000002903D00968002900D0884720467040D8
:100DD000FEBD032069460870E4E7A1070DD505288C
:100DE00009D1E889FFF74EF9AA8A002A03D0022127
:100DF0006879FFF74DF9022019E0600704D500205B
:100E000002F000FA042012E0200712D52879012808
:100E100002D002280AD107E00096AB8B6A8B298B9F
:100E2000E88A00F00BF801E000F05AF90820604071
:100E3000FEBD0020FEBD0000D06BFF1FF8B5134CB7
:100E4000069EA579052D01D01420F8BD104F851FF1
:100E5000BD4219D2062917D3BD1DA94214D2FF27BE
:100E6000F537BA4210D20A2B0ED3AB420CD2E08235
:100E700021836283A383304602F0C4F904216079A0
:100E8000FFF70CF90020F8BD1820F8BDD06BFF1F4C
:100E90007A0C0000F7B50D468049009816464218B6
:100EA0007F4F00247879B9791300FFF7D3F8190E32
:100EB000141BE92040455970777E888FE996A2A9D6
:100EC000B4BFC8E9E9E9E9D3E900102D76D11022D1
:100ED000314674486FE0102D70D1724810223146AF
:100EE000103068E0042D69D13068F862CEE0012D41
:100EF00064D13B7832783A70002B0AD0002A07D1AF
:100F0000022903D0062901D0042901D100F03EF9BD
:100F1000BCE0002A0AD0012905D0032903D0052905
:100F200001D0042902D10121FFF7BEF8AEE0022D65
:100F300044D13088B881A9E01F2D3FD858481F22DE
:100F400000214230FFF78CF855482A46314642309E
:100F5000FFF76EF8524B7D7042332A46012112E0B2
:100F60001F2D7CD84F481F2200211F38FFF778F82B
:100F70004C482A4631461F38FFF75AF8494B2A4653
:100F80001F3BBD700021787900F0D0FA83E0012D7D
:100F900065D13078042862D8387277E0012D5ED1AF
:100FA000307803285BD8787270E0062D57D13C4822
:100FB000062231463030FFF73BF867E04FE0012D65
:100FC0004DD1307807284AD8B8725FE0012D46D15C
:100FD0003078032843D8F87258E0022D3FD1328888
:100FE000BA82002A52D0052950D10221FFF750F8C9
:100FF0004CE0012D33D13078012830D8F87045E02D
:101000003088022D2BD1062829D31921C901884205
:1010100025D8F8823AE03088022D20D106281ED348
:101020001921C90188421AD838832FE03088022D4F
:1010300015D1FF21F531884211D2788326E030881E
:10104000022D0CD10A280AD31921C901884206D8D9
:10105000B8831BE03178012D01D1012901D018247A
:1010600014E00821FFF726F8002801D016240DE02F
:10107000002002F0C7F804217879FFF70FF805E0A7
:101080000098272801D2022D02D002242046FEBD5E
:10109000318800F0FBF90446F8E70000FFFCFFFF91
:1010A000D06BFF1F5190FF1F1CB50B4CA17900297D
:1010B00001D011201CBD002800D0606206490748FD
:1010C0002C31034601910090103B0022E1796079B8
:1010D00000F016F800201CBDD06BFF1F6190FF1FB1
:1010E00010B506488179052901D0122010BDC189AB
:1010F0001322407900F0DAF910BD0000D06BFF1F19
:10110000FFB581B01E460D4602240B9F0B00FEF773
:10111000A1FF0D1A0B1A1A0B1A1A1A1A1A1A1A0800
:101120001A000AA001F0AEFA2946019800F0D8F89A
:10113000040008D13A4630460A9900F087F900F0D9
:10114000EBF801F00DF8204605B0F0BD4741505FC7
:10115000446576696365496E69743A204741505F1A
:1011600050524F46494C455F43454E5452414C20E6
:101170007C204741505F50524F46494C455F504597
:10118000524950484552414C200A000070B5104C5D
:101190002168002904D00978814203D0032070BD62
:1011A000122070BD0B4D02212878FEF777FF0A4808
:1011B0000026468004212878FEF770FF0748068045
:1011C0002168032048700020FEF77AFF70BD000000
:1011D0007070FF1FA170FF1F8470FF1F1670FF1F2C
:1011E000272803D202494000085A70470148704737
:1011F0001E70FF1FFFFF000010B5064C607003F06B
:10120000BBFE6078FEF762FF0521607800F0A4FE67
:1012100010BD0000A070FF1F70B5284E0546306855
:101220000C46002801D0112070BD2548017805200A
:10123000014216D023488068002805D00078002895
:1012400002D0C80706D101E0102070BD00F044F8BC
:10125000002808D02078032805D0022803D00028D1
:1012600001D0122070BD0C20FEF736FF3060002840
:1012700020D00570002141700A222146801CFEF713
:10128000D7FE02F0A3F8040002D001F097FA12E0B2
:101290000D48007803280ED11D20FFF7A1FF0B4950
:1012A0000028088007D00B48094A04210078FEF77F
:1012B00019FF00E01324204670BD00007070FF1F6E
:1012C0001370FF1F8470FF1F1470FF1F1670FF1F25
:1012D00060EA0000A170FF1F10B503F06BFE10BDA7
:1012E00070B50C4605461C2200210948FEF7B8FEE1
:1012F000084805704470FEF7FBFE0549002803D03E
:1013000000200870122070BD01220A7070BD00001C
:10131000A493FF1F1270FF1F70B50F4C0025A0682B
:10132000002802D0FEF7EAFEA560E068002802D09F
:10133000FEF7E4FEE560094805210078084206D082
:101340000548103001F00CFE01F0DAF970BD002004
:1013500001F006FE002070BD8470FF1F1370FF1F98
:10136000FEB5344D0C46080419D56878FEF77EFEAC
:101370000121C9034C40064600280ED001F010FDA3
:10138000002807D12878FF2804D03146FEF7BCFE9C
:10139000002802D03046FEF76FFE2046FEBDE00773
:1013A000012700280AD0A868002804D04168002935
:1013B00001D00020884720467840FEBDA00709D50F
:1013C0006868002804D04168002901D001208847BE
:1013D00002202AE060072AD5174E308800281FD047
:1013E000401E0004000C30801ED101F059FA002884
:1013F00009D0124807706868002804D041680029A5
:1014000001D00120884701F025FA694600F002FE6C
:10141000684601F0AFFC1D20FFF7E2FE308003E0DC
:1014200004216878FEF73AFE04206040FEBD0020EB
:10143000FEBD0000A070FF1F1670FF1F1570FF1F7C
:101440000149087070470000A070FF1F70B50E4C76
:101450000B46261D07C60546102200211846FEF73A
:1014600059FE012803D11021A06804F065F910226B
:1014700000212846FEF74EFE012803D110216068A6
:1014800004F05AF970BD0000A493FF1F272807D26B
:10149000044A914204D0044A40001152002070478F
:1014A00002207047FFFF00001E70FF1FF8B50D46B9
:1014B00017461D4906461B4A1224C868954208D1A2
:1014C00000282DD00268002A2AD0294630469047AD
:1014D00023E0144A521C954213D1002807D0026819
:1014E000002A04D0294630469047040005D03946EA
:1014F000304601F0DFF8040012D10B480670477047
:101500000EE0284603F008FD002809D00078B0421C
:1015100005D139462846FEF703FE044600E00324C1
:101520002046F8BDFEFF00007470FF1FF8B50E46A0
:10153000014619481546007805221F46104028D05C
:10154000304326D01548012E1BD0C468002C20D073
:101550001F2D18D8002D01D0002F14D001701F228C
:101560000021601CFEF77CFD2A463946601CFEF710
:101570005FFD28462570002E07D0611CFEF7D6FDC2
:10158000F8BD8468E2E70220F8BD611CFEF7D4FDD7
:10159000F8BD1220F8BD00001370FF1F8470FF1FFC
:1015A000014610B50020C90704D0034A04210348AE
:1015B00000F0A6F910BD0000806B0211546CFF1FF3
:1015C00070B50F4D0F4CA87029461831204600F019
:1015D0001DF8002128460B461030CA00845212180C
:1015E000491C09065360090EF7D0012002F0B8FD2E
:1015F000A87800F00BFB044803F0EEFC70BD00007F
:10160000346CFF1FFFFF00009939021170B50A4CBE
:101610000025A04209D1002082008C525218401CA3
:10162000C0B295700228F7D370BD02F084F900288B
:10163000FAD00480857070BDFFFF0000F8B50E463B
:101640000746069900240798002902D00B2420465B
:10165000F8BD022B01D00D24F9E71178527812025F
:1016600089188DB22946814301D08024EFE738469E
:10167000F16800F03DF9A842E9D02A463846F16801
:1016800000F0A8F90400E2D171892A46384600F03A
:1016900065F9DCE770B50C46080412D50A48807875
:1016A000FEF7E4FC050008D02878B02802D12846CF
:1016B00002F05EFA2846FEF7DFFC0120C00360401E
:1016C00070BD002070BD0000346CFF1FFFB587B0F7
:1016D000087A0025109E1C460F46C0060DD50998B5
:1016E00002F022F9030006D00A22394607989847EB
:1016F000050035D101E00E2532E0387802281DD1F1
:10170000786829220178407812020002081880B215
:10171000811A90427ED009DC7249401A23D00128F8
:1017200021D0022851D0032808D125E0012972D008
:10173000022971D003296DD004296ED0099802F0D6
:101740001BF90028D7D00568002DD4D01299119824
:10175000019100903346224639460798A84705462E
:1017600028460BB0F0BD1198002873D1F8680178B5
:1017700031800278416897E0119800286AD10120F1
:101780003080F8680021007820707889401C80B291
:1017900000F04EF900280FD0318802788918891C92
:1017A0003180817A61704189090AA17002784168AB
:1017B000E01CFEF73DFCD3E730880422001D30809A
:1017C0000021601CFEF74CFCCAE71198002872D17A
:1017D000F86804A9008800900420308000982070E8
:1017E0000098000A6070009800F022F9070028D0E5
:1017F000F86805906846028A03AB3B49384600F01A
:101800006FF900280FD13B78022138487A68FEF73B
:10181000FEFF03E027E031E01DE049E0002802D1AF
:101820003148694688810598007802280CD10598CE
:1018300002224168201DFEF7FBFB3088801C3080AF
:1018400002E069460098888168468089A070000A95
:10185000E07085E72FE0119800282CD1F9680798EF
:1018600000F046F804E01198002824D1F8680088B8
:10187000022131802070000A607071E7F868FEF77D
:1018800061FC1199C0B2814210D8814201D100227D
:1018900006E0129A8918814202D31199401AC2B205
:1018A0003280F96811980918204682E7072557E722
:1018B0001198002801D00B2552E70721F8683180E4
:1018C00001782170417861708178A1704188090A9E
:1018D000E1700179217181796171C088000AA0717C
:1018E0003EE7000000280000FFFF0000026C02112C
:1018F00010B502F020F8002800D0807810BD00005C
:101900007CB51446050019D068460195018000F0A9
:1019100083F903001DD1002C1BD06D89002D0DD043
:101920000C20FEF7D9FB00280AD000230360858035
:10193000094A84609168002904D006E0022308E087
:10194000132306E0906004E011460A68002AFBD1E8
:10195000086018467CBD0000346CFF1FF8B50C4CC5
:101960000746207815460E46FF280FD00A20FEF7BE
:10197000EFFB01000AD0B120087000204870087108
:101980004F80CE800D812078FEF7BEFBF8BD0000B1
:10199000346CFF1FFFB583B008461F4601A90C9E9B
:1019A00000F046F8050012D06846808801F0E4FF98
:1019B00000280AD04468002C07D000963B462946F0
:1019C000059A0398A04707B0F0BD0E20FBE7012061
:1019D000F9E7000070B514460E46054601F0ABFF6E
:1019E000002806D13146054801F0A5FF002803D0A4
:1019F00005808470002070BD112070BDFFFF0000C5
:101A000010B50178B0290BD14178002908D10179AE
:101A1000122906D01B2903D14088012100F026FAA3
:101A200010BDFF210231095C0129F5D010BD000075
:101A3000F0B58C4610494B6819E09F687C89A0423C
:101A400014D39E883119814210D900220CE0110173
:101A50007D186989814205D16046002800D0048044
:101A60002846F0BD521C92B29642F0D81B68002B5B
:101A7000E3D10020F0BD0000AC70FF1FFFB5174898
:101A800081B00A9F446824E000251EE0A068290177
:101A9000461870890199884215D30299884212D854
:101AA0000498002807D031787068049B039AFEF7E9
:101AB000AEFE002807D0002F02D0A06840893880F1
:101AC000304605B0F0BD6D1CADB2A088A842DDD88F
:101AD0002468002CD8D10020F3E70000AC70FF1F71
:101AE000FEB5174600256A469580044640891D4A82
:101AF0001E46904208D001AA0092401C237880B272
:101B00006268FFF7BBFF054623780221164862682A
:101B1000FEF77DFE002807D1237802211348626872
:101B2000FEF775FE002801D060890EE023780221BF
:101B30000F486268FEF76BFE00280DD0002D03D021
:101B400068468088B84203D0384602F007FC04E0BB
:101B50006889401E80B200E06089002E00D030808D
:101B60002846FEBDFFFF0000006C0211026C02114E
:101B7000066C021110B505490870042100F0ECF95B
:101B800000F006F8FEF7D8FE10BD0000BC70FF1F85
:101B900070B50E4C00200C4B651CFF228100C9184B
:101BA00000280ED00D80401CCA70C0B28A70022876
:101BB000F4D3074801F0AAFE064803F00DFA00200E
:101BC00070BD0C80EFE70000B470FF1FFEFF000047
:101BD0008D4202110D42021170B50C46080411D558
:101BE00009480078FEF742FA050007D00178A029DD
:101BF00001D101F02FFE2846FEF73EFA0120C00376
:101C0000604070BD002070BDBC70FF1F01490870AE
:101C100070470000AC70FF1F70B5054600880028B3
:101C20001DD068680221037842682248FEF7EFFD64
:101C3000002808D168680221037842681E48FEF730
:101C4000E6FD00280BD01D4C6088002805D001223D
:101C500029881204101A814203D9012070BD022084
:101C600070BD0C20FEF738FA060001D000200AE013
:101C7000132070BD02016B6861880A329952491CB9
:101C8000401C618080B229888142F3D800203060F6
:101C900008222946301DFEF7CBF96068002802D1E2
:101CA000666004E0084601680029FBD10660002058
:101CB00070BD0000006C0211026C0211AC70FF1FBD
:101CC0000649496806E08A685289824201D18888BB
:101CD000704709680029F6D100207047AC70FF1FDB
:101CE00010B51422114201D0012202E04A0604D5A7
:101CF0000022102103F0EAF810BDC80701D000202F
:101D000010BD022010BD10B514468A0604D501226C
:101D1000102103F0DBF810BD882211420ED00822FA
:101D20000A40102103F0D2F800280BD0E034617E85
:101D30000029F0D0217E0129EDD103E0880701D4EC
:101D4000032010BD002010BD014610B50020C907BA
:101D500004D0034A07210348FFF7D2FD10BD00005D
:101D60006C6B02115C6BFF1F70B50D4616460024AC
:101D70001D490300FEF76EF90805123434193422A8
:101D80002934152D23D8162200211848FEF768F9AA
:101D90002A4631461548FEF74BF922E0022D16D1AE
:101DA00011491088103908801BE0082D0FD10E480A
:101DB000082231460838FEF7D1F912E0012D06D18C
:101DC000CA6909493078283107E0012D01D018246B
:101DD00007E0CA6B04493078483102F086FB00E026
:101DE0000224204670BD00005C6BFF1F1C90FF1F8B
:101DF0000B7803700B8802221B0A43700B88801C2F
:101E0000012B02D0022B07D011E08A78027049889A
:101E1000090A417004220AE08A7802704A88120A8C
:101E200042700A7982708988090AC17006221046B8
:101E30007047000008B5044B009313460A46012181
:101E400002F094FF08BD0000F11D02111CB5032330
:101E5000019200930A46024B122102F0B7FF1CBD0B
:101E60008D46021110B5FEF77FF910BD13B5044879
:101E70000078012803D101AA6946FEF77BF91CBD51
:101E8000C870FF1F70B50F490F4A087000210B463C
:101E90008C00491CC9B213530429F9D30A4C002100
:101EA0001034FF260A460A256A4315196B80491C1F
:101EB000A354C9B26E720329F4D3FEF761F902F09C
:101EC00029FF70BDC970FF1FC093FF1F082A01D0F2
:101ED000012070474B780A781B02D2180280CB7819
:101EE0008A781B02D21842804B790A791B02D218D9
:101EF00082808A79C97909025118C180002070470F
:101F000070B50C46080411D509480078FEF7AEF804
:101F1000050007D00178902901D102F05DFE284626
:101F2000FEF7AAF80120C003604070BD002070BD1C
:101F3000C970FF1F70B500280AD1064C0025258006
:101F4000A581A580A068002802D0FEF71FF9A56032
:101F500070BD00003C94FF1F072907D0052905D05C
:101F6000042903D0062901D002207047044A8B00BF
:101F70009A181346403B1986203A90740020704707
:101F8000C093FF1F70B506001BD10E4C00252146E3
:101F900040310D744D740D76606D002802D0FEF74F
:101FA000F5F865655C20002546433419E8002018E3
:101FB0004068002801D0FEF7E9F86D1CEDB20A2D4B
:101FC000F4D370BD4C94FF1F70B50A880C460546CB
:101FD000072A07D0052A05D0042A03D0062A01D0F3
:101FE000022070BD012103F025F8002804D021460D
:101FF000284602F061FB70BD142070BD10B5001DB5
:1020000080B2FEF7C9F8002803D00321C943FEF7C8
:10201000C9F810BD38B50C46050014D0002C12D0FC
:102020000321684603F088FB6946887840218006D2
:10203000800E0843694688702246284604F0B4F8AA
:10204000050002D006E0022038BD03226946E01CEC
:10205000FDF7EEFF284638BDF7B58EB00E98154651
:102060000E4600282DD0002D2BD0301DC0B201907F
:10207000FEF732F8040039D000F0F8FB074632468C
:10208000201D0E99FEF794F8F8B20890E07038041D
:10209000000E0B90A0703802000E0A9060703F0E88
:1020A000277000F0DDFB0146102202A8FEF780F841
:1020B00006AB214602A8019A03F0CCFF060003D02C
:1020C00010E0022011B0F0BD089828700B986870DD
:1020D0000A98A870EF70082206A9281DFEF768F874
:1020E00000F0CAFB2046FEF709F800E01326304650
:1020F000E8E7000010B5064C2070FEF75FF80621F7
:102100002078FFF729FF034802F066FF10BD0000AA
:10211000D870FF1F8D57021170B50C46080419D5F1
:102120000D480078FDF7A2FF05000FD003F04EFC2C
:10213000002808D109480078FF2804D02946FDF777
:10214000E3FF002802D02846FDF796FF0120C003D8
:10215000604070BD002070BDD870FF1FA070FF1FD1
:1021600010B505480078400701D5044800E000207C
:1021700003F0B4FC002010BD1370FF1FCC70FF1FD4
:10218000FFB58DB00F98169C0E46002815D0002C78
:1021900013D00D9802F0C0FE050011D061782078B0
:1021A00009024018A178E278090412068918471834
:1021B000286AB84206D3401C04D0022011B0F0BDFA
:1021C0001420FBE7002E04D02879800701D40120D9
:1021D000F4E70822002106A8FDF742FF1098001D31
:1021E000C0B20190FDF778FF060017D0301D109A9D
:1021F0000F99FDF7DDFF042221463046FDF7D8FF99
:102200001022A91802A8FDF7D3FF06AB314602A899
:10221000019A03F01FFF050002D013E01320CDE761
:10222000082206A908A8FDF7C3FF0822211D08A857
:10223000FDF70AFF012801D0012503E039460D987A
:1022400001F01EF93046FDF759FF2846B6E70A4669
:1022500010B501460020FDF7B7FF10BDFFB583B0F4
:102260000F4603981B4940001646085AFFF7C6FE62
:1022700004002AD00125601C2670002F03D0069987
:10228000B847401C85B2300610D51021039802F0E3
:10229000D1FE002801D0192613E06219E9B22046C8
:1022A000FFF7DAFE06000CD10C35ADB2042168460A
:1022B00001800194058169460398FFF785FE0600B9
:1022C00004D02046FDF762FF00E01326304607B039
:1022D000F0BD00000C70FF1F1FB50A4600210091E1
:1022E00001910291039101466846FDF7A1FE0F227C
:1022F00069460248FDF79CFE1FBD00006A6EFF1F85
:1023000070B5634C8CB0A070FDF764FF06211F20F0
:10231000FFF7BCF8012168460174017507210176B9
:1023200000218183082202840A22828401854B21B4
:10233000C900818557A003C801910090022202A91B
:102340005648FDF74DFF042202A902311003FDF7A4
:1023500047FF6A4606215248FEF79CFDC32006AAA5
:1023600001218000FEF796FD4D4804AA0121801F3F
:10237000FEF790FD4A4807AA0221401FFEF78AFD9A
:10238000224661201C321621C000FEF783FD454E17
:102390004348717D001F012904D0022906D003297A
:1023A00009D15FE03A4A32320D2102E0384A3F3229
:1023B0005AE0FEF76FFD312005AA01210001FEF76A
:1023C00069FD374808AA0221801DFEF763FD3448E5
:1023D00009AA0221C01DFEF75DFD31480AAA0221AB
:1023E0000830FEF757FDC5200BAA02218000FEF73A
:1023F00051FD274914221E3108464330FDF718FECF
:10240000234A152161320020FFF7AEFC2078204DD1
:1024100040001035295A0620FFF738F82078400090
:10242000295A0720FFF732F820784000295A08205F
:10243000FFF72CF820784000295A0920FFF726F8EA
:102440000025ED432846FFF77FFC2846FFF7A8F854
:10245000FDF7CCFE707D01280FD0022806D003289E
:1024600008D00AE00A4A50321121A2E70E48FDF7CF
:10247000C3FE02E00D48FDF7C5FEFDF7C9FEFDF7FE
:10248000CDFE0121A078FDF70FFE0CB070BD00005D
:102490004C6EFF1F0102030405060000044000000B
:1024A0000B030000B46FFF1F4562FF1F5163FF1F46
:1024B00038B50C4608040AD529488078FDF7D6FDC2
:1024C000002801D0FDF7D8FD0120C00339E0E00766
:1024D0000125002806D022480830FEF7E5FD2046F9
:1024E000684038BD200708D5684605706A46012156
:1024F0001C48FEF7CFFC082023E0600604D51AA094
:1025000000F0C0F840201CE0A00704D51DA000F09A
:10251000B9F8022015E0200604D520A000F0B2F89A
:1025200080200EE0E00505D523A000F0ABF8FF20E9
:10253000013006E0A00506D527A000F0A3F8012091
:102540004002604038BD600502D50120800203E0F2
:10255000200503D50120C002484038BD002038BD09
:102560004C6EFF1F050300004255505F4F53414C16
:102570005F4556545F4E4F544946595F444154415C
:102580000A0000004255505F4F53414C5F4556547E
:102590005F424C455F54494D45520A004255505FD9
:1025A0004F53414C5F4556545F5541525452585F0A
:1025B00054494D45520A00004255505F4F53414C1B
:1025C0005F4556545F554152545F54585F434F4DD9
:1025D000504C4554450A0000525820544F0A000000
:1025E0007FB504461B4D0300FDF734FD0631041F83
:1025F0002F312331C12002A98000FEF70FFB69466D
:10260000087A0870487A4870887A887000200871C3
:10261000C870487BC871087B8871C87A48716A465F
:1026200008210020FDF700FE11E00BA000F02AF8C1
:102630000DE008490C48091DFEF7F0FAA9880BA027
:1026400000F020F8FDF7F6FD01E0FDF7F9FD6C70F4
:102650007FBD00004C6EFF1F616476657274697304
:10266000696E67210A0000000E030000636F6E6E42
:1026700065637465642068616E646C655B25645D88
:10268000210A00000FB410B503AA0448029902F011
:10269000E3FC10BC08BC04B0184700004F22021134
:1026A00038B5034B00240FCB0094FDF7CFFD38BDA8
:1026B000546B021110B50C4602F042FC002804D005
:1026C00040882146FDF72CFD10BD122010BD0022D0
:1026D000002913D0002811D0012806D04A7992068B
:1026E000920E4A71032805D007E04879C0221043B2
:1026F000487102E0402002434A71012210467047AF
:1027000070B5124800250078052108421BD0202012
:10271000FDF7E2FC0E4C0028A06013D0202200211F
:10272000FDF79EFC2020FDF7D7FCE060002804D0D8
:1027300020220021FDF794FC05E0A068FDF7DEFCF7
:102740000020A0601325284670BD00001370FF1FF5
:102750008470FF1F002909D0012807D14979890910
:102760008901C02902D0402901D0022070470320EE
:102770007047FFB500200E4608701AE01C5C401C34
:10278000C5B2002C17D02819904214D85F5D6D1C7B
:10279000EDB2384600F09DFE002806D0641EE0B27F
:1027A000307000998F4202D1581904B0F0BD401921
:1027B000C0B29042E2D30020F7E7000010B5044C0D
:1027C0002068002803D0FDF799FC0020206010BD90
:1027D0007070FF1F70B50E4D84002859002815D069
:1027E000006A002801D0FDF789FC2859406A0028BA
:1027F00001D0FDF783FC2859806A002801D0FDF73D
:102800007DFC2859FDF77AFC0020285170BD00009E
:102810007C70FF1F10B5044C6068002803D0FDF7E2
:102820006DFC0020606010BD7470FF1F0100044843
:1028300005D104498978002901D00248801D7047DC
:10284000B493FF1F1270FF1F01488078704700008B
:102850001270FF1F0148406870470000A493FF1FDB
:102860000148806870470000A493FF1F0148C068BA
:1028700000687047A493FF1F10B50748C06801683F
:10288000491C016005480078FF2803D00121890315
:10289000FDF70AFC10BD0000A493FF1F1270FF1F7C
:1028A00002484068002800D0012070476C70FF1F6C
:1028B000FFB581B00F460D9E0A9D039802F02CFBD8
:1028C000040042D0019800283FD12079102108430C
:1028D00020710499490702D50221084301E0FD2136
:1028E000084020710B99284608430C99084330434F
:1028F000207902D00421084301E0FB210840207127
:10290000002E06D03069102220623146A018FDF753
:102910008FFB002D01D0002F05D00B98002814D07C
:10292000012F08D011E0606A002801D0FDF7E6FB16
:102930001C21284606E0606A002801D0FDF7DEFB76
:102940001C210B98FDF788FC60620398224C8700DD
:10295000E05900283ED0002D0FD0006A002806D193
:102960001C20FDF7B9FBE1590028086205D0E059A9
:102970001C22006A2946FDF75BFB0C98002810D04A
:10298000E059406A002806D11620FDF7A5FBE15961
:102990000028486205D0E0591622406A0C99FDF7DC
:1029A00047FB002E10D0E059806A002806D1142081
:1029B000FDF792FBE1590028886205D0E059142206
:1029C000806A3146FDF734FB0B9B049A039901980A
:1029D00002F03EFD05B0F0BD7C70FF1FF3B581B085
:1029E000019802F099FA050029D00E20FDF7B0FBFE
:1029F000040024D02620FEF7F3FB060000D12E7839
:102A0000D0202070002767700B20A0700622E91DDF
:102A1000E01CFDF70DFB019860810298C1070120C1
:102A2000002901D0207300E027730299890701D59E
:102A3000607300E06773F0B22146FDF765FBFEBDF1
:102A400010B581881F4B0124CA1A994237D011DC76
:102A50001D4BCA1A994219D007DC1C4A8A1810D09B
:102A6000022A1ED0032A29D11BE0472A27D0482A50
:102A700024D124E01300FDF7EDFA062122222222C0
:102A800022218068007800F0E5FC08E08068827808
:102A900041781202891889B2007800F03BFD0446A3
:102AA0000DE0094A921E914201D1012200E000226C
:102AB00080680178104600F015FD00E000242046F3
:102AC00010BD0000532000000A200000FADFFFFFC5
:102AD00070B51A4D1A4A0146002628781268194C1A
:102AE00001290CD0002A09D017490978490705D5D2
:102AF0000221FDF7D3FA6680FFF760FE70BD6188A2
:102B0000002903D0114B1B78002B05D0002AF5D0EB
:102B10001078FEF73BFB70BD3C2902D33C39618045
:102B200070BD0221FDF7BAFA62887D20C0004243E1
:102B300002212878FDF7ACFA668070BDA170FF1FF6
:102B40007070FF1F8470FF1F1370FF1F1570FF1F31
:102B500008B5418900910389C2888188C07800F056
:102B6000C5FB08BDF0B504468088A1218900484313
:102B7000304987B009684018FF30FF300230A17932
:102B80004167002C54D02C4D6868002823D006786B
:102B90002A480068002804D04168002901D000209C
:102BA00088472146E07908310591FFF7D3FDE071B0
:102BB0000246277D638A218AE089019002A88AC0A3
:102BC000A0880090E0783146059B02F0B7FCE078E1
:102BD000002802D00DE01A48D9E7E079E2896B4677
:102BE000059907C3A379A1880122304602F042F972
:102BF000E0706868002811D0FFF70CFE28780028E4
:102C00000CD06978FFF756FD002807D0E078A2883D
:102C10000346297802F0BFFC00202870A088172105
:102C2000FDF7E8FFA088FFF785F9A088FFF7AAF96C
:102C300007B0F0BD3409FF1F7470FF1FA470FF1FA1
:102C40001270FF1F70B504460026808802F064F9F8
:102C5000002803D00678A08802F0D0F9144D287817
:102C6000002808D0864206D16978FFF723FD0028A6
:102C700009D000202870002E05D0A379A288A07862
:102C8000314602F088FCA088094A81000832515878
:102C9000002901D0FFF79EFDA0881721FDF7AAFFAC
:102CA000A088FFF747F9A088FFF76CF970BD000016
:102CB0007470FF1F70B58288294D0124531B294968
:102CC000AA4242D019DC284D531BAA4218D00BDC73
:102CD000264BD21826D0254B1033D2181ED0032AEB
:102CE00017D0042A39D10BE0012B09D0022B07D0D1
:102CF000032B21D0042B30D11AE0433B072B2CD8D7
:102D0000496800292AD00968002927D08847044645
:102D100024E08068007800F0ADF81FE0806800F0E3
:102D200001F9F4E78068411C007800F0D9F8EEE77B
:102D300083681B78002B11D0896800290ED00B689E
:102D400008E0014610469847E1E70949096800296B
:102D500004D04B68002BF4D100E00024204670BD65
:102D60000E200000A070FF1F08200000F7EFFFFFFB
:102D70008070FF1F10B5094CA17800290CD00146C6
:102D80000622A01DFDF754F9A11DA078FFF79FFCB6
:102D9000A01DFDF767FA10BD002010BD1270FF1FC7
:102DA0001CB52F49037801240A68912B02D0A22B6D
:102DB0002ED13EE04178052909D00E2904D00F29F3
:102DC00008D03E2924D115E0FFF774FF10E0FFF78B
:102DD00039FF3AE001468088224B0124C31801D014
:102DE000062B15D1002A30D05268002A2DD09047EA
:102DF00004462AE081780124032917D004DC012944
:102E000011D0022904D105E015291ED016291CD0A5
:102E100000241AE014498968002916D0496800295D
:102E200013D0884711E0FFF79DFE0EE0FFF790FEFC
:102E30000BE00E490978042909D0002A05D0526810
:102E4000002A02D001460A48904720461CBD0021B6
:102E50006A46118001794088FEF7ECFFF5E7000033
:102E60008070FF1FF3DFFFFFA070FF1F1370FF1FB5
:102E7000FFFF0000F8B5164F0646BD1F2878FF2853
:102E800014D00A20FDF764F904000FD0D020207080
:102E900066700820A070A878E07006223946201DD0
:102EA000FDF7C6F821462878FDF72EF9E8780128C5
:102EB0000DD108480068002803D08068002800D0A1
:102EC00080470648044A04210078FDF70BF9F8BD55
:102ED0001870FF1FA470FF1F60EA0000A170FF1FA1
:102EE00070B500240546002805D1002903D006222C
:102EF0000B48FDF79DF80A4810380178012907D1E1
:102F00000124002D06D000210170284600F0CAF9E6
:102F1000204670BD02210170FDF7AAF9F8E7000014
:102F2000B493FF1F10B50024002813D002780B497A
:102F3000002A03D14288CA8202790A760A78022AD4
:102F400008D102780124002A06D000220A700078F5
:102F500000F0A8F9204610BD0322F7E7A493FF1F55
:102F60000149486070470000A070FF1FF8B5774C1A
:102F700087780146002507266079A2793B00FDF796
:102F800069F80805361A37375F94C736487800283D
:102F90005CD16E4806223C30C91CFDF749F801207F
:102FA000A0716A4B0146423362786079FEF7BEFA3F
:102FB00000284BD1A2E00F464978002946D1F97884
:102FC000002906D0624BA2780021FEF7AFFA787094
:102FD0000AE0022A0BD00121FDF76CF8002803D18A
:102FE00001216079FDF760F8787800282ED1F8BDCE
:102FF000497800292AD1032F09D0A289002A0CD0B0
:10300000217800290AD00121FDF742F806E0052ABF
:1030100001D0022012E0062010E02570A0790628D9
:1030200002D0042802D008E0052007E0012020702B
:1030300001466079FDF738F860E00320A0715DE09B
:1030400048780F46002803D031282CD0A67155E0CF
:103050003E480622391D3630FCF7EAFF7889E081C8
:10306000B8892082F88960820520A071A28A002A8E
:1030700003D002216079FDF70BF8B889E083F88965
:103080002084388A6084E07801280AD11F20FEF766
:10309000A7F87D21C9004843024604216079FCF766
:1030A000F7FF25702AE02570C7E728480E4606225C
:1030B00000213630FCF7D4FFE583258465840421A4
:1030C0006079FCF7EBFF08216079FCF7E7FFB07946
:1030D000082808D00320A0712078002805D0607946
:1030E000FEF754F807E00420F5E7012020700146C0
:1030F0006079FCF7D9FF0020C043E081606A0028B6
:1031000000D174E701680029FBD0A0798847F8BD99
:103110000D460821FCF7C2FF687829460028F6D141
:10312000E888E083288920844889608404216079C4
:10313000FCF7C0FF0028EAD1A06A0028E7D00368A6
:10314000628C218CE08B9847F8BD0000D06BFF1F8C
:103150003290FF1F10B50178224C912906D0A22988
:1031600026D0D02901D1FFF701FF10BD41780E29EB
:10317000FBD181881C4A91420FD1816803200856F7
:10318000A1790529F1D17F28EFD0616A0029ECD01F
:1031900049680029E9D0884710BD144A9142FBD103
:1031A000806883784278017811A0FFF76BFA10BD30
:1031B00041791329FBD10089012802D12079022805
:1031C00008D00520FEF70CF8024608216079FCF7CC
:1031D0005FFF10BD08216079FCF760FFFDF780FFFD
:1031E00010BD0000D06BFF1F05140000222000005E
:1031F0005B48434920444C455D25642025642025D7
:10320000640A00007CB5154C0546E08BE18A8842D3
:103210000AD3218B884207D8208C618B884203D146
:10322000608CA18B884217D00520FDF7D9FF064698
:10323000E18A68460180218B4180618B8180A18B6E
:10324000C18062796946E089FEF700FE2571324649
:1032500008216079FCF71CFF7CBD0000D06BFF1FCC
:10326000F8B507460E46084601F056FE040018D091
:103270002620FDF7B5FF050000D125780620FCF7D4
:1032800067FF04000DD006220021FCF7E9FED020E4
:10329000207067700E20A070A680E8B22146FCF76F
:1032A00033FFF8BD70B50F4D06462878FF2818D0BB
:1032B0000E20FCF74DFF040013D0D0202070667064
:1032C0000020A07006220849E01CFCF7B1FE064869
:1032D0001038C18A6181007E207321462878FCF76E
:1032E00013FF70BD1270FF1FB493FF1FFFB581B0B5
:1032F0001E4617460D460C20FCF72AFF040013D08B
:10330000284601F009FE002810D00078D021217055
:10331000019961700721A170A580E78026810A9933
:1033200061812146FCF7F0FE05B0F0BD0048ECE7F6
:103330001270FF1F70B50D4D044628680E46002818
:1033400012D00620FCF704FF010009D0D02008703D
:103350004C70032088708E8028680078FCF7D4FEBB
:10336000002C01D0FFF72AFA70BD00007070FF1F1B
:10337000FFB581B01F460E46084601F0CDFD0500A1
:1033800022D01020FCF7E4FE04001DD01022002102
:10339000FCF766FE2620FDF723FF002800D12878E1
:1033A000D0212170019961700F21A170A68003992D
:1033B000217267720A99A1720B99E1720C99E1600E
:1033C000C0B22146FCF7A0FE05B0F0BDF0B51F4D20
:1033D00085B02868002837D08778FDF77DFF002862
:1033E00005D00A20FDF7FCFE04900B200EE001F052
:1033F0001BF9002805D00620FDF7F2FE04900720F7
:1034000004E00820FDF7ECFE04900920FDF7E8FE3B
:1034100004460F480078002814D001262968C8788F
:10342000091DFFF754F929686D46CA7A8B7A091D80
:103430000BC5039233463A4621460498FCF71EFF1B
:1034400005B0F0BD0026E9E70120F9E77070FF1F25
:103450001470FF1F10B50949096800290CD0002815
:1034600005D101204870FCF72BFE002802D0002176
:10347000FFF760FF012010BD002010BD7070FF1F1E
:10348000F8B50C4601F048FD020021D02620146258
:10349000FDF7A6FE05062D0E00D115789679D01DF4
:1034A00000901020176AFCF753FE040010D0D020C3
:1034B0002070002060700920A070E6700622201D98
:1034C0000099FCF7B5FD21462846E760FCF71CFE95
:1034D000F8BD411E152903D9FF2801D000207047EF
:1034E0000120704770B50A4E054630780C46FF281B
:1034F0000DD00420FCF72CFE010008D0D02008706D
:103500004C7002208870CD703078FCF7FDFD70BDE6
:103510008470FF1FF3B5284D81B0286800284AD079
:103520004078264E012803D03078002831D041E081
:1035300001F07AF8224F002813D00120FDF750FE49
:103540000446412808D91F4A02213878FCF7CAFDF1
:103550001D483C3C44800EE07D20C0002246424392
:1035600003E00020FDF73CFE0246002A03D00221C2
:103570003878FCF78DFD29680220487030780028E3
:1035800002D00020307015E002990198FFF7D2FEBA
:1035900010E00320019CFCF7DBFD010008D0D020E7
:1035A00008704C700420887028680078FCF7ACFD27
:1035B000FFF704F90120FEBD7070FF1F1570FF1F9B
:1035C000A170FF1F60EA00008470FF1F074A0021FE
:1035D0008B00D35A834202D1880080187047491C5F
:1035E000C9B20229F4D3002070470000B470FF1F55
:1035F000FFB581B0FF201E46174605300A9DFCF737
:10360000A7FD04001BD0B020207067700298608076
:103610002671002D06D02046FC2229460830FCF7F2
:1036200007FD05E02046FC2200210830FCF718FDCC
:1036300021460198FCF768FD002005B0F0BD13207D
:10364000FBE700000548172202800988172901D2EC
:103650000420704701800020704700000E70FF1F9B
:103660000020704708B50A460888498888420BD868
:10367000002809D0002300931379521DFEF7FEF9AC
:10368000002803D0002008BD012008BD0A2008BD85
:10369000F3B50D4608884988002687B0814215D3C6
:1036A000002813D0002769460F710097002369880E
:1036B0001A46FEF7E3F904004FD068460079002867
:1036C00007D069464979012925D008E0012009B0D1
:1036D000F0BD217802291BD002216A4651711222C5
:1036E000504301AA618980184180684600791223FD
:1036F000584380181022001D6168FCF799FC684649
:103700000079401C0106090E684601711FD11AE0BC
:1037100001216A465171217802291ED1820001A837
:103720006189121851806A461279616892001018F6
:103730000222001DFCF77CFC6A461079401CC0B2D6
:103740001071052803D261890A48814200D10126FF
:103750006089401C80B2002EA7D0684600790028FE
:1037600005D001A90798FDF7CDF80020AFE70A20A2
:10377000ADE70000FFFF000038B50C460888498817
:10378000884215D8002813D02379621D02210B48E6
:10379000FDF73DF800280DD00020009023796188C6
:1037A0002088621DFEF76AF9002805D0002038BD88
:1037B000012038BD102038BD0A2038BD006C021130
:1037C00008B50A460888498888420BD8002809D0DD
:1037D000002300931379521DFEF750F9002803D0FF
:1037E000002008BD012008BD0A2008BDF8B500254D
:1037F0000F4606460C46E03717E06800205A0021C5
:10380000FEF716F9002809D0017A3046FEF768FA6B
:10381000002808D06900615A2180F8BD6800205A4C
:1038200020800120F8BD6D1CEDB2B87DA842E4D81F
:103830000020F8BD10B5044608880021FEF7F8F80E
:10384000002804D0017A2046FEF74AFA10BD012074
:1038500010BD000030B585B005466946FDF7BCF8DF
:10386000040026D168468078C1071E4809D08268C6
:10387000002A04D0688869469047044619E0062467
:1038800017E04268002A05D068886946904704001E
:1038900001D10EE0062468464078002809D1684628
:1038A000817801730021C1810474688803A9FCF741
:1038B000E9FFA868002801D0FCF768FC002C05D1BE
:1038C00068468078122807D01B2803D06888012119
:1038D000FEF7CCFA05B030BD684640780128F5D136
:1038E000F8E70000BC70FF1F70B505460C4608885D
:1038F0000021FEF79DF8002805D0017A22462846CF
:10390000FEF701FA70BD012070BD0000014948605A
:1039100070470000BC70FF1F10B50446801C00F00B
:1039200029FDFF20E07010BD10B500F025F800283B
:1039300000D0806810BD00229300CB5A834202D190
:10394000900040187047521CD2B2022AF4D30020D3
:1039500070470000074A0021CB00D35A834202D1AE
:10396000C80080187047491C0906090EF4D00020D1
:1039700070470000446CFF1F0649896805E08A888B
:10398000824201D18868704709680029F7D1002078
:1039900070470000346CFF1FF8B50746012906D0B8
:1039A000022924D1012101F045FB00281FD138460E
:1039B000FFF7D0FF050015D000240D4E0CE0F820D5
:1039C0006968604308180188002908D0F82200219E
:1039D000FCF746FB641CE4B270788442EFD300200D
:1039E000C0432880024938461831FDF70FFEF8BD64
:1039F000346CFF1FF3B5064683B0083001900020F9
:103A000000907088FFF7A6FF07002FD0002523E065
:103A1000F820796868430C182188002920D0019883
:103A2000007801280FD160880090A3887088A21DBB
:103A3000FDF7B0FF0090002805D001990020087024
:103A4000049821880180F82200212046FCF708FB19
:103A500000206D1C2080EDB2074840788542D7D306
:103A60000020C04338800098002802D17088FCF7FD
:103A700033FF009805B0F0BD346CFF1FF3B5054669
:103A8000374C064685B00835F62200212046FCF763
:103A9000E7FA03A800902B79698828886A1DFDF74A
:103AA000EDFF074645E070882E4A4100515C2E4BE1
:103AB000C91FC9B20093002202910192284B6946A6
:103AC0008A89F63B3946FDF701FE002812D12648C7
:103AD0002989001F828891420CD121492846F63954
:103AE0000A30FCF7B1FA002804D0217878898900DF
:103AF0000919488068468289698804AB3846FDF711
:103B0000EFFF07462078810009194A88002A10D063
:103B1000002F05D06A46128A401C20708A800AE075
:103B200002060021920DC9431219401C2070918099
:103B300006E0002F04D00D48217800888142B2D3DE
:103B40002078002806D070882146FCF7CDFE0020A2
:103B500007B0F0BD0698298801800A20F8E7000028
:103B60006092FF1F0C70FF1F386CFF1F0870FF1F53
:103B7000F0B585B0044600206946888120790E287A
:103B800069D00FDC082823D004DC022813D00628D3
:103B900018D118E025460835484F0A281DD00C28B2
:103BA00010D138E010285BD012285ED0162861D0E2
:103BB000182877D163E0434841490088088060882D
:103BC000FCF76AFE6EE003A92046FFF757FF5AE0B4
:103BD00003A9204600F076F955E0288804A9FDF7EE
:103BE00027FF010015D06088354E4200BA5C0023E3
:103BF000521ED2B20193029200966A46B31C128AF8
:103C0000FDF764FD00281DD160883146FCF7E8FF10
:103C100048E0012016E0288804A9FDF709FF01000B
:103C2000F7D060886B884200BA5C254E521ED2B233
:103C30000193029200966A46B31C128AFDF746FD74
:103C4000002803D029886A4691811CE060883146AB
:103C5000FCF796FF26E003A9204600F0D3F912E016
:103C600003A9204600F082F80DE003A9204600F0E9
:103C700039FA08E003A9204600F028F803E003A978
:103C80002046FFF7B7FE00280CD06178142909D030
:103C90000B4922790A706A4692894A8008716088C5
:103CA000FCF7F0FD2046FDF7ABFE0748C168002990
:103CB00001D02046884705B0F0BD00000C70FF1F02
:103CC0006092FF1F0670FF1F346CFF1FF8B504469B
:103CD0000F460546083400896946FDF7A9FE06002F
:103CE0003AD0307A80060ED568460088FFF71CFE71
:103CF000030006D06888122231469847060002D099
:103D00002BE00E2629E06E883046FFF723FE0100E7
:103D100005D11448FFF71EFE01000ED00E80124A96
:103D20000020527807E0F8264B6846439B5B002B47
:103D300005D0401CC0B29042F5D309260DE0496879
:103D4000F822504308182146FCF772F900266888CB
:103D50002146FCF70BFF02E0012620883880304620
:103D6000F8BD0000FFFF0000346CFF1FF3B58BB0FF
:103D700000200B9E0746039004A800903246337B38
:103D8000718930894C4C0D320836FDF777FE0546B7
:103D900078E00B98297A4088FDF7A2FF070003D04E
:103DA0000C98698901806FE00B9844494088444B26
:103DB0004200895C0093891FC9B2002202910192DE
:103DC0003D4B69460A8AF63B2946FDF77FFC070012
:103DD000E6D10398002833D039486188001F8088D5
:103DE000021D914253D1039909180B984088420053
:103DF0003248805A801F814249DC0399A87A6118B1
:103E0000087103986989401C80B22218090A401C75
:103E1000117180B203906846028A718807AB284608
:103E2000FDF75EFE050011D003986946898B2018C6
:103E3000017103986946401C898B80B2090A0CE025
:103E40001F48001F8088001D6080D6E70398FF216F
:103E5000201801710398401C80B222181171401C77
:103E600080B217490390091F8A8813492018F63930
:103E7000001DFCF7DDF812490398091F89884018D6
:103E800080B20390002D84D1039800280CD0618863
:103E90000398FCF7F9F920700B9821464088FCF74D
:103EA00079FE00200DB0F0BD002F00D10A270C983C
:103EB000318801803846F5E76092FF1F0C70FF1FC4
:103EC000386CFF1FF3B50746044608378BB04948E6
:103ED0000490388800252E4605906AE007A80090D7
:103EE0003B7979887A1D0598FDF7C8FD0890002870
:103EF00052D0408905900898017A6088FDF7F0FE5D
:103F000006005DD160883C494200895C3B4B091F3B
:103F1000C9B20093002202910192364B69468A8B06
:103F2000F63B0899FDF7D2FB060049D1002D36D0AB
:103F3000049841883148001F8088801C814241D10B
:103F40002E4B1B1F98882918608842002A48805AE7
:103F5000001F814220DC0898817A04984019017181
:103F600008996D1C4989E8B20A0A049909180A716E
:103F7000401CC5B2194604988A881E494019F63972
:103F8000001DFCF755F81D481D49001F0079281831
:103F9000C5B20598884209D1002D13D123E01748F6
:103FA0000499001F8088801C4880C9E7401C80B2AB
:103FB0000590608841001048405A001FA8428DDAE1
:103FC000002D0ED0049841882846FCF75DF9014683
:103FD0000498017060880499FCF7EAFD00200DB098
:103FE000F0BD002E00D10A260C99059808803046B5
:103FF000F5E700006092FF1F0C70FF1F386CFF1F79
:10400000FFFF0000F3B506460446002085B0324DA0
:1040100000900836288007463046E030049048E09B
:104020007800305A03A9FDF703FD01001AD060881B
:104030002B4B844642002948805C0093401EC0B24E
:10404000002202900192244B68468289F63B60462A
:10405000FDF73CFB0090002807D07800315A069805
:10406000018035E001200090F7E71D492888091FED
:104070008988421861884B001849C95A4B1E9A42D8
:1040800004DD081A1649091F401E88802988A81CCB
:1040900008181349091F8A880F49F639FBF7C8FF2A
:1040A0000F482988001F8088081828807F1C0498E2
:1040B000FFB2807DB84207D960882988420007484E
:1040C000805A401E8142ABDB60882946FCF77EFDAA
:1040D000009807B0F0BD00006092FF1F0C70FF1F3A
:1040E000386CFF1FF3B5054683B0044608350089D8
:1040F00001A9FDF79DFC2746E8370646002822D097
:10410000307A80060ED568468088FFF70DFC0300E4
:1041100006D06088122231469847060002D013E08C
:104120000E2611E0002000906B88298860882A1DE7
:10413000FDF730FC060007D1787E002807D16088A3
:10414000FCF764FD03E00126049829880180787E4D
:10415000002802D0002005B0F0BD3046FBE700008B
:10416000F8B504460246F8204243194800250746A0
:10417000457010377868002807D00020C100C919A1
:10418000401C00064D60000EF8D0124E0021304653
:10419000FBF766FF002001466143C9B2F822514394
:1041A0008B190B49C200103152180021536005E0F1
:1041B000F8274F435368491CDD53C9B2A142F7D3D6
:1041C000401C0006000EE6D0014844700020F8BDF7
:1041D000346CFF1F7290FF1F7CB50C78069D022C7B
:1041E0000FD14C682678647824023419064EA4B2A4
:1041F000F44206D10224DBB200950194FDF71EFAC9
:104200007CBD01207CBD0000FED6FFFFF8B5054651
:104210001D48854223D0461C002921D001292BD0DE
:1042200002291CD10121284600F004FF002816D1E4
:104230002846FFF7CBF9040011D0A078FF280ED054
:10424000FE2807D000200090E0781E231422294683
:10425000FFF7CEF92046FFF75FFBFF20A070F8BD07
:104260002846FFF7B3F90028F9D13046FFF7AEF939
:104270000028F4D00580F8BD2846FFF7A7F9040010
:10428000F9D02680D9E70000FEFF0000F3B50C4608
:104290008978C1B01E2914D02E4D2878FF2829D046
:1042A000182927D84808C2002B481218803A976F5F
:1042B000002F1FD0D06F00281CD02078002817D1E5
:1042C00013E04198FFF782F905000BD00020009021
:1042D000A378E87800224199FFF78AF90646284634
:1042E000FFF71AFB304643B0F0BD6278012A03D1D4
:1042F000122901D00620F6E702AE0096A388617865
:10430000A268B8470028EED1A0784008C100124842
:1043100008188038C26F02A94198904700280FD032
:1043200061780029DFD1A27869460A700871684671
:104330000189418069464198FCF7A4FA0020D2E740
:10434000A378042BCFD00096002228784199FFF75C
:104350004FF9C8E7AC70FF1F9C6B021100B5034614
:10436000FDF7AEFC002803D0C018401E80B200BD8F
:10437000184600BD10B5040008D02078FF2805D0ED
:10438000FE2803D0FBF786FFFF20207010BD000041
:10439000F7B506460F461020FBF79EFE0546102097
:1043A000FBF79AFE0446002D3AD0002C2DD01022A7
:1043B0000021FBF755FE2A462146304601F03AF926
:1043C000060023D12878000604D43946284600F098
:1043D00043FD08E02146284600F03EFD3A461149DB
:1043E000204602F0ABFB3878000604D43846029928
:1043F00000F032FD0AE02146384600F02DFD094963
:104400002046029A02F09AFB00E013262846FBF7AA
:1044100075FE002C02D02046FBF770FE3046FEBD34
:104420001326F6E7266C0211F8B5069800271D46FC
:1044300014460E46002801D00B20F8BD307800212C
:10444000022801D019804DE070680278407800029F
:104450001018152280B25202801A0300FBF7FAFDF1
:104460000504121F1A254100F068FBF76BFEC2B26B
:104470000798824200D902462A80F1682046FBF75D
:10448000D7FD30E0F0680221008829802070000A02
:10449000607028E0062028800246F168EEE70120DF
:1044A0002880F068007820701DE0F068002816D0A1
:1044B00008212980017821700188090A61708178BA
:1044C000A1704188090AE170017921718188090A86
:1044D00061718179A171C088000AE07103E02980CF
:1044E00001E0298001273846F8BD10B50B78840714
:1044F00002D50224234301E0FD2423400B7003076F
:104500000B7802D50824234301E0F72423400B70E5
:1045100083060B7802D52024234301E0DF242340C7
:104520000B700A21084201D1810603D510780C21B5
:10453000084304E0002803D11078F32108401070EC
:1045400010BD0000FFB581B0087800240A9E1F4608
:104550000D4602280FD168680178407800020818DB
:10456000152180B24902401A09D0012829D0022819
:1045700048D003283CD00124204605B0F0BDE868AF
:10458000FBF7E0FDC0B2864205D8F019009015286F
:1045900003D90D24F0E70724EEE7E8683A468019CE
:1045A0000399FBF745FD0098EA6880B20021115499
:1045B0001C4840680028DFD001680029DCD00020BA
:1045C00012E0002E12D1022BE3D10399E8680A7899
:1045D0004978090251180180124840680028CBD060
:1045E00001680029C8D001208847C5E70B24C3E72C
:1045F000002EFBD1062BCCD10622E8680399FBF7ED
:1046000017FDB9E7002EF1D1012BC2D10398007834
:10461000002803D0012801D08024ADE7E9680870A4
:10462000AAE700004C6BFF1F08B509488368002B00
:104630000CD01A78694601205B1CFEF79AF8002816
:1046400004D00078C00701D0012008BD002008BDBB
:104650008470FF1F10B503460B4A00200A21414316
:1046600089184988002905D0401CC0B20328F5D319
:10467000002010BD0A210024414354540446403414
:1046800088184480037210BDD093FF1F0A7802700F
:104690000A88120A42708A7882704A88120AC270A6
:1046A0000A7902718A88120A42718A798271C988EC
:1046B000090AC17108207047F8B505460C464868DC
:1046C0000421FBF76FFD217A017021890346401C0C
:1046D000090A0170217841702188090A8170207AC5
:1046E000001DC2B2FB2A36D81C48854215D114469B
:1046F0001E460C20FBF72CFD01000CD0902008700A
:10470000022008714D808E601548CC800078FBF740
:10471000FBFC00271DE013271BE05C2011496843C8
:10472000441826464036307E002806D008465C30C5
:10473000416A0727491C41620BE02146284600F0E8
:1047400095F90746307E002803D121462846FBF71D
:10475000A7FD3846F8BD0220F8BD0000FEFF0000AE
:10476000C970FF1F4C94FF1F10B50A4A00210A238D
:104770004B439B185C88002C06D01B79834203D1E5
:104780000A204143881810BD491CC9B20329EED341
:10479000002010BDD093FF1F0021418001707047A1
:1047A00070477CB504000FD0608800280CD000252D
:1047B000009501951323E188207A172200F028F84C
:1047C000FF206072658025707CBDF8B507461546F0
:1047D0000E461020FBF7BCFC040017D0A020207070
:1047E000002060706680002D05D00C222946201D17
:1047F000FBF71EFC04E00C220021201DFBF730FC1F
:1048000021463846FBF780FC0020F8BD0120F8BDAA
:10481000FFB581B01E46174614200B9DFBF798FC90
:1048200004001AD0A22020706770029860800A9855
:1048300020716671002D06D020460C2229460830D2
:10484000FBF7F6FB05E020460C2200210830FBF7C1
:1048500007FC21460198FBF757FC05B0F0BD022A82
:104860001CD34B780A781B02D21892B20280012A1C
:1048700002D0022A06D00FE08A78C97809025118BE
:10488000418009E0CB788A781B02D21842800A79ED
:104890004979090251188180002070470120704732
:1048A000F8B506464D88002070600A790C46022A49
:1048B00012D0290160480091415A002906D0009B7E
:1048C0001F18BB68002B01D0012A7DD05A486C30DC
:1048D0004169491C4161A9E0E288042A43D3A068E8
:1048E000437801781B02C91889B20091C378817896
:1048F0001B02C9188FB2017AC079000208184F490B
:1049000048800099091D8A4220D1072F13D0052F16
:1049100011D0042F02D0062F25D10CE046482901E2
:10492000405A002807D02846FDF704FB42486C3067
:104930000169491C01610098308137800321C94316
:10494000A068FBF72FFC70600020F8BD072F18D07F
:10495000052F16D0042F07D0062F12D036486C3002
:10496000C168491CC16064E033482901405A0028ED
:1049700007D02846FDF7DEFA2F486C300169491C44
:1049800001612D492D01002048536E180098B08117
:10499000B7800098FDF732FBB060002818D00321E3
:1049A000C943A068FBF7FEFBE2880146224F121FB5
:1049B000B068FBF73DFB785BE1884018001F785337
:1049C00038466C30016800E008E0491C016030E0C6
:1049D00019486C308169491C81612AE0E288891894
:1049E000009A89B28152BA8991421AD80546B868AC
:1049F000E2884018801AA168FBF71AFB0098295A30
:104A0000B889814215D13081B8883080B86870602B
:104A100000990020685208486C304168491C416088
:104A200007E005486C308168491C81602846FDF725
:104A300081FA0120F8BD00003C94FF1FDA70FF1FCF
:104A4000022A01D0012070470A78497809025118DA
:104A50000180002070470A7802704A7842708A7894
:104A6000C97809025118418070470000FFB50C4613
:104A700007463D49A1208000096878434018FF306F
:104A8000C130067E89B015463846FBF74FFF001D42
:104A9000B04204D23846FBF749FF001DC6B2B5420A
:104AA00007D82A46002138460C9BFBF7FFFB0DB0C8
:104AB000F0BD31462846FBF7E7FB27464037387400
:104AC0000C99616501467143691AC9B202910C994A
:104AD00004910299002901D0401C3874002523E07C
:104AE0000299002904D0401EA84201D1084600E0E6
:104AF0003046E900059103916054FDF7B3F903993D
:104B00000919486000281BD00599625C0499FBF7DD
:104B10008FFA0598215C0498081804901348C1691D
:104B2000491C6D1CEDB2C161387CA842D8D8606DBB
:104B3000002803D0FBF72AFB002060650020B6E7C1
:104B4000002038740646606506E0F00000194068F1
:104B5000FBF71CFB761CF6B2AE42F6D30348C16AE3
:104B6000491CC1621320A2E73409FF1FA894FF1F4C
:104B7000F7B586B016460D464878FFF7F5FD0400F8
:104B800010D0002727712878012802D0132809D1D6
:104B900005E06A88314602A8FFF761FE0AE0207846
:104BA000032802D0002009B0F0BD6A88314602A86F
:104BB000FFF746FF0646204600F046F902A801909E
:104BC00000972B78207A32460699FFF721FE20467F
:104BD000FFF7E2FD3046E6E7FEB5044646880146AB
:104BE0006846FFF75DFE0546019800282FD068460D
:104BF0000088052806D0042809D0062807D00728F1
:104C000005D026E06946304600F030F821E081000A
:104C10001548081801464039098E002919D0203856
:104C2000807C6A463146FFF7D0FD002811D16846E6
:104C30000088042803D001213046FDF717F9012D23
:104C400004D1A068002801D0FBF7A0FAFEBD012D19
:104C500004D1A068002801D0FBF798FA0121304662
:104C6000FDF704F9FEBD0000C093FF1F30B50546F7
:104C7000088987B00C46042817D302A86168FFF79B
:104C8000EAFE68464089172837D82189001D8142ED
:104C90001ED16846007AC10709D0626802A9284679
:104CA000121DFFF765FF002812D107B030BD616803
:104CB000091D122805D0002069460880497A6A46F5
:104CC00022E06846428903A8FDF700F9002803D0D6
:104CD0002846FFF765FDE8E70D4881880029E4D004
:104CE0006946497A03AA0192009169460B7A807954
:104CF00000222946FFF78CFDD7E701216846018095
:104D000017214180417A6A462846FDF793F8CCE79F
:104D1000C093FF1F70B5144C00262680A681A68084
:104D2000A0683546002802D0FBF730FAA5600E4C8B
:104D3000103420464030057445740576606D0028B7
:104D400002D0FBF723FA65655C2000254643341941
:104D5000E80020184068002801D0FBF717FA6D1C06
:104D60000A2DF5DB70BD00003C94FF1FFFB589B034
:104D700015460E461720129FFDF740F9040021D07A
:104D8000684606704570002F03D0201D0C99B84767
:104D900000E0002069464880267065704888A07051
:104DA000010AE170052269468A82001D0694888303
:104DB00005A90998FFF780FC050004D02046FBF701
:104DC000E5F900E0132528460DB0F0BDFFB581B030
:104DD0001E46054601210A9F0B9C00F02BF9002876
:104DE00011D02046FFF736FC00280AD0C5800446C3
:104DF000077012484178491C0A06120E427004D00E
:104E000005E015250FE014250DE001224270227106
:104E100000962846039B0299FFF7A8FF050005D0DE
:104E20002046FFF7B9FC284605B0F0BD23462146D1
:104E3000034A09330348FBF73FFAF4E7DA70FF1F30
:104E400030750000A347021110B50446407AFBF705
:104E500021FAFF20607210BD10B500240F22835C80
:104E60005B0023438B54835C521EDC0952B2002A40
:104E7000F5DA10BDFFB581B01E4617460D4608464F
:104E800000F04AF8002802D0112005B0F0BD0E480D
:104E900000F042F8040015D00A98A0710622E01D27
:104EA0000B99FBF7C5F86580277166710198207032
:104EB000002060620C98E0810021284600F0B4FADE
:104EC0000020E2E71520E0E7FFFF000070B5144680
:104ED0000D46064600F020F800280BD0416A007904
:104EE00000290CD0C20611D580070AD4002C08D0A6
:104EF000052070BD074886420AD0142070BDC00648
:104F0000F6D5887EA84203D20C2070BD0F2070BD5C
:104F1000002070BDFEFF0000084A002128234B43FB
:104F20009B185B88834203D128204143881870472F
:104F3000491C0906090EF1D000207047F093FF1FAD
:104F400030B50B4C0B4B002128224A43D5186D88F5
:104F5000A54206D09A5C824203D128204143C8185A
:104F600030BD491C0906090EEED0002030BD0000FE
:104F7000FFFF0000F093FF1F10B500200B4C0C4BFF
:104F8000014628224243D2185480401C1171000669
:104F90005162000EF5D0064A002028328300401CE2
:104FA000C0B2D1500528F9D310BD0000FFFF0000AA
:104FB000F093FF1F0020074A014628234B439B180C
:104FC0001B79002B01D0401CC0B2491C0906090EF8
:104FD000F3D07047F093FF1F074A00218B00D3588E
:104FE000002B05D0491CC9B20529F7D313207047FF
:104FF00089005050002070471894FF1F10B5FFF72C
:105000008BFF040013D06088012100F00DFA606A64
:10501000002801D0FBF772F8282200212046FBF778
:105020001FF80020C04360800020207110BD0220C6
:1050300010BD000010B50C460649884206D0FFF7A7
:105040006BFF002804D00079204201D0012010BD60
:10505000002010BDFEFF0000F7B5064686B0002018
:1050600004900390079810E125290AD0049900299B
:1050700001D0039802E0049000200390401C0390AC
:1050800000E10398002805D081B20498B0470020C1
:105090000490039000250422082310210798401C47
:1050A000079000782B2819D004DC202818D023285A
:1050B00004D117E02D280FD0302815D0079A0027EB
:1050C0001078FF430346303B3C46092B0FD807A816
:1050D00000F076FA044615E00D43DFE71543DDE7FF
:1050E0001D43DBE7202000E001200543D6E72A2806
:1050F00008D1521C0898079210C80890002C01DAB9
:1051000064420D43079938460A782E2A14D1491C67
:10511000079108780246303A092A03D807A800F018
:105120004FFA06E02A2806D1491C0791089901C9BF
:105130000891002800DA0020079A39461778682F6E
:1051400003D06C2F01D04C2F02D1521C394607924C
:10515000079B0A221B786E2B2CD00CDC632B2AD0E9
:1051600004DC412B26D0582B11D19BE0642B01D0BD
:10517000692B0CD19AE0732B3DD004DC6F2B77D0D8
:10518000702B04D164E0752B73D0782B6FD0252B56
:1051900009D0252069460872012102A8B047079866
:1051A0000178002975D007986946007808720121B6
:1051B00002A8B04766E0E80609D42025641E002C4A
:1051C00005DD68460572012102A8B047F6E7089898
:1051D0006A4601781172001D0890012102A8B047AB
:1051E000202504E068460572012102A8B047641E2C
:1051F000002CF7DC46E0089A02CA089200910029C8
:1052000001D12DA100910A4600E0491C0B78002B2A
:1052100001D0401EF9D28F1AE8060AD42025204674
:10522000641EB84205DD68460572012102A8B04738
:10523000F5E7B9B20098B047202504E0684605724A
:10524000012102A8B0472046641EB842F6DC19E0EE
:10525000611C02D1082401210D430090089801959A
:1052600002C823461022089009E001E001E01BE09B
:105270000822089B02CB08930195009023463046F4
:1052800000F01EF80798401C07900178002901D013
:10529000EAE60EE00398002802D081B20498B047F5
:1052A00009B0F0BD402215431022E2E702231D435E
:1052B000DFE7401E0790E5E73C4E554C4C3E0000B2
:1052C000FFB50746574897B0219D006815901E46C8
:1052D0000A46680602D5534840681590E80601D58D
:1052E0006D086D001998801E232870D2E80701D040
:1052F000302100E0202110A8017300210172A807CD
:1053000010D5002A04DA2D2010A90872524208E0B4
:10531000680701D52B2002E0280703D5202010A91B
:1053200008725E1EA80608D51998102802D0082811
:1053300002D002E0B61E00E0761E0024002A14D03F
:1053400010461999FAF7A0FF159A525C01A90A555F
:10535000641C0200F4D12098844200DD209420983F
:10536000361A112005420BD00EE030206946087134
:105370000124F0E720206946087001216846B847FB
:105380003046761E0028F5DC10A8007A002802D0EE
:10539000012112A8B847A80616D51998082802D0E6
:1053A000102802D010E0302009E030206946087053
:1053B00001216846B8471B4800682030407869469C
:1053C000087001216846B847E80604D507E027E0E1
:1053D000012113A8B8473046761E0028F8DC302596
:1053E0002099481E2090A1420BDD684605700121DE
:1053F000B847F5E7285D6946087001216846B84757
:1054000000E001AD2046641E0028F3DC2024304675
:10541000761E002804DD684604700121B847F6E7CF
:105420001BB0F0BD1C6BFF1FF8B5084D0E460746BC
:105430000024A0002A58002A02D03146384690475E
:10544000641CE4B2052CF4D3F8BD00001894FF1FCF
:10545000FFB581B00298FFF75FFD040069D00298A4
:10546000354986008A59002A63D0136A1820002B18
:1054700000D03420936A002B00D01430049B002B02
:1054800000D01C30516A002900D01630FAF760FEB7
:1054900005004ED018220021FAF7E2FD2620FBF786
:1054A0009FFE070000D12778D020287001986870EF
:1054B0000A20A8700298A8800398A8711E482C465C
:1054C00080591834006A002808D01B49AC608959FB
:1054D00020461C34096A1C22FAF7AAFD1648805996
:1054E000806A002808D01449EC6089592046143499
:1054F000896A1422FAF79CFD0498002806D02C61D2
:1055000020461C341C220499FAF792FD0A4881595E
:10551000496A002906D06C6180591622416A2046EA
:10552000FAF786FDF8B22946FAF7EEFD0298FDF784
:1055300051F905B0F0BD00007C70FF1FFFB581B0D0
:105540001D46174614200E9EFAF702FE040020D0D6
:10555000D0202070019860700520A070E770002DA9
:1055600005D006222946201DFAF762FD04E0062236
:105570000021201DFAF774FD0A9860810B98A08124
:105580000C98E0810D982082A67421460298FAF7C3
:10559000BBFD05B0F0BDF8B506461C4615460F46E6
:1055A0000820FAF7D5FD010009D0D02008704E7010
:1055B000062088708D808C713846FAF7A5FDF8BDFD
:1055C0000146002006E0531C0B600A231278584362
:1055D000303810180A681378303B092BF3D970471C
:1055E000007841078207C90F920F89000006C00E9C
:1055F0001143C0000843704701468A000849102043
:10560000895800290AD00A6A002A07D08968002927
:1056100004D0107A097E884200D308467047000003
:10562000E470FF1F10B50246014620321031FAF730
:1056300049FE10BD10B5FAF745FE10BD7FB50D4609
:10564000044681000948405800280ED001466831C0
:105650004EC903966E460EC6037FC288017828465F
:10566000FDF726F9204600F003F87FBDE470FF1F28
:1056700070B5044600F0BEFCA500134C605900282C
:1056800021D0006A002801D0FAF738FD6059806EF9
:10569000002801D0FAF732FD6059C06E002801D011
:1056A000FAF72CFD6059006F002801D0FAF726FDAB
:1056B0006059406F002801D0FAF720FD6059FAF7D1
:1056C0001DFD0020605170BDE470FF1F7FB5084DC7
:1056D00084002959102268462531FAF7A9FC285977
:1056E000044BC0886A46112100F014FC04B070BD60
:1056F000E470FF1F396402117FB50C4C85006159BD
:10570000002910D0694600F029FC60590178C08852
:10571000002901D0064B00E0064B6A46072100F045
:10572000F9FB04B070BD0120FBE70000E470FF1F2F
:10573000956402112765021170B50D4606460024D6
:105740000AE0FAF7C5FD010A3155641CE4B2AC4227
:1057500002D23055641CE4B2AC42F2D370BD0000FA
:105760007FB5084D84002959102268463531FAF773
:105770005FFC2859044BC0886A46112100F0CAFB1F
:1057800004B070BDE470FF1F7364021110B5064AC7
:105790008300D258002A06D0D288824203D1012940
:1057A00001D1FFF765FF10BDE470FF1F70B50E4C0F
:1057B000064685006059002813D00078214600284D
:1057C00010D08868002804D04168002901D03046F4
:1057D000884760594078122803D100213046FFF7EE
:1057E0002DFF70BD4868EDE7E470FF1F10B50A4655
:1057F000024B112100F08EFB10BD0000A1630211CD
:105800001CB5044668461346017006221946401C22
:10581000FAF70EFC034B6A460821204600F07AFB9B
:105820001CBD0000C363021110B50A46024B1121D2
:1058300000F070FB10BD0000E963021110B586B0E6
:10584000044668461346018008221946801CFAF770
:10585000EFFB044B6A460B21204600F05BFB06B0D1
:1058600010BD00000B64021110B50A46024B112155
:1058700000F050FB10BD00003565021130B587B057
:105880000446002069460875A06805782B00FAF7E1
:10589000E1FB0C2C07070F1215181B1E2124272CC7
:1058A00000F0CAFE12281DD106206946087529E0BD
:1058B00000F094FE16E000F0B0FE13E000F09DFE54
:1058C00010E000F048FE0DE000F074FE0AE000F089
:1058D00062FE07E000F04EFE04E000F025FF01E06C
:1058E00000F014FF002802D008E00720DEE76088FF
:1058F0006A46294600F028FF694608756846007D1B
:10590000002805D0608805A900F0F2FA07B030BD84
:10591000608800F043FBF9E7F8B52B4D0646870099
:10592000E8590C46002807D0C188B14204D141781B
:10593000062904D0112930D0002C36D03EE0027860
:105940002149002A25D08368026A5B69DC0704D0FC
:10595000147BE40701D0072105E09C0705D5147BE3
:10596000A40702D5092141702CE05B0704D5127B06
:10597000520701D50B21F6E78868002822D041683C
:1059800000291FD030468847E8594078122802D0B5
:1059900018E04868F1E7002103E0002C00D0322431
:1059A00021463046FFF74AFE0CE03046FFF7B4FAD6
:1059B000002803D00179102211430171314620469D
:1059C000FDF74EFC0120F8BDE470FF1F70B50178B3
:1059D0000124922902D0A02919D130E041780E2962
:1059E00002D03E2913D10BE081881A4AD14205D159
:1059F0008068411C007800F033F81EE000201CE0B5
:105A0000014680780124052803D0082811D00024FD
:105A10001DE011480078400719D51048006800289B
:105A200015D08368002B12D0CA898888891D9847B1
:105A300003E088888979FFF76FFF044607E0054691
:105A4000FFF71CFFA868002801D0FAF79FFB20464B
:105A500070BD0000E8DFFFFF1370FF1FE870FF1F3D
:105A600070B51D4C05462068002825D0002D06D1B4
:105A70000278002A21D008220A30FAF7D9FA2068E1
:105A80002E46002817D01220FAF762FB05000DD031
:105A9000C12028706E7021681022A81C891CFAF79A
:105AA000C7FA206829464078FAF72EFB2068FAF7F3
:105AB00025FB00202060012070BD0822801CFAF721
:105AC000B7FAFAF70BFC002801D00125D7E72168C7
:105AD00001200870EFE70000E070FF1F01494860F7
