:020000041102E7
:1000000003B40148019001BDADAE000003B4014846
:10001000019001BD456B010003B40148019001BD91
:100020000189000003B40148019001BDC53F0000F3
:1000300003B40148019001BDE94C010003B401483B
:10004000019001BDC95C010003B40148019001BDEC
:10005000CD4C010003B40148019001BD618900004D
:1000600003B40148019001BD154D010003B40148DE
:10007000019001BDF54E010003B40148019001BD9E
:10008000434D010003B40148019001BD2526000045
:1000900003B40148019001BD8B52010003B4014833
:1000A000019001BDB352010003B40148019001BDAC
:1000B0000D52010003B40148019001BDC94A01007D
:1000C00003B40148019001BD691F000003B4014859
:1000D000019001BD5D17000003B40148019001BD0E
:1000E0003D4B010003B40148019001BD595201008C
:1000F00003B40148019001BD5125000003B401483B
:10010000019001BD014C010003B40148019001BD03
:10011000594F010003B40148019001BD1D4B01007E
:1001200003B40148019001BD8D12000003B40148E1
:10013000019001BD4D1F000003B40148019001BDB5
:100140005522000003B40148019001BDDD520100B9
:1001500003B40148019001BD1D4D010003B40148E5
:10016000019001BD810E000003B40148019001BD62
:10017000017F000003B40148019001BDE1170000B8
:1001800003B40148019001BD7918000003B401488F
:10019000019001BDD949010003B40148019001BD9E
:1001A000E928000003B40148019001BD5549010050
:1001B00003B40148019001BD4551010003B4014859
:1001C000019001BDC926000003B40148019001BDA2
:1001D0004D5AFF1F03B40148019001BDDD6DFF1FA3
:1001E00003B40148019001BDC54AFF1F03B4014893
:1001F000019001BD3D25FF1F03B40148019001BDE1
:10020000C93CFF1F03B40148019001BDFD62FF1FFF
:1002100003B40148019001BDF924FF1F03B4014854
:10022000019001BDC938FF1F03B40148019001BD11
:100230005525FF1F03B40148019001BD916DFF1FBB
:1002400003B40148019001BDAD6DFF1F03B4014827
:10025000019001BDE959FF1F03B40148019001BDA0
:10026000F94C010003B40148019001BDC521000013
:1002700003B40148019001BD291C000003B40148EA
:10028000019001BD851F000003B40148019001BD2C
:10029000090E000003B40148019001BD114701009F
:1002A00003B40148019001BD7724FF1F03B4014846
:1002B000019001BD5124FF1F03B40148019001BD0D
:1002C000A946010003B40148019001BDE5480000C2
:1002D00003B40148019001BD2951010003B4014854
:1002E000019001BDD91B000003B40148019001BD7C
:1002F0007525FF1F03B40148019001BD9D25FF1F17
:1003000003B40148019001BD51470100F8B5C84947
:10031000C64A002005464A608300401CD550FF288D
:10032000FADD4868C34A014680318A606E22C262A3
:10033000C14A1278002A01D07F22C2620A22BF4B32
:1003400002651A788263BE4AC2611A781024022AB2
:1003500006D01A78032A08D01A78042A05D005E0B6
:10036000B84AC2610422026200E00462B64A4261F5
:100370001922920182613722CA6036272D26C7636F
:100380000822466402644F6032270F603B27CF6328
:100390004527CF640D4639274035C4C532270F6540
:1003A00002270F6642270835C4C51E274F66CE6652
:1003B0008A6605264E6742260E675A260E614A61F6
:1003C0003C228A61AF22D2000260A04A02631A78FE
:1003D000022A06D01A78032A05D01A78042A04D0F3
:1003E00005E0152202E00E2200E00C224260FF220E
:1003F0002D328260C260FF22F5320261944A82642B
:100400007D22D200934ECA67C6644262924A8262DB
:100410007322C265062242658265C21D0826F93232
:100420000227166047664B27FF0087660927C766C5
:100430008A4F0767466700258567BD10884F854E40
:10044000C5673E601E78022E06D01E78032E07D0A8
:100450001B78042B08D00AE01A23CB61212301E08A
:100460001323CC610B6202E00E230C62CB61784B4C
:100470008B627D23DB008B6764234B620523CB6299
:1004800002230B63C8234B6300238B633821516025
:1004900074491164744991614B21C900D161734958
:1004A00011627D2109015162D3661E211367916695
:1004B0006A499165156655645567D1656149FF3094
:1004C000963191676A49D1676A4A813002608260D9
:1004D0004160FF21F531C160016168486649534AB6
:1004E00081606749803A11616449664A80318A6255
:1004F000654ACA62654A8261654AC262654A0263A8
:100500006548C8615D49654840318861654964480E
:1005100088605A4864498038416064494163FFF704
:100520006FFD0120FFF772FDF8BDF3B50746604887
:1005300081B0C1695F4A1140FF310931C1610026B4
:1005400013E000252C461120FFF766FD5848406A4D
:100550008007800F610088402843641CE4B2054690
:10056000102CF0D301C7761CF6B202988642E8D36D
:10057000FEBD10B52E4C607800280AD104214E48EB
:10058000FFF7D3FF4C4804211030FFF7CEFF0120C6
:10059000607010BDF0B500248BB00D4606461029E2
:1005A00002D901200BB0F0BDFFF7E3FF4249002064
:1005B0000A5C401C1419C0B21028F9D3002C03D0D7
:1005C000102D03D90B20EDE70E20EBE73B483A4C0A
:1005D0000023006802A91034E25CC75C7A40CA5468
:1005E0005B1CDBB2102BF7D306AA3348FFF71AFDCA
:1005F000102D00D910252A4606A93046FFF718FD10
:10060000FFF71CFD216840182060FFF717FD6168A7
:1006100040186060FFF712FDA1684018A060FFF766
:100620000DFDE1684018E0600020BBE70004FF1FFB
:100630001C7EFF1F28AAFF1F2C79FF1F4A0AFF1FDD
:10064000220B00004605000080C3C9019A02000089
:1006500050C30000F81100006A180000204E00008E
:10066000F009FF1F0040001168100000C4090000DD
:1006700040420F0010270000B55EFF1F0001FF1F62
:100680005D29FF1F3966FF1F1969FF1FC525FF1F61
:100690005927FF1FE125FF1F7D75FF1FD124FF1F75
:1006A000E12CFF1F0002FF1F155CFF1F095DFF1FEC
:1006B00040F0004000FEFEFFB0A4FF1F3C7EFF1F85
:1006C0000A7802708A7842704A88120A8270097920
:1006D000C170042070470A7802700988090A4170C5
:1006E0000220704710B500220EE093005B189C7842
:1006F00004705C88521C240A44701C7984709B88A6
:10070000D2B21B0AC370001D0B789342EDD81806B5
:10071000800D10BDF8B50D460646497801203170B0
:100720000024761C16E06978012917D01221614354
:1007300049198A7832704A88871C120A7270B61C6E
:1007400010223046091DFFF773FC1037B8B210367F
:10075000641CE4B22978A142E5D8F8BDA10049198A
:100760008A7832704A88871C120A7270B61C02227C
:100770003046091DFFF75CFCBF1CB8B2B61CE7E7AA
:1007800010B50C46097801702188090A4170628809
:10079000211D801CFFF74CFC6088801C80B210BDBE
:1007A00010B50C46097801702188090A4170A178BA
:1007B00081706188090AC170A288A11D001DFFF720
:1007C00037FCA088001D80B210BD10B50C460A8809
:1007D000891CFFF72DFC208810BD10B50B788A7896
:1007E00002705343DCB22246401C091DFFF720FC77
:1007F000601C10BD10B50B788A7802705343DCB2D0
:100800002246401C091DFFF713FC601C10BD10B5EB
:100810000C460A88891CFFF70BFC208810BD10B518
:100820000C460A88891CFFF703FC208810BD7FB5A1
:1008300015460446022901D0102903D1022B04D009
:10084000102B02D0002004B070BD994202D10A469C
:10085000294607E01029694607D000F00DF810225C
:1008600069462846FFF7F0FBEDE7104600F004F874
:10087000102269462046F5E770B50C4605000CD0FD
:10088000002C0AD0102206492046FFF7D1FB287819
:10089000207368786073012070BD002070BD000077
:1008A000486C021110B50B460122024901F008FD07
:1008B00010BD0000C106021170B5064608880C463E
:1008C000172812D30B4603220949304601F0F8FCE1
:1008D000050008D1074920880988884200D20146CE
:1008E000304600F0A1F9284670BD022070BD00001E
:1008F000D70602114A7EFF1F10B5002319221946A0
:1009000001F0DEFC10BD000010B50A78002A05D009
:100910000B460722024901F0D3FC10BD022010BD96
:10092000E506021110B54A78012A01D0022A08D141
:100930000A78002A05D00B460522034901F0C0FCC5
:1009400010BD022010BD0000150702110149400032
:10095000085A7047487EFF1F10B50B461B220249FC
:1009600001F0AEFC10BD0000810702110149172003
:1009700008807047487EFF1F0098022B01D004209A
:100980007047117852781202891801800020704750
:100990000098012B01D004207047117801700020CD
:1009A000704770B5049C1E461546062B1BD369780C
:1009B0002878090240182080E978A87809024018B0
:1009C000608002222271291D601DFFF731FBB61FD6
:1009D000B2B22281F02A06D82046A91D0A30FFF7BC
:1009E00027FB002070BD042070BD0098042B01D0AF
:1009F00004207047537811781B02C9180180917840
:100A0000D27812028918418000207047F8B5848995
:100A10000D460646002C26D0B2681778380620D539
:100A20000C2C20D90C3CA4B2101900900121708824
:100A3000234601F0D7FB002811D002202870780649
:100A4000C00F6870B806800EA870641E2004000CE9
:100A5000A88001D0B068401CA8600020F8BD01202B
:100A6000ECE70020EAE70120F8BD10B50298114636
:100A7000042B14D34C780A78240212190280CC7803
:100A80008A782402121942801B1F9AB28280F22AAD
:100A900005D8801D091DFFF7CBFA002010BD0420EA
:100AA00010BD0098042B01D00420704753781178B2
:100AB0001B02C91801809178D278120289184180EE
:100AC0000020704710B502981146062B03D0142B56
:100AD00003D0042010BD022200E0102202714B78E6
:100AE0000A781B02D2180280CB788A781B02D218AF
:100AF00042800279401D091DFFF79AFA002010BDBF
:100B000030B5039CD80718D1D805010E022914D39B
:100B10000B488088814210D8F6200155002008E05B
:100B2000557813782D025B194500401C6353C0B201
:100B3000921C8842F4D3002030BD042030BD000058
:100B4000427EFF1F0098022B01D0042070471178CD
:100B500052781202891801800020704770B514463F
:100B600002460498022B18D3667825783602AD1910
:100B700005800546E0352A766976002A0BD0E82103
:100B80009B1E9AB242808A4207D8A11C001DFFF723
:100B90004FFA002070BDF421F2E7042070BD000080
:100BA00010B50B461722024901F08AFB10BD000068
:100BB000A107021110B50B460D22024901F080FB7E
:100BC00010BD0000CB07021110B50A78002A05D02D
:100BD0000B461122024901F073FB10BD022010BD2B
:100BE000DB07021110B50A78002A05D00B4609224E
:100BF000024901F065FB10BD022010BDF50702118E
:100C000010B50B460F22024901F05AFB10BD00003F
:100C10000F08021110B50B460B22024901F050FBE0
:100C200010BD00001F080211044A1288914203D827
:100C3000024A4000921D115270470000427EFF1F81
:100C400010B500231322194601F03AFB10BD000035
:100C500070B50C460146032000020A1A00253448EC
:100C60001300FFF7F7F91D1012151C1F2326282C5F
:100C7000303234383A3C3E40424446484A4E505264
:100C80005A5456585A00C07911E01022294902E0FE
:100C90002849102210312046FFF7CAF945E0C06A02
:100CA000206042E0224906223C31F4E700782070BF
:100CB0003BE0808936E01E4942784231EBE71D492E
:100CC00082781F39E7E7007AF1E7407AEFE71849C1
:100CD00006223031DFE7807AE9E7C07AE7E7C089AA
:100CE00020E0808A1EE0C0781CE0C08A1AE0008BF9
:100CF00018E0408B16E0808B14E00D490622363157
:100D0000C9E7C08B0EE0008C0CE0408C0AE08079D3
:100D1000CDE7008A06E0408A04E0272904D208468D
:100D200000F078FA208000E00225284670BD00001F
:100D3000007AFF1F8D9EFF1F70B50E4C002560715D
:100D4000A571691EE18100F095FB0420E07110227D
:100D500000210948FFF784F90748102200211030CC
:100D6000FFF77EF9E562257265720720A072E572D1
:100D700070BD0000007AFF1F8D9EFF1FFEB53B4D2A
:100D80000C4608040CD56879FFF770F9050004D00B
:100D900002F012FA2846FFF76FF90120C00360E065
:100DA000600403D5012080034840FEBD2F48E107C1
:100DB0000126807900292AD02978002920D0052809
:100DC00021D0297A68460170697A41702749062244
:100DD0003031801CFFF72CF9A97A68460172E97A54
:100DE00041726946687900F031FA002808D007207E
:100DF000A871696A002903D00968002900D08847D2
:100E000020467040FEBD032069460870E4E7A10754
:100E10000DD5052809D1E889FFF734F9AA8A002AF7
:100E200003D002216879FFF733F9022019E0600747
:100E300004D5002002F018FA042012E0200712D591
:100E40002879012802D002280AD107E00096AB8B4E
:100E50006A8B298BE88A00F00BF801E000F05AF960
:100E600008206040FEBD0020FEBD0000007AFF1F8C
:100E7000F8B5134C069EA579052D01D01420F8BDB8
:100E8000104F851FBD4219D2062917D3BD1DA94297
:100E900014D2FF27F537BA4210D20A2B0ED3AB4239
:100EA0000CD2E08221836283A383304602F0DCF916
:100EB00004216079FFF7F2F80020F8BD1820F8BD92
:100EC000007AFF1F7A0C0000F7B50D4680490098A4
:100ED000164642187F4F00247879B9791300FFF73E
:100EE000B9F8190E141BE92040455970777E888F98
:100EF000E996A2A9B4BFC8E9E9E9E9D3E900102D50
:100F000076D11022314674486FE0102D70D17248AE
:100F100010223146103068E0042D69D13068F86243
:100F2000CEE0012D64D13B7832783A70002B0AD0A4
:100F3000002A07D1022903D0062901D0042901D1B2
:100F400000F03EF9BCE0002A0AD0012905D00329AF
:100F500003D0052901D0042902D10121FFF7A4F80B
:100F6000AEE0022D44D13088B881A9E01F2D3FD8D2
:100F700058481F2200214230FFF772F855482A4690
:100F800031464230FFF754F8524B7D7042332A46C7
:100F9000012112E01F2D7CD84F481F2200211F384D
:100FA000FFF75EF84C482A4631461F38FFF740F8F5
:100FB000494B2A461F3BBD700021787900F0D0FADA
:100FC00083E0012D65D13078042862D8387277E04B
:100FD000012D5ED1307803285BD8787270E0062D41
:100FE00057D13C48062231463030FFF721F867E000
:100FF0004FE0012D4DD1307807284AD8B8725FE014
:10100000012D46D13078032843D8F87258E0022DDC
:101010003FD13288BA82002A52D0052950D102210C
:10102000FFF736F84CE0012D33D13078012830D865
:10103000F87045E03088022D2BD1062829D31921DC
:10104000C901884225D8F8823AE03088022D20D1A3
:1010500006281ED31921C90188421AD838832FE0E7
:101060003088022D15D1FF21F531884211D27883C5
:1010700026E03088022D0CD10A280AD31921C90193
:10108000884206D8B8831BE03178012D01D10129AF
:1010900001D0182414E00821FFF70CF8002801D033
:1010A00016240DE0002002F0DFF804217879FEF725
:1010B000F5FF05E00098272801D2022D02D0022476
:1010C0002046FEBD318800F0FBF90446F8E7000039
:1010D000FFFCFFFF007AFF1F8D9EFF1F1CB50B4C0E
:1010E000A179002901D011201CBD002800D0606228
:1010F000064907482C31034601910090103B00221D
:10110000E179607900F016F800201CBD007AFF1F1D
:101110009D9EFF1F10B506488179052901D0122038
:1011200010BDC1891322407900F0DAF910BD00002A
:10113000007AFF1FFFB581B01E460D4602240B9FAB
:101140000B00FEF787FF0D1A0B1A1A0B1A1A1A1A40
:101150001A1A1A081A000AA001F0C6FA29460198BC
:1011600000F0D8F8040008D13A4630460A9900F059
:1011700087F900F0EBF801F025F8204605B0F0BD46
:101180004741505F446576696365496E69743A20EA
:101190004741505F50524F46494C455F43454E547E
:1011A00052414C207C204741505F50524F46494CA1
:1011B000455F5045524950484552414C200A000075
:1011C00070B5104C2168002904D00978814203D001
:1011D000032070BD122070BD0B4D02212878FEF750
:1011E0005DFF0A480026468004212878FEF756FF56
:1011F000074806802168032048700020FEF760FF42
:1012000070BD0000AC7EFF1FDD7EFF1FC07EFF1F94
:10121000527EFF1F272803D202494000085A704718
:10122000014870475A7EFF1FFFFF000010B5064CB3
:10123000607003F0E9FE6078FEF748FF05216078F2
:1012400000F0BCFE10BD0000DC7EFF1F70B5284E14
:10125000054630680C46002801D0112070BD254895
:1012600001780520014216D023488068002805D067
:101270000078002802D0C80706D101E0102070BD18
:1012800000F044F8002808D02078032805D0022870
:1012900003D0002801D0122070BD0C20FEF71CFFE7
:1012A0003060002820D00570002141700A222146BC
:1012B000801CFEF7BDFE02F0BBF8040002D001F076
:1012C000AFFA12E00D48007803280ED11D20FFF779
:1012D000A1FF0B490028088007D00B48094A0421C8
:1012E0000078FEF7FFFE00E01324204670BD0000EA
:1012F000AC7EFF1F4F7EFF1FC07EFF1F507EFF1F73
:10130000527EFF1F60EA0000DD7EFF1F10B503F074
:1013100099FE10BD70B50C4605461C2200210948F7
:10132000FEF79EFE084805704470FEF7E1FE054991
:10133000002803D000200870122070BD01220A701E
:1013400070BD0000E0A4FF1F4E7EFF1F70B50F4C64
:101350000025A068002802D0FEF7D0FEA560E06856
:10136000002802D0FEF7CAFEE56009480521007892
:10137000084206D00548103001F024FE01F0F2F9D1
:1013800070BD002001F01EFE002070BDC07EFF1F5A
:101390004F7EFF1FFEB5344D0C46080419D5687802
:1013A000FEF764FE0121C9034C40064600280ED01A
:1013B00001F028FD002807D12878FF2804D0314605
:1013C000FEF7A2FE002802D03046FEF755FE20466A
:1013D000FEBDE007012700280AD0A868002804D035
:1013E0004168002901D00020884720467840FEBD92
:1013F000A00709D56868002804D04168002901D0F9
:101400000120884702202AE060072AD5174E30883D
:1014100000281FD0401E0004000C30801ED101F0B7
:1014200071FA002809D0124807706868002804D0B3
:101430004168002901D00120884701F03DFA694642
:1014400000F01AFE684601F0C7FC1D20FFF7E2FE1F
:10145000308003E004216878FEF720FE042060401D
:10146000FEBD0020FEBD0000DC7EFF1F527EFF1F80
:10147000517EFF1F0149087070470000DC7EFF1F8E
:1014800070B50E4C0B46261D07C6054610220021DE
:101490001846FEF73FFE012803D11021A06804F092
:1014A000A9F9102200212846FEF734FE012803D1B5
:1014B0001021606804F09EF970BD0000E0A4FF1FD9
:1014C000272807D2044A914204D0044A400011520E
:1014D0000020704702207047FFFF00005A7EFF1F68
:1014E000F8B50D4617461D4906461B4A1224C86822
:1014F000954208D100282DD00268002A2AD029461A
:101500003046904723E0144A521C954213D10028DC
:1015100007D00268002A04D02946304690470400CC
:1015200005D03946304601F0F7F8040012D10B48D7
:10153000067047700EE0284603F036FD002809D0FB
:101540000078B04205D139462846FEF7E9FD044649
:1015500000E003242046F8BDFEFF0000B07EFF1F20
:10156000F8B50E46014619481546007805221F4673
:10157000104028D0304326D01548012E1BD0C46817
:10158000002C20D01F2D18D8002D01D0002F14D0F2
:1015900001701F220021601CFEF762FD2A463946B9
:1015A000601CFEF745FD28462570002E07D0611C03
:1015B000FEF7BCFDF8BD8468E2E70220F8BD611CBF
:1015C000FEF7BAFDF8BD1220F8BD00004F7EFF1FE8
:1015D000C07EFF1F014610B50020C90704D0034A92
:1015E0000421034800F0A6F910BD00003C6C021174
:1015F000847AFF1F70B50F4D0F4CA8702946183123
:10160000204600F01DF8002128460B461030CA0085
:1016100084521218491C09065360090EF7D00120A4
:1016200002F0E6FDA87800F023FB044803F032FD49
:1016300070BD0000647AFF1FFFFF0000293A02110D
:1016400070B50A4C0025A04209D1002082008C52BE
:101650005218401CC0B295700228F7D370BD02F03A
:10166000B2F90028FAD00480857070BDFFFF000039
:10167000F8B50E460746069900240798002902D0BF
:101680000B242046F8BD022B01D00D24F9E7117878
:101690005278120289188DB22946814301D08024E4
:1016A000EFE73846F16800F03DF9A842E9D02A4654
:1016B0003846F16800F0A8F90400E2D171892A46A1
:1016C000384600F065F9DCE770B50C46080412D521
:1016D0000A488078FEF7CAFC050008D02878B028B0
:1016E00002D1284602F08CFA2846FEF7C5FC0120FC
:1016F000C003604070BD002070BD0000647AFF1F11
:10170000FFB587B0087A0025109E1C460F46C0061C
:101710000DD5099802F050F9030006D00A22394687
:1017200007989847050035D101E00E2532E038785A
:1017300002281DD17868292201784078120200021F
:10174000081880B2811A90427ED009DC7249401A92
:1017500023D0012821D0022851D0032808D125E028
:10176000012972D0022971D003296DD004296ED0CD
:10177000099802F049F90028D7D00568002DD4D087
:1017800012991198019100903346224639460798E4
:10179000A847054628460BB0F0BD1198002873D124
:1017A000F868017831800278416897E01198002844
:1017B0006AD101203080F868002100782070788993
:1017C000401C80B200F04EF900280FD0318802781A
:1017D0008918891C3180817A61704189090AA17058
:1017E00002784168E01CFEF723FCD3E7308804222E
:1017F000001D30800021601CFEF732FCCAE7119802
:10180000002872D1F86804A9008800900420308074
:10181000009820700098000A6070009800F022F98B
:10182000070028D0F86805906846028A03AB3B4958
:10183000384600F06FF900280FD13B780221384874
:101840007A68FEF7F4FF03E027E031E01DE049E0AD
:10185000002802D13148694688810598007802281D
:101860000CD1059802224168201DFEF7E1FB30886B
:10187000801C308002E06946009888816846808933
:10188000A070000AE07085E72FE0119800282CD1A5
:10189000F968079800F046F804E01198002824D170
:1018A000F8680088022131802070000A607071E7BA
:1018B000F868FEF747FC1199C0B2814210D8814206
:1018C00001D1002206E0129A8918814202D31199AF
:1018D000401AC2B23280F96811980918204682E78E
:1018E000072557E71198002801D00B2552E707215B
:1018F000F868318001782170417861708178A17039
:101900004188090AE1700179217181796171C0888A
:10191000000AA0713EE7000000280000FFFF000061
:10192000BE6C021110B502F04EF8002800D080788D
:1019300010BD00007CB51446050019D0684601951D
:10194000018000F09BF903001DD1002C1BD06D8994
:10195000002D0DD00C20FEF7BFFB00280AD000237D
:1019600003608580094A84609168002904D006E0FC
:10197000022308E0132306E0906004E011460A68A1
:10198000002AFBD1086018467CBD0000647AFF1F66
:10199000F8B50C4C0746207815460E46FF280FD0A8
:1019A0000A20FEF7D5FB01000AD0B1200870002004
:1019B000487008714F80CE800D812078FEF7A4FB1F
:1019C000F8BD0000647AFF1FFFB583B008461F46CC
:1019D00001A90C9E00F046F8050012D068468088E8
:1019E00002F012F800280AD04468002C07D00096B4
:1019F0003B462946059A0398A04707B0F0BD0E2044
:101A0000FBE70120F9E7000070B514460E460546D5
:101A100001F0D9FF002806D13146054801F0D3FF77
:101A2000002803D005808470002070BD112070BD97
:101A3000FFFF000010B50178B0290BD141780029D3
:101A400008D10179122906D01B2903D14088012130
:101A500000F03EFA10BDFF210231095C0129F5D0EA
:101A600010BD0000F0B58C4610494B6819E09F6826
:101A70007C89A04214D39E883119814210D900225A
:101A80000CE011017D186989814205D1604600286A
:101A900000D004802846F0BD521C92B29642F0D885
:101AA0001B68002BE3D10020F0BD0000E87EFF1F83
:101AB000FFB5174881B00A9F446824E000251EE066
:101AC000A0682901461870890199884215D30299A6
:101AD000884212D80498002807D031787068049B97
:101AE000039AFEF7A4FE002807D0002F02D0A068BA
:101AF00040893880304605B0F0BD6D1CADB2A0887D
:101B0000A842DDD82468002CD8D10020F3E70000DB
:101B1000E87EFF1FFEB5174600256A4695800446FD
:101B200040891D4A1E46904208D001AA0092401CDE
:101B3000237880B26268FFF7BBFF05462378022155
:101B400016486268FEF773FE002807D12378022149
:101B500013486268FEF76BFE002801D060890EE032
:101B6000237802210F486268FEF761FE00280DD03D
:101B7000002D03D068468088B84203D0384602F072
:101B800035FC04E06889401E80B200E06089002EC8
:101B900000D030802846FEBDFFFF0000BC6C021163
:101BA000BE6C0211C26C021110B505490870042107
:101BB00000F004FA00F006F8FEF7D8FE10BD0000B1
:101BC000F87EFF1F70B50E4C00200C4B651CFF22E9
:101BD0008100C91800280ED00D80401CCA70C0B208
:101BE0008A700228F4D3074801F0D8FE064803F0B3
:101BF00051FA002070BD0C80EFE70000F07EFF1F5F
:101C0000FEFF00001D4302119D420211F8B50D4672
:101C100014460646694601F01DFD17280CD0002C1D
:101C200006D001221021304603F098F9002803D194
:101C300029463046FEF790FEF8BD000070B50C4610
:101C4000080411D509480078FEF710FA050007D0FE
:101C50000178A02901D101F045FE2846FEF70CFAD3
:101C60000120C003604070BD002070BDF87EFF1FE2
:101C70000149087070470000E87EFF1F70B50546F7
:101C8000008800281DD06868022103784268224835
:101C9000FEF7CDFD002808D168680221037842686C
:101CA0001E48FEF7C4FD00280BD01D4C608800289C
:101CB00005D0012229881204101A814203D901207B
:101CC00070BD022070BD0C20FEF706FA060001D0A0
:101CD00000200AE0132070BD02016B6861880A329F
:101CE0009952491C401C618080B229888142F3D8F6
:101CF0000020306008222946301DFEF799F96068FF
:101D0000002802D1666004E0084601680029FBD182
:101D10000660002070BD0000BC6C0211BE6C021198
:101D2000E87EFF1F0649496806E08A6852898242B8
:101D300001D18888704709680029F6D100207047D2
:101D4000E87EFF1F10B51422114201D0012202E0EB
:101D50004A0604D50022102103F000F910BDC8077F
:101D600001D0002010BD022010BD10B514468A0617
:101D700004D50122102103F0F1F810BD8822114290
:101D80000ED008220A40102103F0E8F800280BD0FA
:101D9000E034617E0029F0D0217E0129EDD103E0FD
:101DA000880701D4032010BD002010BD014610B5E6
:101DB0000020C90704D0034A07210348FFF7BAFDF2
:101DC00010BD0000286C02118C79FF1F70B50D4604
:101DD000164600241D490300FEF73CF9080512349D
:101DE000341934222934152D23D8162200211848FD
:101DF000FEF736F92A4631461548FEF719F922E072
:101E0000022D16D111491088103908801BE0082DC9
:101E10000FD10E48082231460838FEF79FF912E02C
:101E2000012D06D1CA6909493078283107E0012D12
:101E300001D0182407E0CA6B04493078483102F019
:101E40009CFB00E00224204670BD00008C79FF1F3F
:101E5000589EFF1F0B7803700B8802221B0A4370E9
:101E60000B88801C012B02D0022B07D011E08A784E
:101E700002704988090A417004220AE08A780270D7
:101E80004A88120A42700A7982708988090AC170E8
:101E9000062210467047000008B5044B0093134615
:101EA0000A46012102F0AAFF08BD0000551E0211DA
:101EB0001CB50323019200930A46024B122102F043
:101EC000CDFF1CBD1D47021110B5FEF74DF910BD29
:101ED00013B504480078012803D101AA6946FEF72A
:101EE00049F91CBD047FFF1F70B50F490F4A0870E8
:101EF00000210B468C00491CC9B213530429F9D3A5
:101F00000A4C00211034FF260A460A256A43151997
:101F10006B80491CA354C9B26E720329F4D3FEF737
:101F20002FF902F03FFF70BD057FFF1FFCA4FF1FCC
:101F3000082A01D0012070474B780A781B02D2187A
:101F40000280CB788A781B02D21842804B790A79BA
:101F50001B02D21882808A79C97909025118C1807E
:101F60000020704770B50C46080411D50948007868
:101F7000FEF77CF8050007D00178902901D102F026
:101F800073FE2846FEF778F80120C003604070BD5C
:101F9000002070BD057FFF1F70B500280AD1064CD8
:101FA00000252580A581A580A068002802D0FEF725
:101FB000EDF8A56070BD000078A5FF1F072907D0C8
:101FC000052905D0042903D0062901D00220704735
:101FD000044A8B009A181346403B1986203A9074A5
:101FE00000207047FCA4FF1F70B506001BD10E4CEB
:101FF0000025214640310D744D740D76606D00282A
:1020000002D0FEF7C3F865655C200025464334190D
:10201000E80020184068002801D0FEF7B7F86D1CD2
:10202000EDB20A2DF4D370BD88A5FF1F70B50A88E4
:102030000C460546072A07D0052A05D0042A03D0F6
:10204000062A01D0022070BD012103F051F80028BA
:1020500004D02146284602F077FB70BD142070BDE5
:1020600010B5001D80B2FEF797F8002803D00321B9
:10207000C943FEF797F810BD38B50C46050014D0DB
:10208000002C12D00321684603F0B4FB694688781F
:1020900040218006800E0843694688702246284603
:1020A00004F0E0F8050002D006E0022038BD03226B
:1020B0006946E01CFDF7BCFF284638BDF7B58EB079
:1020C0000E9815460E4600282DD0002D2BD0301D21
:1020D000C0B20190FEF700F8040039D000F0F8FB20
:1020E00007463246201D0E99FEF762F8F8B20890B6
:1020F000E0703804000E0B90A0703802000E0A90B9
:1021000060703F0E277000F0DDFB0146102202A830
:10211000FEF74EF806AB214602A8019A03F0F8FF3D
:10212000060003D010E0022011B0F0BD089828701E
:102130000B9868700A98A870EF70082206A9281DED
:10214000FEF736F800F0CAFB2046FDF7D7FF00E0A7
:1021500013263046E8E7000010B5064C2070FEF765
:102160002DF806212078FFF729FF034802F092FF9F
:1021700010BD0000147FFF1F4958021170B50C46B6
:10218000080419D50D480078FDF770FF05000FD041
:1021900003F07AFC002808D109480078FF2804D011
:1021A0002946FDF7B1FF002802D02846FDF764FF5D
:1021B0000120C003604070BD002070BD147FFF1F70
:1021C000DC7EFF1F10B505480078400701D50448A4
:1021D00000E0002003F0E0FC002010BD4F7EFF1F58
:1021E000087FFF1FFFB58DB00F98169C0E46002884
:1021F00015D0002C13D00D9802F0D6FE050011D09A
:102200006178207809024018A178E2780904120662
:1022100089184718286AB84206D3401C04D0022007
:1022200011B0F0BD1420FBE7002E04D02879800700
:1022300001D40120F4E70822002106A8FDF710FFD1
:102240001098001DC0B20190FDF746FF060017D0A0
:10225000301D109A0F99FDF7ABFF0422214630463E
:10226000FDF7A6FF1022A91802A8FDF7A1FF06ABF3
:10227000314602A8019A03F04BFF050002D013E09B
:102280001320CDE7082206A908A8FDF791FF082230
:10229000211D08A8FDF7D8FE012801D0012503E083
:1022A00039460D9801F01EF93046FDF727FF284604
:1022B000B6E70A4610B501460020FDF785FF10BDC0
:1022C000FFB583B00F4603981B4940001646085AD5
:1022D000FFF7C6FE04002AD00125601C2670002FDF
:1022E00003D00699B847401C85B2300610D510219E
:1022F000039802F0FDFE002801D0192613E06219B0
:10230000E9B22046FFF7DAFE06000CD10C35ADB27B
:102310000421684601800194058169460398FFF70E
:1023200085FE060004D02046FDF730FF00E01326AE
:10233000304607B0F0BD0000487EFF1F1FB50A46BB
:102340000021009101910291039101466846FDF739
:102350006FFE0F2269460248FDF76AFE1FBD0000AE
:10236000A27CFF1F70B5634C8CB0A070FDF732FFEC
:1023700006211F20FFF7A4F80121684601740175AA
:102380000721017600218183082202840A228284A7
:1023900001854B21C900818557A003C80191009098
:1023A000022202A95648FDF71BFF042202A90231AE
:1023B0001003FDF715FF6A4606215248FEF784FD1B
:1023C000C32006AA01218000FEF77EFD4D4804AA25
:1023D0000121801FFEF778FD4A4807AA0221401F0D
:1023E000FEF772FD224661201C321621C000FEF766
:1023F0006BFD454E4348717D001F012904D0022921
:1024000006D0032909D15FE03A4A32320D2102E0B9
:10241000384A3F325AE0FEF757FD312005AA012124
:102420000001FEF751FD374808AA0221801DFEF782
:102430004BFD344809AA0221C01DFEF745FD314875
:102440000AAA02210830FEF73FFDC5200BAA02218F
:102450008000FEF739FD274914221E31084643301B
:10246000FDF7E6FD234A152161320020FFF7AEFC9F
:102470002078204D40001035295A0620FFF720F81B
:1024800020784000295A0720FFF71AF820784000EA
:10249000295A0820FFF714F820784000295A09200B
:1024A000FFF70EF80025ED432846FFF77FFC28468E
:1024B000FFF790F8FDF79AFE707D01280FD00228F3
:1024C00006D0032808D00AE00A4A50321121A2E7B8
:1024D0000E48FDF791FE02E00D48FDF793FEFDF773
:1024E00097FEFDF79BFE0121A078FDF7DDFD0CB006
:1024F00070BD0000847CFF1F01020304050600007C
:10250000044000000B030000EC7DFF1F4D70FF1F17
:102510005971FF1F38B50C4608040AD52948807840
:10252000FDF7A4FD002801D0FDF7A6FD0120C003A2
:1025300039E0E0070125002806D022480830FEF7E0
:10254000CDFD2046684038BD200708D56846057097
:102550006A4601211C48FEF7B7FC082023E060060C
:1025600004D51AA000F0C0F840201CE0A00704D554
:102570001DA000F0B9F8022015E0200604D520A027
:1025800000F0B2F880200EE0E00505D523A000F0B1
:10259000ABF8FF20013006E0A00506D527A000F02B
:1025A000A3F801204002604038BD600502D501203B
:1025B000800203E0200503D50120C002484038BD59
:1025C000002038BD847CFF1F050300004255505F8A
:1025D0004F53414C5F4556545F4E4F544946595FE7
:1025E000444154410A0000004255505F4F53414C52
:1025F0005F4556545F424C455F54494D45520A0071
:102600004255505F4F53414C5F4556545F554152C0
:102610005452585F54494D45520A00004255505F8C
:102620004F53414C5F4556545F554152545F545887
:102630005F434F4D504C4554450A000052582054BA
:102640004F0A00007FB504461B4D0300FDF702FD55
:102650000631041F2F312331C12002A98000FEF76B
:10266000F7FA6946087A0870487A4870887A88705C
:1026700000200871C870487BC871087B8871C87ACF
:1026800048716A4608210020FDF7CEFD11E00BA03D
:1026900000F02AF80DE008490C48091DFEF7D8FAA9
:1026A000A9880BA000F020F8FDF7C4FD01E0FDF7BC
:1026B000C7FD6C707FBD0000847CFF1F6164766580
:1026C00072746973696E67210A0000000E030000CE
:1026D000636F6E6E65637465642068616E646C65BB
:1026E0005B25645D210A00000FB410B503AA0448FD
:1026F000029902F00FFD10BC08BC04B0184700009E
:10270000B322021138B5034B00240FCB0094FDF720
:102710009DFD38BD106C021110B50C4602F058FC3E
:10272000002804D040882146FDF7FAFC10BD122095
:1027300010BD0022002913D0002811D0012806D096
:102740004A799206920E4A71032805D007E048792B
:10275000C0221043487102E0402002434A71012226
:102760001046704770B512480025007805210842D0
:102770001BD02020FDF7B0FC0E4C0028A06013D029
:1027800020220021FDF76CFC2020FDF7A5FCE06075
:10279000002804D020220021FDF762FC05E0A0689B
:1027A000FDF7ACFC0020A0601325284670BD00009A
:1027B0004F7EFF1FC07EFF1F002909D0012807D1CF
:1027C000497989098901C02902D0402901D0022014
:1027D000704703207047FFB500200E4608701AE0CE
:1027E0001C5C401CC5B2002C17D02819904214D88C
:1027F0005F5D6D1CEDB2384600F09DFE002806D0EE
:10280000641EE0B2307000998F4202D1581904B0B2
:10281000F0BD4019C0B29042E2D30020F7E70000BB
:1028200010B5044C2068002803D0FDF767FC002099
:10283000206010BDAC7EFF1F70B50E4D840028597E
:10284000002815D0006A002801D0FDF757FC285950
:10285000406A002801D0FDF751FC2859806A002801
:1028600001D0FDF74BFC2859FDF748FC002028510A
:1028700070BD0000B87EFF1F10B5044C60680028D2
:1028800003D0FDF73BFC0020606010BDB07EFF1F51
:102890000100044805D104498978002901D0024883
:1028A000801D7047F0A4FF1F4E7EFF1F01488078F7
:1028B000704700004E7EFF1F0148406870470000CF
:1028C000E0A4FF1F0148806870470000E0A4FF1FDC
:1028D0000148C06800687047E0A4FF1F10B50748B2
:1028E000C0680168491C016005480078FF2803D0D2
:1028F00001218903FDF7D8FB10BD0000E0A4FF1FF4
:102900004E7EFF1F02484068002800D0012070471B
:10291000A87EFF1FFFB581B00F460D9E0A9D03984C
:1029200002F042FB040042D0019800283FD12079F8
:102930001021084320710499490702D50221084358
:1029400001E0FD21084020710B99284608430C99AD
:1029500008433043207902D00421084301E0FB21E1
:1029600008402071002E06D03069102220623146C6
:10297000A018FDF75DFB002D01D0002F05D00B98AE
:10298000002814D0012F08D011E0606A002801D07F
:10299000FDF7B4FB1C21284606E0606A002801D040
:1029A000FDF7ACFB1C210B98FDF756FC6062039809
:1029B000224C8700E05900283ED0002D0FD0006A3D
:1029C000002806D11C20FDF787FBE159002808628A
:1029D00005D0E0591C22006A2946FDF729FB0C9816
:1029E000002810D0E059406A002806D11620FDF7D3
:1029F00073FBE1590028486205D0E0591622406A6D
:102A00000C99FDF715FB002E10D0E059806A0028C4
:102A100006D11420FDF760FBE1590028886205D03B
:102A2000E0591422806A3146FDF702FB0B9B049AA1
:102A30000399019802F06AFD05B0F0BDB87EFF1F52
:102A4000F3B581B0019802F0AFFA050029D00E204D
:102A5000FDF77EFB040024D02620FEF7DBFB0600FA
:102A600000D12E78D0202070002767700B20A07036
:102A70000622E91DE01CFDF7DBFA0198608102984F
:102A8000C1070120002901D0207300E027730299BB
:102A9000890701D5607300E06773F0B22146FDF746
:102AA00033FBFEBD10B581881F4B0124CA1A994221
:102AB00037D011DC1D4BCA1A994219D007DC1C4AC9
:102AC0008A1810D0022A1ED0032A29D11BE0472AD7
:102AD00027D0482A24D124E01300FDF7BBFA0621B1
:102AE0002222222222218068007800F0E5FC08E002
:102AF0008068827841781202891889B2007800F0E3
:102B00003BFD04460DE0094A921E914201D101228B
:102B100000E0002280680178104600F015FD00E01A
:102B20000024204610BD0000532000000A200000B1
:102B3000FADFFFFF70B51A4D1A4A014600262878C1
:102B40001268194C01290CD0002A09D017490978BC
:102B5000490705D50221FDF7A1FA6680FFF760FE5F
:102B600070BD6188002903D0114B1B78002B05D064
:102B7000002AF5D01078FEF723FB70BD3C2902D364
:102B80003C39618070BD0221FDF788FA62887D20A2
:102B9000C000424302212878FDF77AFA668070BDB2
:102BA000DD7EFF1FAC7EFF1FC07EFF1F4F7EFF1F1D
:102BB000517EFF1F08B5418900910389C288818831
:102BC000C07800F0C5FB08BDF0B504468088A1219F
:102BD00089004843304987B009684018FF30FF300A
:102BE0000230A1794167002C54D02C4D6868002830
:102BF00023D006782A480068002804D041680029BC
:102C000001D0002088472146E07908310591FFF77F
:102C1000D3FDE0710246277D638A218AE089019015
:102C200002A88AC0A0880090E0783146059B02F097
:102C3000E3FCE078002802D00DE01A48D9E7E079FB
:102C4000E2896B46059907C3A379A1880122304622
:102C500002F058F9E0706868002811D0FFF70CFE08
:102C6000287800280CD06978FFF756FD002807D097
:102C7000E078A2880346297802F0EBFC0020287057
:102C8000A0881721FDF7D0FFA088FFF785F9A0885D
:102C9000FFF7AAF907B0F0BD3409FF1FB07EFF1F90
:102CA000E07EFF1F4E7EFF1F70B504460026808821
:102CB00002F07AF9002803D00678A08802F0FCF927
:102CC000144D2878002808D0864206D16978FFF78D
:102CD00023FD002809D000202870002E05D0A379FC
:102CE000A288A078314602F0B4FCA088094A81008D
:102CF00008325158002901D0FFF79EFDA088172106
:102D0000FDF792FFA088FFF747F9A088FFF76CF95D
:102D100070BD0000B07EFF1F70B58288294D012470
:102D2000531B2949AA4242D019DC284D531BAA4201
:102D300018D00BDC264BD21826D0254B1033D218D6
:102D40001ED0032A17D0042A39D10BE0012B09D059
:102D5000022B07D0032B21D0042B30D11AE0433BA8
:102D6000072B2CD8496800292AD00968002927D0C8
:102D70008847044624E08068007800F0ADF81FE042
:102D8000806800F001F9F4E78068411C007800F0E9
:102D9000D9F8EEE783681B78002B11D089680029E9
:102DA0000ED00B6808E0014610469847E1E7094954
:102DB0000968002904D04B68002BF4D100E00024FE
:102DC000204670BD0E200000DC7EFF1F08200000A2
:102DD000F7EFFFFFBC7EFF1F10B5094CA17800295B
:102DE0000CD001460622A01DFDF722F9A11DA078F6
:102DF000FFF79FFCA01DFDF735FA10BD002010BDA8
:102E00004E7EFF1F1CB52F49037801240A68912BC1
:102E100002D0A22B2ED13EE04178052909D00E29FF
:102E200004D00F2908D03E2924D115E0FFF774FF04
:102E300010E0FFF739FF3AE001468088224B012479
:102E4000C31801D0062B15D1002A30D05268002AB1
:102E50002DD0904704462AE081780124032917D019
:102E600004DC012911D0022904D105E015291ED066
:102E700016291CD000241AE014498968002916D0AC
:102E80004968002913D0884711E0FFF79DFE0EE046
:102E9000FFF790FE0BE00E490978042909D0002ABB
:102EA00005D05268002A02D001460A4890472046C1
:102EB0001CBD00216A46118001794088FEF7ECFFB5
:102EC000F5E70000BC7EFF1FF3DFFFFFDC7EFF1F86
:102ED0004F7EFF1FFFFF0000F8B5164F0646BD1FCF
:102EE0002878FF2814D00A20FDF732F904000FD00B
:102EF000D020207066700820A070A878E0700622AC
:102F00003946201DFDF794F821462878FDF7FCF896
:102F1000E87801280DD108480068002803D08068AF
:102F2000002800D080470648044A04210078FDF7B5
:102F3000D9F8F8BD547EFF1FE07EFF1F60EA000055
:102F4000DD7EFF1F70B500240546002805D100294D
:102F500003D006220B48FDF76BF80A4810380178B9
:102F6000012907D10124002D06D000210170284637
:102F700000F0CAF9204670BD02210170FDF778F912
:102F8000F8E70000F0A4FF1F10B50024002813D0BC
:102F900002780B49002A03D14288CA8202790A7654
:102FA0000A78022A08D102780124002A06D00022D9
:102FB0000A70007800F0A8F9204610BD0322F7E758
:102FC000E0A4FF1F0149486070470000DC7EFF1F3E
:102FD000F8B5774C87780146002507266079A279F5
:102FE0003B00FDF737F80805361A37375F94C736C8
:102FF000487800285CD16E4806223C30C91CFDF799
:1030000017F80120A0716A4B01464233627860795B
:10301000FEF7A6FA00284BD1A2E00F464978002916
:1030200046D1F978002906D0624BA2780021FEF73C
:1030300097FA78700AE0022A0BD00121FDF73AF8DE
:10304000002803D101216079FDF72EF87878002857
:103050002ED1F8BD497800292AD1032F09D0A289A1
:10306000002A0CD0217800290AD00121FDF710F8A0
:1030700006E0052A01D0022012E0062010E02570AB
:10308000A079062802D0042802D008E0052007E035
:103090000120207001466079FDF706F860E003200A
:1030A000A0715DE048780F46002803D031282CD06D
:1030B000A67155E03E480622391D3630FCF7B8FFB0
:1030C0007889E081B8892082F88960820520A07122
:1030D000A28A002A03D002216079FCF7D9FFB889BF
:1030E000E083F8892084388A6084E07801280AD156
:1030F0001F20FEF78FF87D21C900484302460421B6
:103100006079FCF7C5FF25702AE02570C7E72848DD
:103110000E46062200213630FCF7A2FFE583258407
:10312000658404216079FCF7B9FF08216079FCF718
:10313000B5FFB079082808D00320A07120780028B6
:1031400005D06079FEF73CF807E00420F5E70120A0
:10315000207001466079FCF7A7FF0020C043E081A2
:10316000606A002800D174E701680029FBD0A079CB
:103170008847F8BD0D460821FCF790FF687829467E
:103180000028F6D1E888E083288920844889608473
:1031900004216079FCF78EFF0028EAD1A06A00289C
:1031A000E7D00368628C218CE08B9847F8BD000063
:1031B000007AFF1F6E9EFF1F10B50178224C9129E7
:1031C00006D0A22926D0D02901D1FFF701FF10BDDA
:1031D00041780E29FBD181881C4A91420FD1816828
:1031E00003200856A1790529F1D17F28EFD0616A23
:1031F0000029ECD049680029E9D0884710BD144A5D
:103200009142FBD1806883784278017811A0FFF762
:103210006BFA10BD41791329FBD10089012802D135
:103220002079022808D00520FDF7F4FF0246082186
:103230006079FCF72DFF10BD08216079FCF72EFFA7
:10324000FDF768FF10BD0000007AFF1F05140000A5
:10325000222000005B48434920444C455D25642002
:1032600025642025640A00007CB5154C0546E08BDA
:10327000E18A88420AD3218B884207D8208C618B4F
:10328000884203D1608CA18B884217D00520FDF7BE
:10329000C1FF0646E18A68460180218B4180618B2F
:1032A0008180A18BC18062796946E089FEF700FECA
:1032B0002571324608216079FCF7EAFE7CBD0000EA
:1032C000007AFF1FF8B507460E46084601F06CFE6F
:1032D000040018D02620FDF79DFF050000D12578B9
:1032E0000620FCF735FF04000DD006220021FCF774
:1032F000B7FED020207067700E20A070A680E8B2C4
:103300002146FCF701FFF8BD70B50F4D0646287841
:10331000FF2818D00E20FCF71BFF040013D0D0208C
:10332000207066700020A07006220849E01CFCF79F
:103330007FFE06481038C18A6181007E20732146D5
:103340002878FCF7E1FE70BD4E7EFF1FF0A4FF1F42
:10335000FFB581B01E4617460D460C20FCF7F8FE5F
:10336000040013D0284601F01FFE002810D000787A
:10337000D0212170019961700721A170A580E7809B
:1033800026810A9961812146FCF7BEFE05B0F0BD99
:103390000048ECE74E7EFF1F70B50D4D04462868CF
:1033A0000E46002812D00620FCF7D2FE010009D0FC
:1033B000D02008704C70032088708E8028680078B8
:1033C000FCF7A2FE002C01D0FFF72AFA70BD000026
:1033D000AC7EFF1FFFB581B01F460E46084601F0C8
:1033E000E3FD050022D01020FCF7B2FE04001DD042
:1033F00010220021FCF734FE2620FDF70BFF0028E9
:1034000000D12878D0212170019961700F21A1701D
:10341000A6800399217267720A99A1720B99E172D1
:103420000C99E160C0B22146FCF76EFE05B0F0BD1C
:10343000F0B51F4D85B02868002837D08778FDF794
:1034400065FF002805D00A20FDF7E4FE04900B205C
:103450000EE001F031F9002805D00620FDF7DAFE74
:103460000490072004E00820FDF7D4FE0490092012
:10347000FDF7D0FE04460F480078002814D001263E
:103480002968C878091DFFF754F929686D46CA7A7A
:103490008B7A091D0BC5039233463A4621460498A0
:1034A000FCF7ECFE05B0F0BD0026E9E70120F9E7E6
:1034B000AC7EFF1F507EFF1F10B509490968002927
:1034C0000CD0002805D101204870FCF7F9FD002838
:1034D00002D00021FFF760FF012010BD002010BDC9
:1034E000AC7EFF1FF8B50C4601F05EFD020021D056
:1034F00026201462FDF78EFE05062D0E00D11578EC
:103500009679D01D00901020176AFCF721FE040068
:1035100010D0D0202070002060700920A070E670CC
:103520000622201D0099FCF783FD21462846E7600E
:10353000FCF7EAFDF8BD411E152903D9FF2801D08B
:10354000002070470120704770B50A4E054630785C
:103550000C46FF280DD00420FCF7FAFD010008D02E
:10356000D02008704C7002208870CD703078FCF745
:10357000CBFD70BDC07EFF1FF3B5284D81B028681C
:1035800000284AD04078264E012803D03078002801
:1035900031D041E001F090F8224F002813D00120F3
:1035A000FDF738FE0446412808D91F4A0221387821
:1035B000FCF798FD1D483C3C44800EE07D20C00097
:1035C0002246424303E00020FDF724FE0246002A83
:1035D00003D002213878FCF75BFD2968022048708F
:1035E0003078002802D00020307015E00299019850
:1035F000FFF7D2FE10E00320019CFCF7A9FD0100BB
:1036000008D0D02008704C7004208870286800789A
:10361000FCF77AFDFFF704F90120FEBDAC7EFF1F29
:10362000517EFF1FDD7EFF1F60EA0000C07EFF1F8E
:10363000074A00218B00D35A834202D188008018A8
:103640007047491CC9B20229F4D30020704700001A
:10365000F07EFF1F10B50C46FFF7EAFF00280DD0E3
:10366000002C00D020608078FE2803D0FF2803D0F3
:10367000162010BD172010BD002010BD022010BD67
:10368000FFB581B0FF201E46174605300A9DFCF7A6
:103690005FFD04001BD0B02020706770029860802E
:1036A0002671002D06D02046FC2229460830FCF762
:1036B000BFFC05E02046FC2200210830FCF7D0FCCE
:1036C00021460198FCF720FD002005B0F0BD132035
:1036D000FBE700000548172202800988172901D25C
:1036E0000420704701800020704700004A7EFF1FC1
:1036F0000020704708B50A460888498888420BD8D8
:10370000002809D0002300931379521DFEF7D0F949
:10371000002803D0002008BD012008BD0A2008BDF4
:10372000F3B50D4608884988002687B0814215D335
:10373000002813D0002769460F710097002369887D
:103740001A46FEF7B5F904004FD068460079002804
:1037500007D069464979012925D008E0012009B040
:10376000F0BD217802291BD002216A465171122234
:10377000504301AA6189801841806846007912236C
:10378000584380181022001D6168FCF751FC684600
:103790000079401C0106090E684601711FD11AE02C
:1037A00001216A465171217802291ED1820001A8A7
:1037B0006189121851806A46127961689200101866
:1037C0000222001DFCF734FC6A461079401CC0B28E
:1037D0001071052803D261890A48814200D101266F
:1037E0006089401C80B2002EA7D06846007900286E
:1037F00005D001A90798FDF795F80020AFE70A204A
:10380000ADE70000FFFF000038B50C460888498886
:10381000884215D8002813D02379621D02210B4855
:10382000FDF705F800280DD000200090237961886D
:103830002088621DFEF73CF9002805D0002038BD25
:10384000012038BD102038BD0A2038BDBC6C0211E3
:1038500008B50A460888498888420BD8002809D04C
:10386000002300931379521DFEF722F9002803D09C
:10387000002008BD012008BD0A2008BDF8B50025BC
:103880000F4606460C46E03717E06800205A002134
:10389000FEF7E8F8002809D0017A3046FEF752FA20
:1038A000002808D06900615A2180F8BD6800205ABC
:1038B00020800120F8BD6D1CEDB2B87DA842E4D88F
:1038C0000020F8BD10B5044608880021FEF7CAF8AC
:1038D000002804D0017A2046FEF734FA10BD0120FA
:1038E00010BD000030B585B005466946FDF78EF87D
:1038F000040026D168468078C1071E4809D0826836
:10390000002A04D0688869469047044619E00624D6
:1039100017E04268002A05D068886946904704008D
:1039200001D10EE0062468464078002809D1684697
:10393000817801730021C1810474688803A9FCF7B0
:10394000B1FFA868002801D0FCF720FC002C05D1AD
:1039500068468078122807D01B2803D06888012188
:10396000FEF7B6FA05B030BD684640780128F5D1BB
:10397000F8E70000F87EFF1F70B505460C46088882
:103980000021FEF76FF8002805D0017A224628466C
:10399000FEF7EBF970BD012070BD000001494860E1
:1039A00070470000F87EFF1F10B50446801C00F031
:1039B00029FDFF20E07010BD10B500F025F80028AB
:1039C00000D0806810BD00229300CB5A834202D100
:1039D000900040187047521CD2B2022AF4D3002043
:1039E00070470000074A0021CB00D35A834202D11E
:1039F000C80080187047491C0906090EF4D0002041
:103A000070470000747AFF1F0649896805E08A88BC
:103A1000824201D18868704709680029F7D10020E7
:103A200070470000647AFF1FF8B50746012906D0E9
:103A3000022924D1012101F05BFB00281FD1384667
:103A4000FFF7D0FF050015D000240D4E0CE0F82044
:103A50006968604308180188002908D0F82200210D
:103A6000FCF7FEFA641CE4B270788442EFD30020C5
:103A7000C0432880024938461831FDF7E1FDF8BD02
:103A8000647AFF1FF3B5064683B00830019000202A
:103A900000907088FFF7A6FF07002FD0002523E0D5
:103AA000F820796868430C182188002920D00198F3
:103AB000007801280FD160880090A3887088A21D2B
:103AC000FDF782FF0090002805D0019900200870C2
:103AD000049821880180F82200212046FCF7C0FAD2
:103AE00000206D1C2080EDB2074840788542D7D376
:103AF0000020C04338800098002802D17088FCF76D
:103B0000FBFE009805B0F0BD647AFF1FF3B50546D3
:103B1000374C064685B00835F62200212046FCF7D2
:103B20009FFA03A800902B79698828886A1DFDF701
:103B3000BFFF074645E070882E4A4100515C2E4B7E
:103B4000C91FC9B20093002202910192284B694615
:103B50008A89F63B3946FDF7D3FD002812D1264865
:103B60002989001F828891420CD121492846F639C3
:103B70000A30FCF769FA002804D021787889890096
:103B80000919488068468289698804AB3846FDF780
:103B9000C1FF07462078810009194A88002A10D001
:103BA000002F05D06A46128A401C20708A800AE0E5
:103BB00002060021920DC9431219401C2070918009
:103BC00006E0002F04D00D48217800888142B2D34E
:103BD0002078002806D070882146FCF795FE00204A
:103BE00007B0F0BD0698298801800A20F8E7000098
:103BF0009CA0FF1F487EFF1F687AFF1F447EFF1FA7
:103C0000F0B585B0044600206946888120790E28E9
:103C100069D00FDC082823D004DC022813D0062842
:103C200018D118E025460835484F0A281DD00C2821
:103C300010D138E010285BD012285ED0162861D051
:103C4000182877D163E0434841490088088060889C
:103C5000FCF732FE6EE003A92046FFF757FF5AE05B
:103C600003A9204600F076F955E0288804A9FDF75D
:103C7000F9FE010015D06088354E4200BA5C002381
:103C8000521ED2B20193029200966A46B31C128A67
:103C9000FDF736FD00281DD160883146FCF7BAFFDC
:103CA00048E0012016E0288804A9FDF7DBFE0100AA
:103CB000F7D060886B884200BA5C254E521ED2B2A3
:103CC0000193029200966A46B31C128AFDF718FD12
:103CD000002803D029886A4691811CE0608831461B
:103CE000FCF768FF26E003A9204600F0D3F912E0B4
:103CF00003A9204600F082F80DE003A9204600F059
:103D000039FA08E003A9204600F028F803E003A9E7
:103D10002046FFF7B7FE00280CD06178142909D09F
:103D20000B4922790A706A4692894A800871608834
:103D3000FCF7B8FD2046FDF77DFE0748C168002965
:103D400001D02046884705B0F0BD0000487EFF1F27
:103D50009CA0FF1F427EFF1F647AFF1FF8B5044638
:103D60000F460546083400896946FDF77BFE0600CC
:103D70003AD0307A80060ED568460088FFF71CFEE0
:103D8000030006D06888122231469847060002D008
:103D90002BE00E2629E06E883046FFF723FE010057
:103DA00005D11448FFF71EFE01000ED00E80124A06
:103DB0000020527807E0F8264B6846439B5B002BB7
:103DC00005D0401CC0B29042F5D309260DE04968E9
:103DD000F822504308182146FCF72AF90026688883
:103DE0002146FCF7DDFE02E00126208838803046BF
:103DF000F8BD0000FFFF0000647AFF1FF3B58BB031
:103E000000200B9E0746039004A800903246337BA7
:103E1000718930894C4C0D320836FDF749FE054654
:103E200078E00B98297A4088FDF78CFF070003D0D3
:103E30000C98698901806FE00B9844494088444B95
:103E40004200895C0093891FC9B20022029101924D
:103E50003D4B69460A8AF63B2946FDF751FC0700AF
:103E6000E6D10398002833D039486188001F808844
:103E7000021D914253D1039909180B9840884200C2
:103E80003248805A801F814249DC0399A87A611820
:103E9000087103986989401C80B22218090A401CE5
:103EA000117180B203906846028A718807AB284678
:103EB000FDF730FE050011D003986946898B201864
:103EC000017103986946401C898B80B2090A0CE095
:103ED0001F48001F8088001D6080D6E70398FF21DF
:103EE000201801710398401C80B222181171401CE7
:103EF00080B217490390091F8A8813492018F639A0
:103F0000001DFCF795F812490398091F898840188D
:103F100080B20390002D84D1039800280CD06188D2
:103F20000398FCF7B1F920700B9821464088FCF704
:103F30004BFE00200DB0F0BD002F00D10A270C98D9
:103F4000318801803846F5E79CA0FF1F487EFF1F9F
:103F5000687AFF1FF3B50746044608378BB0494817
:103F60000490388800252E4605906AE007A8009046
:103F70003B7979887A1D0598FDF79AFD089000280D
:103F800052D0408905900898017A6088FDF7DAFEE2
:103F900006005DD160883C494200895C3B4B091FAB
:103FA000C9B20093002202910192364B69468A8B76
:103FB000F63B0899FDF7A4FB060049D1002D36D049
:103FC000049841883148001F8088801C814241D17B
:103FD0002E4B1B1F98882918608842002A48805A57
:103FE000001F814220DC0898817A049840190171F1
:103FF00008996D1C4989E8B20A0A049909180A71DE
:10400000401CC5B2194604988A881E494019F639E1
:10401000001DFCF70DF81D481D49001F00792818E8
:10402000C5B20598884209D1002D13D123E0174865
:104030000499001F8088801C4880C9E7401C80B21A
:104040000590608841001048405A001FA8428DDA50
:10405000002D0ED0049841882846FCF715F901463A
:104060000498017060880499FCF7BCFD00200DB035
:10407000F0BD002E00D10A260C9905980880304624
:10408000F5E700009CA0FF1F487EFF1F687AFF1F16
:10409000FFFF0000F3B506460446002085B0324D10
:1040A00000900836288007463046E030049048E00B
:1040B0007800305A03A9FDF7D5FC01001AD06088BA
:1040C0002B4B844642002948805C0093401EC0B2BE
:1040D000002202900192244B68468289F63B60469A
:1040E000FDF70EFB0090002807D07800315A0698A3
:1040F000018035E001200090F7E71D492888091F5D
:104100008988421861884B001849C95A4B1E9A4247
:1041100004DD081A1649091F401E88802988A81C3A
:1041200008181349091F8A880F49F639FBF780FFE1
:104130000F482988001F8088081828807F1C049851
:10414000FFB2807DB84207D96088298842000748BD
:10415000805A401E8142ABDB60882946FCF750FD47
:10416000009807B0F0BD00009CA0FF1F487EFF1F15
:10417000687AFF1FF3B5054683B004460835008909
:1041800001A9FDF76FFC2746E8370646002822D034
:10419000307A80060ED568468088FFF70DFC030054
:1041A00006D06088122231469847060002D013E0FC
:1041B0000E2611E0002000906B88298860882A1D57
:1041C000FDF702FC060007D1787E002807D1608841
:1041D000FCF736FD03E00126049829880180787EEB
:1041E000002802D0002005B0F0BD3046FBE70000FB
:1041F000F8B504460246F820424319480025074610
:10420000457010377868002807D00020C100C91910
:10421000401C00064D60000EF8D0124E00213046C2
:10422000FBF71EFF002001466143C9B2F82251434B
:104230008B190B49C200103152180021536005E060
:10424000F8274F435368491CDD53C9B2A142F7D345
:10425000401C0006000EE6D0014844700020F8BD66
:10426000647AFF1FAE9EFF1F7CB50C78069D022C62
:104270000FD14C682678647824023419064EA4B213
:10428000F44206D10224DBB200950194FDF7F0F967
:104290007CBD01207CBD0000FED6FFFFF8B50546C1
:1042A0001D48854223D0461C002921D001292BD04E
:1042B00002291CD10121284600F01AFF002816D13E
:1042C0002846FFF7B5F9040011D0A078FF280ED0DA
:1042D000FE2807D000200090E0781E2314222946F3
:1042E000FFF7CEF92046FFF75FFBFF20A070F8BD77
:1042F0002846FFF79DF90028F9D13046FFF798F9D5
:104300000028F4D00580F8BD2846FFF791F9040095
:10431000F9D02680D9E70000FEFF0000F3B50C4677
:104320008978C1B01E2914D02E4D2878FF2829D0B5
:10433000182927D84808C2002B481218803A976FCE
:10434000002F1FD0D06F00281CD02078002817D154
:1043500013E04198FFF76CF905000BD000200090A6
:10436000A378E87800224199FFF78AF906462846A3
:10437000FFF71AFB304643B0F0BD6278012A03D143
:10438000122901D00620F6E702AE0096A3886178D4
:10439000A268B8470028EED1A0784008C1001248B2
:1043A00008188038C26F02A94198904700280FD0A2
:1043B00061780029DFD1A27869460A7008716846E1
:1043C0000189418069464198FCF76CFA0020D2E7E8
:1043D000A378042BCFD00096002228784199FFF7CC
:1043E0004FF9C8E7E87EFF1F586C021100B503467D
:1043F000FDF798FC002803D0C018401E80B200BD15
:10440000184600BD10B5040008D02078FF2805D05C
:10441000FE2803D0FBF73EFFFF20207010BD0000F8
:10442000F7B506460F461020FBF756FE054610204E
:10443000FBF752FE0446002D3AD0002C2DD010225E
:104440000021FBF70DFE2A462146304601F050F9C7
:10445000060023D12878000604D43946284600F007
:1044600043FD08E02146284600F03EFD3A4611494A
:10447000204602F0C1FB3878000604D43846029981
:1044800000F032FD0AE02146384600F02DFD0949D2
:104490002046029A02F0B0FB00E013262846FBF704
:1044A0002DFE002C02D02046FBF728FE3046FEBD34
:1044B0001326F6E7E26C0211F8B5069800271D46B0
:1044C00014460E46002801D00B20F8BD307800219C
:1044D000022801D019804DE070680278407800020F
:1044E0001018152280B25202801A0300FBF7B2FDA9
:1044F0000504121F1A254100F068FBF723FEC2B223
:104500000798824200D902462A80F1682046FBF7CC
:104510008FFD30E0F0680221008829802070000AB9
:10452000607028E0062028800246F168EEE701204E
:104530002880F068007820701DE0F068002816D010
:1045400008212980017821700188090A6170817829
:10455000A1704188090AE170017921718188090AF5
:1045600061718179A171C088000AE07103E029803E
:1045700001E0298001273846F8BD10B50B78840783
:1045800002D50224234301E0FD2423400B700307DE
:104590000B7802D50824234301E0F72423400B7055
:1045A00083060B7802D52024234301E0DF24234037
:1045B0000B700A21084201D1810603D510780C2125
:1045C000084304E0002803D11078F321084010705C
:1045D00010BD0000FFB581B0087800240A9E1F4678
:1045E0000D4602280FD1686801784078000208184B
:1045F000152180B24902401A09D0012829D0022889
:1046000048D003283CD00124204605B0F0BDE8681E
:10461000FBF798FDC0B2864205D8F0190090152826
:1046200003D90D24F0E70724EEE7E8683A4680193D
:104630000399FBF7FDFC0098EA6880B20021115451
:104640001C4840680028DFD001680029DCD0002029
:1046500012E0002E12D1022BE3D10399E8680A7808
:104660004978090251180180124840680028CBD0CF
:1046700001680029C8D001208847C5E70B24C3E79B
:10468000002EFBD1062BCCD10622E8680399FBF75C
:10469000CFFCB9E7002EF1D1012BC2D103980078ED
:1046A000002803D0012801D08024ADE7E968087014
:1046B000AAE700007C79FF1F08B509488368002B32
:1046C0000CD01A78694601205B1CFEF784F800289C
:1046D00004D00078C00701D0012008BD002008BD2B
:1046E000C07EFF1F10B503460B4A00200A2141433C
:1046F00089184988002905D0401CC0B20328F5D389
:10470000002010BD0A210024414354540446403483
:1047100088184480037210BD0CA5FF1F0A78027030
:104720000A88120A42708A7882704A88120AC27015
:104730000A7902718A88120A42718A798271C9885B
:10474000090AC17108207047F8B505460C4648684B
:104750000421FBF727FD217A017021890346401CC3
:10476000090A0170217841702188090A8170207A34
:10477000001DC2B2FB2A36D81C48854215D114460A
:104780001E460C20FBF7E4FC01000CD090200870C2
:10479000022008714D808E601548CC800078FBF7B0
:1047A000B3FC00271DE013271BE05C201149684380
:1047B000441826464036307E002806D008465C3035
:1047C000416A0727491C41620BE02146284600F058
:1047D00095F90746307E002803D121462846FBF78D
:1047E0005FFD3846F8BD0220F8BD0000FEFF000066
:1047F000057FFF1F88A5FF1F10B50A4A00210A2365
:104800004B439B185C88002C06D01B79834203D154
:104810000A204143881810BD491CC9B20329EED3B0
:10482000002010BD0CA5FF1F0021418001707047C2
:1048300070477CB504000FD0608800280CD000259C
:10484000009501951323E188207A172200F028F8BB
:10485000FF206072658025707CBDF8B5074615465F
:104860000E461020FBF774FC040017D0A020207027
:10487000002060706680002D05D00C222946201D86
:10488000FBF7D6FB04E00C220021201DFBF7E8FB20
:1048900021463846FBF738FC0020F8BD0120F8BD62
:1048A000FFB581B01E46174614200B9DFBF750FC48
:1048B00004001AD0A22020706770029860800A98C5
:1048C00020716671002D06D020460C222946083042
:1048D000FBF7AEFB05E020460C2200210830FBF779
:1048E000BFFB21460198FBF70FFC05B0F0BD022A83
:1048F0001CD34B780A781B02D21892B20280012A8C
:1049000002D0022A06D00FE08A78C978090251182D
:10491000418009E0CB788A781B02D21842800A795C
:1049200049790902511881800020704701207047A1
:10493000F8B506464D88002070600A790C46022AB8
:1049400012D0290160480091415A002906D0009BED
:104950001F18BB68002B01D0012A7DD05A486C304B
:104960004169491C4161A9E0E288042A43D3A06857
:10497000437801781B02C91889B20091C378817805
:104980001B02C9188FB2017AC079000208184F497A
:1049900048800099091D8A4220D1072F13D0052F86
:1049A00011D0042F02D0062F25D10CE04648290152
:1049B000405A002807D02846FDF7EEFA42486C30EE
:1049C0000169491C01610098308137800321C94386
:1049D000A068FBF7E7FB70600020F8BD072F18D038
:1049E000052F16D0042F07D0062F12D036486C3072
:1049F000C168491CC16064E033482901405A00285D
:104A000007D02846FDF7C8FA2F486C300169491CC9
:104A100001612D492D01002048536E180098B08186
:104A2000B7800098FDF71CFBB060002818D0032168
:104A3000C943A068FBF7B6FBE2880146224F121F6C
:104A4000B068FBF7F5FA785BE1884018001F7853EF
:104A500038466C30016800E008E0491C016030E035
:104A600019486C308169491C81612AE0E288891803
:104A7000009A89B28152BA8991421AD80546B8681B
:104A8000E2884018801AA168FBF7D2FA0098295AE8
:104A9000B889814215D13081B8883080B86870609B
:104AA00000990020685208486C304168491C4160F8
:104AB00007E005486C308168491C81602846FDF795
:104AC0006BFA0120F8BD000078A5FF1F167FFF1FBD
:104AD000022A01D0012070470A784978090251184A
:104AE0000180002070470A7802704A7842708A7804
:104AF000C97809025118418070470000FFB50C4683
:104B000007463D49A1208000096878434018FF30DE
:104B1000C130067E89B015463846FBF717FF001DE9
:104B2000B04204D23846FBF711FF001DC6B2B542B1
:104B300007D82A46002138460C9BFBF7B7FB0DB07F
:104B4000F0BD31462846FBF79FFB274640373874B7
:104B50000C99616501467143691AC9B202910C99B9
:104B600004910299002901D0401C3874002523E0EB
:104B70000299002904D0401EA84201D1084600E055
:104B80003046E900059103916054FDF79DF90399C2
:104B90000919486000281BD00599625C0499FBF74D
:104BA00047FA0598215C0498081804901348C169D5
:104BB000491C6D1CEDB2C161387CA842D8D8606D2B
:104BC000002803D0FBF7E2FA002060650020B6E77A
:104BD000002038740646606506E0F0000019406861
:104BE000FBF7D4FA761CF6B2AE42F6D30348C16A9C
:104BF000491CC1621320A2E73409FF1FE4A5FF1F6F
:104C0000F7B586B016460D464878FFF7F5FD040067
:104C100010D0002727712878012802D0132809D145
:104C200005E06A88314602A8FFF761FE0AE02078B5
:104C3000032802D0002009B0F0BD6A88314602A8DE
:104C4000FFF746FF0646204600F046F902A801900D
:104C500000972B78207A32460699FFF721FE2046EE
:104C6000FFF7E2FD3046E6E7FEB50446468801461A
:104C70006846FFF75DFE0546019800282FD068467C
:104C80000088052806D0042809D0062807D0072860
:104C900005D026E06946304600F030F821E081007A
:104CA0001548081801464039098E002919D02038C6
:104CB000807C6A463146FFF7D0FD002811D1684656
:104CC0000088042803D001213046FDF701F9012DA9
:104CD00004D1A068002801D0FBF758FAFEBD012DD1
:104CE00004D1A068002801D0FBF750FA012130461A
:104CF000FDF7EEF8FEBD0000FCA4FF1F30B5054631
:104D0000088987B00C46042817D302A86168FFF70A
:104D1000EAFE68464089172837D82189001D81425C
:104D20001ED16846007AC10709D0626802A92846E8
:104D3000121DFFF765FF002812D107B030BD616872
:104D4000091D122805D0002069460880497A6A4664
:104D500022E06846428903A8FDF7EAF8002803D05C
:104D60002846FFF765FDE8E70D4881880029E4D073
:104D70006946497A03AA0192009169460B7A8079C3
:104D800000222946FFF78CFDD7E701216846018004
:104D900017214180417A6A462846FDF77DF8CCE725
:104DA000FCA4FF1F70B5144C00262680A681A680A7
:104DB000A0683546002802D0FBF7E8F9A5600E4C44
:104DC000103420464030057445740576606D002827
:104DD00002D0FBF7DBF965655C20002546433419FA
:104DE000E80020184068002801D0FBF7CFF96D1CBF
:104DF0000A2DF5DB70BD000078A5FF1FFFB589B057
:104E000015460E461720129FFDF72AF9040021D0FF
:104E1000684606704570002F03D0201D0C99B847D6
:104E200000E0002069464880267065704888A070C0
:104E3000010AE170052269468A82001D0694888372
:104E400005A90998FFF780FC050004D02046FBF770
:104E50009DF900E0132528460DB0F0BDFFB581B0E7
:104E60001E46054601210A9F0B9C00F041F90028CF
:104E700011D02046FFF736FC00280AD0C580044632
:104E8000077012484178491C0A06120E427004D07D
:104E900005E015250FE014250DE001224270227176
:104EA00000962846039B0299FFF7A8FF050005D04E
:104EB0002046FFF7B9FC284605B0F0BD2346214641
:104EC000034A09330348FBF7F7F9F4E7167FFF1F9E
:104ED000307500003348021110B50446407AFBF7E4
:104EE000D9F9FF20607210BD10B500240F22835C39
:104EF0005B0023438B54835C521EDC0952B2002AB0
:104F0000F5DA10BDFFB581B01E4617460D460846BE
:104F100000F04AF8002802D0112005B0F0BD0E487C
:104F200000F042F8040015D00A98A0710622E01D96
:104F30000B99FBF77DF865802771667101982070E9
:104F4000002060620C98E0810021284600F0CAFA37
:104F50000020E2E71520E0E7FFFF000070B51446EF
:104F60000D46064600F020F800280BD0416A007973
:104F700000290CD0C20611D580070AD4002C08D015
:104F8000052070BD074886420AD0142070BDC006B7
:104F9000F6D5887EA84203D20C2070BD0F2070BDCC
:104FA000002070BDFEFF0000084A002128234B436B
:104FB0009B185B88834203D128204143881870479F
:104FC000491C0906090EF1D0002070472CA5FF1FCF
:104FD00030B50B4C0B4B002128224A43D5186D8865
:104FE000A54206D09A5C824203D128204143C818CA
:104FF00030BD491C0906090EEED0002030BD00006E
:10500000FFFF00002CA5FF1F10B500200B4C0C4B20
:10501000014628224243D2185480401C11710006D8
:105020005162000EF5D0064A002028328300401C51
:10503000C0B2D1500528F9D310BD0000FFFF000019
:105040002CA5FF1F0020074A014628234B439B182D
:105050001B79002B01D0401CC0B2491C0906090E67
:10506000F3D070472CA5FF1FF8B505000DD0074FF2
:10507000074E00242820604380194188B94200D09F
:10508000A847641C2406240EF4D0F8BDFFFF0000DE
:105090002CA5FF1F074A00218B00D358002B05D0F9
:1050A000491CC9B20529F7D3132070478900505015
:1050B0000020704754A5FF1F10B5FFF775FF0400CF
:1050C00013D06088012100F00DFA606A002801D039
:1050D000FBF714F8282200212046FAF7C1FF002030
:1050E000C04360800020207110BD022010BD000070
:1050F00010B50C460649884206D0FFF755FF002838
:1051000004D00079204201D0012010BD002010BD44
:10511000FEFF0000F7B5064686B00020049003901D
:10512000079810E125290AD00499002901D0039895
:1051300002E0049000200390401C039000E10398DB
:10514000002805D081B20498B04700200490039055
:1051500000250422082310210798401C079000789E
:105160002B2819D004DC202818D0232804D117E0DC
:105170002D280FD0302815D0079A00271078FF432C
:105180000346303B3C46092B0FD807A800F076FABF
:10519000044615E00D43DFE71543DDE71D43DBE77C
:1051A000202000E001200543D6E72A2808D1521C20
:1051B0000898079210C80890002C01DA64420D4349
:1051C000079938460A782E2A14D1491C0791087885
:1051D0000246303A092A03D807A800F04FFA06E041
:1051E0002A2806D1491C0791089901C9089100286D
:1051F00000DA0020079A39461778682F03D06C2F01
:1052000001D04C2F02D1521C39460792079B0A222B
:105210001B786E2B2CD00CDC632B2AD004DC412BAA
:1052200026D0582B11D19BE0642B01D0692B0CD1D7
:105230009AE0732B3DD004DC6F2B77D0702B04D118
:1052400064E0752B73D0782B6FD0252B09D02520E7
:1052500069460872012102A8B04707980178002921
:1052600075D00798694600780872012102A8B047F6
:1052700066E0E80609D42025641E002C05DD68469A
:105280000572012102A8B047F6E708986A4601783E
:105290001172001D0890012102A8B047202504E0EA
:1052A00068460572012102A8B047641E002CF7DC95
:1052B00046E0089A02CA08920091002901D12DA166
:1052C00000910A4600E0491C0B78002B01D0401EDB
:1052D000F9D28F1AE8060AD420252046641EB84267
:1052E00005DD68460572012102A8B047F5E7B9B2AD
:1052F0000098B047202504E068460572012102A805
:10530000B0472046641EB842F6DC19E0611C02D1A9
:10531000082401210D4300900898019502C82346F6
:105320001022089009E001E001E01BE00822089B40
:1053300002CB0893019500902346304600F01EF8FA
:105340000798401C07900178002901D0EAE60EE09A
:105350000398002802D081B20498B04709B0F0BD8C
:10536000402215431022E2E702231D43DFE7401EDF
:105370000790E5E73C4E554C4C3E0000FFB5074614
:10538000574897B0219D006815901E460A4668064A
:1053900002D5534840681590E80601D56D086D00A8
:1053A0001998801E232870D2E80701D0302100E030
:1053B000202110A8017300210172A80710D5002A2E
:1053C00004DA2D2010A90872524208E0680701D5BE
:1053D0002B2002E0280703D5202010A908725E1EAA
:1053E000A80608D51998102802D0082802D002E093
:1053F000B61E00E0761E0024002A14D0104619992B
:10540000FAF742FF159A525C01A90A55641C020082
:10541000F4D12098844200DD20942098361A11207F
:1054200005420BD00EE03020694608710124F0E7F8
:1054300020206946087001216846B8473046761E2C
:105440000028F5DC10A8007A002802D0012112A85B
:10545000B847A80616D51998082802D0102802D0F7
:1054600010E0302009E030206946087001216846CC
:10547000B8471B4800682030407869460870012111
:105480006846B847E80604D507E027E0012113A8DD
:10549000B8473046761E0028F8DC30252099481E93
:1054A0002090A1420BDD684605700121B847F5E761
:1054B000285D6946087001216846B84700E001ADE3
:1054C0002046641E0028F3DC20243046761E002887
:1054D00004DD684604700121B847F6E71BB0F0BD53
:1054E0004C79FF1FF8B5084D0E4607460024A00072
:1054F0002A58002A02D0314638469047641CE4B24C
:10550000052CF4D3F8BD000054A5FF1FFFB581B0F2
:105510000298FFF749FD040069D0029835498600DA
:105520008A59002A63D0136A1820002B00D0342037
:10553000936A002B00D01430049B002B00D01C3049
:10554000516A002900D01630FAF702FE05004ED04D
:1055500018220021FAF784FD2620FBF75BFE0700E6
:1055600000D12778D0202870019868700A20A87090
:105570000298A8800398A8711E482C4680591834B8
:10558000006A002808D01B49AC60895920461C34A9
:10559000096A1C22FAF74CFD16488059806A0028D7
:1055A00008D01449EC60895920461434896A1422C1
:1055B000FAF73EFD0498002806D02C6120461C34E2
:1055C0001C220499FAF734FD0A488159496A0029D6
:1055D00006D06C6180591622416A2046FAF728FDF0
:1055E000F8B22946FAF790FD0298FDF725F905B0C3
:1055F000F0BD0000B87EFF1FFFB581B01D46174605
:1056000014200E9EFAF7A4FD040020D0D0202070B4
:10561000019860700520A070E770002D05D006226B
:105620002946201DFAF704FD04E006220021201D72
:10563000FAF716FD0A9860810B98A0810C98E0811A
:105640000D982082A67421460298FAF75DFD05B0F8
:10565000F0BDF8B506461C4615460F460820FAF779
:1056600077FD010009D0D02008704E7006208870A8
:105670008D808C713846FAF747FDF8BD0146002051
:1056800006E0531C0B600A23127858433038101878
:105690000A681378303B092BF3D97047007841072B
:1056A0008207C90F920F89000006C00E1143C00087
:1056B0000843704701468A0008491020895800298C
:1056C0000AD00A6A002A07D08968002904D0107A13
:1056D000097E884200D3084670470000207FFF1FE4
:1056E00010B50246014620321031FAF7EBFD10BD2D
:1056F00010B5FAF7E7FD10BD7FB50D4604468100F1
:105700000948405800280ED0014668314EC903961A
:105710006E460EC6037FC28801782846FDF7FAF868
:10572000204600F003F87FBD207FFF1F70B50446C0
:1057300000F0BEFCA500134C6059002821D0006A7F
:10574000002801D0FAF7DAFC6059806E002801D0F9
:10575000FAF7D4FC6059C06E002801D0FAF7CEFCED
:105760006059006F002801D0FAF7C8FC6059406FFB
:10577000002801D0FAF7C2FC6059FAF7BFFC0020FC
:10578000605170BD207FFF1F7FB5084D84002959EF
:10579000102268462531FAF74BFC2859044BC08883
:1057A0006A46112100F014FC04B070BD207FFF1F79
:1057B000F56402117FB50C4C85006159002910D0A9
:1057C000694600F029FC60590178C088002901D0A1
:1057D000064B00E0064B6A46072100F0F9FB04B0D7
:1057E00070BD0120FBE70000207FFF1F5165021103
:1057F000E365021170B50D46064600240AE0FAF78B
:1058000067FD010A3155641CE4B2AC4202D2305546
:10581000641CE4B2AC42F2D370BD00007FB5084D09
:1058200084002959102268463531FAF701FC2859BD
:10583000044BC0886A46112100F0CAFB04B070BD59
:10584000207FFF1F2F65021110B5064A8300D25832
:10585000002A06D0D288824203D1012901D1FFF764
:1058600065FF10BD207FFF1F70B50E4C06468500FA
:105870006059002813D000782146002810D088688D
:10588000002804D04168002901D03046884760597B
:105890004078122803D100213046FFF72DFF70BD5C
:1058A0004868EDE7207FFF1F10B50A46024B112123
:1058B00000F08EFB10BD00005D6402111CB50446B3
:1058C00068461346017006221946401CFAF7B0FBE1
:1058D000034B6A460821204600F07AFB1CBD0000FD
:1058E0007F64021110B50A46024B112100F070FBD3
:1058F00010BD0000A564021110B586B004466846CC
:105900001346018008221946801CFAF791FB044BCC
:105910006A460B21204600F05BFB06B010BD00007C
:10592000C764021110B50A46024B112100F050FB6A
:1059300010BD0000F165021130B587B004460020AB
:1059400069460875A06805782B00FAF783FB0C2CD4
:1059500007070F1215181B1E2124272C00F0CAFE62
:1059600012281DD106206946087529E000F094FE32
:1059700016E000F0B0FE13E000F09DFE10E000F035
:1059800048FE0DE000F074FE0AE000F062FE07E061
:1059900000F04EFE04E000F025FF01E000F014FFEF
:1059A000002802D008E00720DEE760886A46294622
:1059B00000F028FF694608756846007D002805D07C
:1059C000608805A900F0F2FA07B030BD608800F0E9
:1059D00043FBF9E7F8B52B4D06468700E8590C461E
:1059E000002807D0C188B14204D14178062904D0EB
:1059F000112930D0002C36D03EE002782149002A0F
:105A000025D08368026A5B69DC0704D0147BE40755
:105A100001D0072105E09C0705D5147BA40702D51A
:105A2000092141702CE05B0704D5127B520701D598
:105A30000B21F6E78868002822D0416800291FD092
:105A400030468847E8594078122802D018E0486864
:105A5000F1E7002103E0002C00D03224214630463B
:105A6000FFF74AFE0CE03046FFF79EFA002803D00D
:105A7000017910221143017131462046FDF722FCC5
:105A80000120F8BD207FFF1F70B501780124922905
:105A900002D0A02919D130E041780E2902D03E2948
:105AA00013D10BE081881A4AD14205D18068411C8C
:105AB000007800F033F81EE000201CE001468078FA
:105AC0000124052803D0082811D000241DE0114826
:105AD0000078400719D510480068002815D0836861
